:100000000C9449060C9466060C9466060C946606DD
:100010000C9466060C9466060C9466060C946606B0
:100020000C9466060C9466060C94261A0C94E2193D
:100030000C9499250C9466060C9466060C9466063E
:100040000C9466060C9466060C9466060C94660680
:100050000C9466060C94EE140C9466060C946606DA
:100060000C9466060C946A2D0C94472D0C9466062D
:100070000C9466060C9466060C9466060C94660650
:100080000C9466060C9466060C9466060C94660640
:100090000C9466060C9466060C9466060C94660630
:1000A0000C9466060C9466060C9466060000A85D27
:1000B000360037000D002B001D081D0A0A005200F3
:1000C00007001302500051004F001B020000000007
:1000D00000001150000001000000000000000000BE
:1000E0000000000000000000000000000000000010
:1000F0000000000000000000000010500000A85D9B
:1001000050084F0814001A000800150004001600DB
:10011000070009001E001F001D001B001D081D0A0E
:100120001C001350000001000000000009081C0022
:100130000A0008082000220027000F0850084F0876
:10014000060A190A2C002D082E0812500000A85D7E
:10015000360037000D002B001D011D030A00520060
:1001600007001302500051004F001B020000000066
:100170000000155000000100000000000000000019
:10018000000000000000000000000000000000006F
:1001900000000000000000001D0014500000A85DD9
:1001A00050014F0114001A00080015000400160049
:1001B000070009001E001F001D001B001D011D037C
:1001C0001C001750000001000000000000000000AB
:1001D000000000000000000000000000000000001F
:1001E0000000000000000000000016500000A85DA4
:1001F000000054005F006000610055005C005D007D
:100200005E00560059005A005B0057006200000073
:10021000630058000000A85D00000000000000001E
:10022000C45C000000000000C65C0000000000008C
:10023000C85C0000005C0000CA5CC35C00DA02819C
:10024000FFD9F1DB20A4A62EAF00A0C000A1C800FA
:10025000AED580A81FD300408D14200000047F3F3E
:100260001F643214643214783C1E1E140A05554E65
:100270004445460020522D56540A00202D2D532D62
:100280000A00202D2D482D0A00202D2D4D2D0A006D
:10029000202D2D2D2D0A0046554E43200A002030DA
:1002A0002D2E3D0A00203132332B0A002034353602
:1002B0002D0A00203738392A0A00202D2D2D2F0A2B
:1002C00000394B4559200A00202D2D2D200A0020F1
:1002D0002D2D2D2D0A00202D2D2D2D0A00202D2D08
:1002E0002D2D0A00202D2D2D2D0A0057434150326F
:1002F0000A0020555242200A0020575444430A0065
:1003000020485357420A0020454342530A00202DFB
:1003100053504E0A0057434150310A00202D2D2DD5
:10032000200A00202D2D2D2D0A00202D2D2D2D0AE7
:1003300000202D2D2D2D0A00202D2D2D2D0A0057AA
:100340004C524D320A002052502D200A00204C44BD
:10035000522D0A00204C55442D0A0020565055526B
:100360000A00202D53504E0A00574C524D310A00BE
:1003700020532D2B200A0020504E43500A002033DA
:100380003530410A0020464247450A00202D2D2DD8
:100390002D0A004D434150320A0020555242200A96
:1003A0000020575444430A0020485357420A002073
:1003B000454342530A00202D53504E0A004D4341FD
:1003C00050310A00202D2D2D200A00202D2D2D2DFD
:1003D0000A00202D2D2D2D0A00202D2D2D2D0A0057
:1003E000202D2D2D2D0A004D4C524D320A00205249
:1003F000502D200A00204C44522D0A00204C554418
:100400002D0A0020565055520A00202D53504E0AF6
:10041000004D4C524D310A0000AE000101010101B6
:1004200001010101020202020202020202030303AD
:10043000030303030304040404040404050505057D
:10044000050606060606070707070708080808093D
:100450000909090A0A0A0B0B0B0C0C0C0D0D0D0EE9
:100460000E0E0F0F0F10101111111212131314147E
:10047000151516161717181819191A1A1B1B1C1DF3
:100480001D1E1E1F2020212222232424252626274C
:100490002829292A2B2C2D2D2E2F3031323233347E
:1004A00035363738393A3B3C3D3E3F404142434484
:1004B00045464748494A4C4D4E4F50515354555666
:1004C00058595A5B5D5E5F616264656668696B6C12
:1004D0006D6F7072737577787A7B7D7E808283858D
:1004E00087888A8C8E8F91939596989A9C9EA0A2CD
:1004F000A3A5A7A9ABADAFB1B3B5B7BABCBEC0C2D7
:10050000C4C6C9CBCDCFD1D4D6D8DBDDDFE2E4E79A
:10051000E9EBEEF0F3F5F8FAFDFFFFAA7F55402274
:1005200023252628292A2C2D2F3032333536383AE8
:100530003B3D3E4042434547494A4C4E505153553E
:1005400057595A5C5E6062646668696B6D6F71735F
:100550007577797B7D7F81838587898A8C8E909260
:100560009496989A9C9E9FA1A3A5A7A8AAACAEAF6B
:10057000B1B3B4B6B8B9BBBCBEBFC1C2C3C5C6C7B0
:10058000C9CACBCCCDCED0D1D2D2D3D4D5D6D7D761
:10059000D8D9D9DADADBDBDBDCDCDCDCDCDDDDDDA9
:1005A000DDDCDCDCDCDCDBDBDBDADAD9D9D8D7D7A5
:1005B000D6D5D4D3D2D2D1D0CECDCCCBCAC9C7C652
:1005C000C5C3C2C1BFBEBCBBB9B8B6B4B3B1AFAE90
:1005D000ACAAA8A7A5A3A19F9E9C9A989694929036
:1005E0008E8C8A89878583817F7D7B79777573710E
:1005F0006F6D6B6968666462605E5C5A59575553EB
:1006000051504E4C4A4947454342403E3D3B3A38A3
:1006100036353332302F2D2C2A2928262523220047
:10062000AF05010902A10185020901A1000509190F
:1006300001290815002501950875018102050109A8
:100640003009311581257F95027508810609381515
:1006500081257F950175088106050C0A38021581F0
:10066000257F950175088106C0C005010980A1019B
:10067000850319012AB700150126B70095017510E9
:100680008100C0050C0901A101850419012AA002FD
:10069000150126A002950175108100C0050109060B
:1006A000A101050719E029E7150025019508750145
:1006B00081029501750881010507190029FF1500C0
:1006C00026FF009506750881000508190129059582
:1006D0000575019102950175039101C009023B0066
:1006E000020100A0FA090400000103010100092130
:1006F00011010001224000070581030800010904DF
:1007000001000103000000092111010001227B000A
:1007100007058203200001120100020000000861A9
:100720006E61600100010200010E035400490044A3
:1007300000420049005400000012036E0075006C76
:10074000006C00620069007400730000000403097B
:100750000407087F0807003E5B4F5B3E003E6B4F7F
:100760006B3E001C3E7C3E1C00183C7E3C18001C6E
:10077000577D571C001C5E7F5E1C0000183C180053
:1007800000FFE7C3E7FF00001824180000FFE7DBC5
:10079000E7FF0030483A060E002629792926004056
:1007A0007F05050700407F05253F005A3CE73C5A7E
:1007B000007F3E1C1C0800081C1C3E7F0014227F8A
:1007C0002214005F5F005F5F0006097F017F000069
:1007D0006689956A0060606060600094A2FFA294E0
:1007E0000008047E04080010207E20100008082A5B
:1007F0001C0800081C2A0808001E10101010000C0D
:100800001E0C1E0C0030383E383000060E3E0E0620
:100810000000000000000000005F00000000070072
:10082000070000147F147F1400242A7F2A1200235B
:100830001308646200364956205000000807030080
:1008400000001C224100000041221C00002A1C7FE5
:100850001C2A0008083E08080000807030000008CC
:10086000080808080000006060000020100804026A
:10087000003E5149453E0000427F40000072494918
:100880004946002141494D33001814127F100027BA
:1008900045454539003C4A49493100412111090784
:1008A00000364949493600464949291E00000014CE
:1008B0000000000040340000000008142241001431
:1008C00014141414000041221408000201590906EE
:1008D000003E415D594E007C1211127C007F494957
:1008E0004936003E41414122007F4141413E007F67
:1008F00049494941007F09090901003E41415173BD
:10090000007F0808087F0000417F4100002040412F
:100910003F01007F08142241007F40404040007F9B
:10092000021C027F007F0408107F003E4141413ECF
:10093000007F09090906003E4151215E007F091927
:1009400029460026494949320003017F0103003F3F
:100950004040403F001F2040201F003F4038403FA4
:100960000063140814630003047804030061594908
:100970004D4300007F414141000204081020000067
:100980004141417F000402010204004040404040D8
:10099000000003070800002054547840007F2844DA
:1009A000443800384444442800384444287F003800
:1009B000545454180000087E09020018A4A49C781E
:1009C000007F080404780000447D4000002040407F
:1009D0003D00007F102844000000417F4000007C63
:1009E00004780478007C08040478003844444438CF
:1009F00000FC182424180018242418FC007C080487
:100A000004080048545454240004043F4424003C87
:100A10004040207C001C2040201C003C4030403CDA
:100A2000004428102844004C9090907C004464546A
:100A30004C44000008364100000000770000000030
:100A400041360800000201020402003C2623263C35
:100A500000000000000000404040F0F8F8FF38FFC0
:100A6000F8F83FF8F8FF38FFF8F8F0404040000091
:100A70000000000080C0C0C0800000C0C080000036
:100A80000080C0C000C0C0000080C0C000000000E6
:100A900000C0C0C0C0C000C0C00000000000000016
:100AA0000000000000000000000000000000000046
:100AB0000000000000000000000000000000000036
:100AC0000000000000000000000000000000000026
:100AD000C0F0F8FC3E1E06010000007F4141417F4E
:100AE000007F4141417F000080C0E07E5B4F5BFEA4
:100AF000C00000C000DCD7DEDEDED7DC00C00000B6
:100B000000000000000000000000000000000000E5
:100B100000000000000000494949FFFFFFFFE0DF3F
:100B2000BFBF00BFBFDFE0FFFFFFFF494949000033
:100B30000000001F3F6060E0BF1F007F7F071E387E
:100B40001E077F7F007F7F0E1F3B7160000000004B
:100B5000007F7F0C0C0C007E7E007F7E0303007FF5
:100B60007E03037E7E03037F7E000F3E703C063CC7
:100B7000703E0F00327B49493F7E007F7E030300B9
:100B80001E3F69696F2600000000000000000000A1
:100B9000030F1F3F3C7870600000007F4141417FA0
:100BA000007F4141417F00307B7F783020203078CA
:100BB0007F3B0003000F7F0F0F0F7F0F000300002C
:100BC0000000000000000000000000000000000025
:100BD00000000000000000010101070F0F7F0F7FE0
:100BE0000F0F7E0F0F7F0F7F0F0F07010101000016
:100BF00000000000000000000101000000000000F3
:100C000000000000000000000000000000000000E4
:100C100000000000000000000000000000000000D4
:100C200000000000000000000000000000000000C4
:100C300000000000000000000000000000000000B4
:100C400000000000000000000000000000000000A4
:100C50000000000000000000000000000000000094
:100C60000000000000000000000000000000000084
:100C70000000000000000000000000000000000074
:100C80000000000000000000000000000000000064
:100C9000000011241FBECFEFDAE0DEBFCDBF26E09B
:100CA000A8EBB1E001C01D92A331B207E1F711E05A
:100CB000A0E0B1E0ECE4FDE502C005900D92A83B98
:100CC000B107D9F70E94BC250C94842E0C94000027
:100CD0001092B9008CE08093B80008959F92AF9273
:100CE000BF92CF92DF92EF92FF920F931F93CF9319
:100CF000DF93B82EEB010E9421156C01EE24E394E2
:100D0000F12CC431D10560F025E0E22EF12CCF3F6B
:100D1000DC0731F0CE0164E170E00E948C2D7B0194
:100D200084EAA82E94E8992E1092BC00A092BC00F0
:100D30000E9421158C018091BC0087FF0DC080911D
:100D4000B900887F883039F18091B900887F80317F
:100D500011F10FEF1FEF09C00E942115801B910BAD
:100D60008E159F0540F30EEF1FEFCF3FDC07E1F23A
:100D7000C6010E9412158C179D07B0F2C801DF91C1
:100D8000CF911F910F91FF90EF90DF90CF90BF9088
:100D9000AF909F900895B092BB009092BC000E94CB
:100DA00021158C018091BC0087FF0AC08091B90099
:100DB000887F883111F0803461F610E000E0DECFEA
:100DC0000E942115801B910B8E159F0558F3CBCFE8
:100DD0000F931F93CF93DF93EB018093BB0084E8C5
:100DE0008093BC000E9421158C018091BC0087FF7C
:100DF00011C02091B900287F81E090E0283211F4E1
:100E000090E080E0919581959109DF91CF911F91BC
:100E10000F910895CF3FDC0741F30E942115801BFD
:100E2000910B8C179D0708F38EEF9FEFEECFCF92BB
:100E3000DF92EF92FF920F931F93CF93DF936B019B
:100E40008A017901B9010E946E06E6010C0D1D1D93
:100E5000C017D10761F424E92093BC00DF91CF9142
:100E60001F910F91FF90EF90DF90CF90089597FD25
:100E7000F2CFB70189910E94E806EACFCF92DF92C4
:100E8000EF92FF920F931F93CF93DF93C62F6A01C8
:100E90007901B8010E946E0697FD0CC0B8018C2F35
:100EA0000E94E806E601EC0CFD1CCE15DF0511F0F2
:100EB00097FF0CC024E92093BC00DF91CF911F91D4
:100EC0000F91FF90EF90DF90CF900895B801899136
:100ED0000E94E806EACF84E98093BC000895E8ED1B
:100EE000F0E080818E7F80831092E2001092DA0021
:100EF0001092E100A0EEB0E08C9181608C93808133
:100F00008F77808319BCA7EDB0E08C918E7F8C9396
:100F100080818F7E80831092AA0208952091E40040
:100F20003091E50095E6A9012091EC00822F8170B7
:100F300020FF06C08091E80080FF06C080E0089591
:100F40002091E80022FD1AC08091B702882389F021
:100F5000853089F08091EB0085FD0FC02091E40081
:100F60003091E50042175307F9F29150E1F684E021
:100F7000089582E0089583E0089581E00895EF9256
:100F8000FF920F931F93CF937C018B010E948E07DA
:100F9000C82F811117C08091E80085FD0BC080919A
:100FA000E8008E778093E8000E948E07882399F3EB
:100FB000C82F08C0F70181917F018093F100015093
:100FC000110949F78C2FCF911F910F91FF90EF904E
:100FD00008958091B90287FF13C08091E80082FFD5
:100FE00006C08091E8008B778093E80004C0809170
:100FF000B7028111F2CF08958091B7028823D9F307
:101000008091E80080FFF8CF8091E8008E77ECCFE8
:10101000982F9093E900242F762F50E0891731F014
:101020007091EC002091ED005091F00021FD07C07F
:101030009F5F973071F78093E90081E008953091C8
:10104000EB003E7F3093EB003091ED003D7F30931D
:10105000ED003091EB0031603093EB007093EC00C9
:101060002093ED005093F0002091EE0027FDE0CF9B
:1010700080E00895CF92DF92EF92FF920F931F933B
:10108000CF93DF93C8EDD0E088818F7E8883E7ED32
:10109000F0E080818160808384E082BF81E0809382
:1010A000AA0288818E7F888302EE10E0F801108208
:1010B0001092DA0081EEC82ED12CF60110828881C0
:1010C0008F77888388818068888388818F7D8883F3
:1010D00019BC1092B7021092B8021092B602109288
:1010E000B50290EEE92EF12CF70180818B7F808391
:1010F00088818160888342E060E080E00E94080887
:10110000F60180818E7F8083F801808181608083F9
:10111000808188608083F70180818E7F80838881D1
:1011200080618883DF91CF911F910F91FF90EF90A5
:10113000DF90CF900895FC018091BF029091C00292
:1011400086179707A0F06115710529F49091E800C2
:101150009E779093E80090E06115710551F491112C
:1011600008C08091E80082FF34C080E00895BC018F
:10117000F2CF8091B7028823C1F18530C1F180910F
:10118000E80083FD30C08091E80082FDEACF8091C5
:10119000E80080FFE1CF8091F3002091F200382F2A
:1011A0006115710519F02830310558F091E02830AB
:1011B000310509F090E02091E8002E772093E800B7
:1011C000CBCF81918093F100615071092F5F3F4F28
:1011D000E7CF8091B702882341F0853041F08091BC
:1011E000E80083FFBECF81E0089582E0089583E0A8
:1011F000089508958091AC02089587E797E790934A
:1012000001088093000888E19AE00FB6F894A89549
:10121000809360000FBE90936000FFCF2FB7F894CB
:101220006091A3027091A4028091A5029091A60200
:101230002FBF08959C01FC0132969FEF80E0419101
:10124000461751F09F3F19F4411101C0982F8F5F4D
:101250008630A9F79F3F09F40895290F311D97FDA6
:101260003A95F901628308952091A1023091A2027A
:101270002817390771F09093A2028093A102E091A0
:101280009F02F091A002309721F00084F185E02DBB
:101290000994089520919D0230919E0228173907E4
:1012A00071F090939E0280939D02E0919F02F091D5
:1012B000A002309721F00680F781E02D099408956F
:1012C000E0919F02F091A002309721F00190F0810F
:1012D000E02D099480E00895FA01811101C0FB011D
:1012E0000994089580918E02982F9E7F29F4817031
:1012F000826080938E0208958A34E8F38170886456
:10130000F8CFAF92BF92DF92EF92FF920F931F93AD
:10131000CF93DF93082F162FE901E42FF0E0E65E6C
:10132000FB4F611110C0E4915E2F4E2F4983E8837B
:101330005A83DF91CF911F910F91FF90EF90DF9033
:10134000BF90AF900895E62EF12C4491D42EE42F57
:10135000F0E026E0829FC00111242FEF30E0B901B8
:101360000E948C2D802F90E0880F991F55E5569F85
:10137000D001579FB00D11248A1B9B0B982F990FFA
:10138000890F5901AE18BF08AE9ED001AF9EB00DB7
:10139000BE9EB00D11245B2F189F80011124012FD8
:1013A00011275901A01AB10AAE9E8001AF9E100DFF
:1013B000BE9E100D11245901A81AB108AE9CC0019F
:1013C000AF9C900DBE9C900D1124892F9927281B4E
:1013D000390B2E9FC0012F9F900D3E9F900D112421
:1013E000E92F62307105A1F050F46115710509F41F
:1013F0009DCF6130710581F0EB2F512F97CF643075
:10140000710569F080F06630710509F48FCFF4CF73
:10141000E42F4B2F592F8ACFE42F412F87CFEB2F6B
:10142000542F492F83CF4B2F5D2DE12F7FCF40913C
:1014300067028D3E59F48091680287FF0DC01092BB
:10144000680241110BC010925F0208C08E3E81F409
:101450008091680218169CF3442381F08091690200
:1014600090916A02892B09F05AC010925E02089589
:101470008F3E49F447FFF0CF1092670280916802D7
:101480008111ECCFE0CF803F19F41416ACF3E4CF18
:1014900090916902893F29F41916F4F610926902B5
:1014A000DBCF8A3F19F497FFD7CFF8CF90916A022C
:1014B0008B3F29F497FFD0CF10926A02CDCF8C3F9B
:1014C00019F41916CCF3C8CF9FE0980F983090F418
:1014D000815F990B21E030E0B90102C0660F771FF0
:1014E0008A95E2F7CB0180959091660289238093DB
:1014F0006602B2CF8D3F31F4809160028E7F80937F
:101500006002AACF8E3F21F4809160028D7FF7CFD9
:101510008F3F09F0A1CF809160028B7FF0CF0895BB
:101520008091600280FD16C081FD16C082FD16C04C
:1015300080915E028823A1F0883280F428E0829FA7
:10154000C001112468E270E00E94CE2D862F672B27
:1015500039F0089582E0089584E0089588E00895C0
:1015600081E008958091600280FD14C081FD14C067
:1015700082FD16C080915F02882381F08E3180F455
:1015800020E5829FC00111246EE170E00E94CE2D03
:10159000862F089584E1089588E2089588E00895EB
:1015A00080E508958D3E31F40E94B20A81958093C2
:1015B000680208958E3E19F40E94B20AF8CF8F3E59
:1015C00031F40E94B20A8195809367020895803FAA
:1015D00019F40E94B20AF8CF893F29F40E94900AB8
:1015E0008093690208958A3F21F40E94900A8195B0
:1015F000F7CF8B3F31F40E94900A819580936A0265
:1016000008958C3F19F40E94900AF8CF9FE0980F3C
:10161000983070F4815F990B21E030E001C0220F17
:101620008A95EAF780916602822B8093660208957C
:101630008D3F31F480916002816080936002089553
:101640008E3F21F4809160028260F7CF8F3FB9F71F
:10165000809160028460F1CF80E00895F894E82FD3
:10166000E295EF70F0E031A1282F2F7081E090E03B
:1016700001C0880F2A95EAF7982F9095932391A39C
:1016800092A1892B82A3789408959091180292FFD9
:1016900006C0282F28712830F9F4877F846093FFD3
:1016A00006C0282F28712831F1F4877E84612091AB
:1016B000190220FF06C0382F38713830D9F4877FDF
:1016C000816021FF06C0282F28712831D1F4877E40
:1016D000816194FD877E0895282F24712430F9F6C6
:1016E0008B7F8860DCCF282F2471243101F78B7E1B
:1016F0008861DDCF382F3171313019F78E7F8860E6
:10170000E0CF282F2171213121F78E7E8861E1CF32
:10171000CF93DF93EC0182389105A9F1D8F581339D
:10172000910509F496C048F58932910509F48AC0FB
:101730008A9709F495C0C11521E5D20708F0BCC00D
:10174000C11530E5D30708F014C1C83ED10508F033
:101750009CC0C13ED10560F5C83AD10508F087C0EC
:10176000C53AD10508F0FDC0C130D10509F1209777
:10177000F9F0C430D105E0F440C08533910509F497
:101780005AC0C997C1F680911802837089F0C0EEE3
:10179000D0E00EC0833E910599F170F4803E910532
:1017A00001F1823E910539F68091180282FD21C037
:1017B000CE01DF91CF910895863E910561F1873E7C
:1017C000910571F1843E910509F0B5CF8091190220
:1017D00081FFEECF80911802C7EED0E084FD0DC0EE
:1017E000E7CF8091180280FD12C19091190290FFFD
:1017F000DFCFC3EED0E084FFDBCFD0E0C0E0D8CFB6
:101800008091180282FD06C19091190290FDBFCF10
:1018100084FFCECFF2CF8091180283FDDDCFC8CFF9
:101820008091180283FDF9C09091190291FFF0CFC9
:10183000C4EED0E0BDCF8091180285FFB9CFC9E2D8
:10184000D0E0B6CF8091180285FFB2CFC5E3D0E0DB
:10185000AFCF8091180286FFABCFCAE2D0E0A8CF0D
:101860008091180286FFA4CFC1E3D0E0A1CFCF3B87
:10187000D10518F6C85AD0E0CC0FDD1FCD5BDE4F86
:101880000990D881C02DD46493CFC11540E2D4070C
:1018900058F4C11581E0D80708F08ACFCD3ED105B4
:1018A00008F4ABCFD06584CFC11590E4D90708F414
:1018B000A4CFDF70D06A7CCFC11525E5D20700F533
:1018C000C11534E5D30708F08AC0C11543E5D40734
:1018D00008F071C0C11582E5D80708F467C0CE01D1
:1018E0008370992721E030E002C0220F331F8A95D0
:1018F000E2F7C695C69580E2C89FE001112452C068
:10190000C11599E5D907A8F4C11528E5D20708F053
:101910006BC0C11536E5D30708F06FCF8C2F0E943E
:10192000450BC82FD0E0DC2FCC27CC27DF71D0624D
:101930003FCFC1154AE5D40708F45BC0CE019056ED
:101940008115904208F059CF8D2F8F710E94450B61
:1019500090E0982F882788279F719C012C2BE90104
:10196000E6CFC55AD0E0C05CDE4FC881D0E0D0647D
:101970001FCFCE01E4E096958795EA95E1F7837055
:101980002C2F26952695237040E2249F9001112448
:10199000382B8C2F8370C1E0D0E002C0CC0FDD1F4C
:1019A0008A95E2F7C22BD32BDC6802CFDC2FCC2741
:1019B000C16FD06AFDCECE018370992721E030E05F
:1019C00002C0220F331F8A95E2F7C695C69590E2B2
:1019D000C99FE0011124C22BD32BDA68E9CEDC2F9A
:1019E000CC27C46FD06AE4CEDC2FCC27C06FD06A7E
:1019F000DFCE8C2F8F700E94450B34E0D695C795B3
:101A00003A95E1F7CF709C2FEC01D069D1CEC9E3B4
:101A1000D0E0CECEC2EED0E0CBCEC6EED0E0C8CE87
:101A20008091130281111092130208958095909174
:101A30009B02982390939B020895809590919C021D
:101A4000982390939C020895809109029091D80167
:101A5000981301C008958F5F8770FACF8F929F927D
:101A6000AF92BF92CF92DF92EF92FF920F931F93AC
:101A7000CF93DF938090370290903802A090390284
:101A8000B0903A02409114025091150260911602F2
:101A900070911702842A952AA62AB72ACFE1D0E0AE
:101AA000E92EF12C25E0C22E082F10E0DC2ED50106
:101AB000C4010C2E04C0B695A795979587950A94F6
:101AC000D2F780FD11C0219788F7D12C8D2DDF91A1
:101AD000CF911F910F91FF90EF90DF90CF90BF902B
:101AE000AF909F908F900895CC9EF001CD9EF00D09
:101AF0001124EE0DFF1DEE0FFF1FEE0FFF1FE00F75
:101B0000F11FEE0FFF1FE455FF4F859194910E9446
:101B1000880B0197C1F2DACFCF93DF93EC010E94DB
:101B20002E0D95E0899FF0011124ED0FF11DEE0FB0
:101B3000FF1FEE0FFF1FEC0FF11DEE0FFF1FE4550F
:101B4000FF4F85919491DF91CF910C94880B990F61
:101B5000990F890F982F977086958695869525E021
:101B6000829FF0011124ED53FE4F50E040E080E0F1
:101B7000219130E0092E02C0369527950A94E2F7AC
:101B800021703327042E01C0220F0A94EAF7822B1A
:101B90004F5F5F4F4530510559F70895990F990FE1
:101BA000890F982F977041E001C0440F9A95EAF78A
:101BB00086958695869595E0899FF0011124ED53D1
:101BC000FE4F30E020E070E05191DF011197CB0132
:101BD000022E02C0969587950A94E2F7817081954E
:101BE0008527842385278C932F5F3F4F2530310530
:101BF00059F70895FC01808191810E948C0D929586
:101C00009F70963091F058F4925F9F70923058F424
:101C1000803F19F030F4883E30F481E008959A5FF7
:101C2000F4CF843FD1F380E00895883EB0F3813F44
:101C3000D1F7F3CF80FF03C0809888980895809AE9
:101C4000FCCFCF92DF92EF92FF926C01EE24FF2443
:101C500020E0C114D104E104F10419F0C701B60178
:101C600020E1C72ED82EE92EFF24C114D104E104AF
:101C7000F10419F0285FC701B6016B017C0154E043
:101C8000F694E794D794C7945A95D1F7C114D10428
:101C9000E104F10419F02C5FC701B6016B017C016E
:101CA00042E0F694E794D794C7944A95D1F7C114CB
:101CB000D104E104F10419F02E5FC701B601969535
:101CC000879577956795672B682B692B09F02F5FB0
:101CD000822FFF90EF90DF90CF9008959C013A956E
:101CE00021153F4150F5FC01EE27F170BC0166273C
:101CF0007270AC01442754709C012227387094FF05
:101D00000EC080E1EF2B09F480E0672B09F08062C0
:101D1000452B09F08064232B89F08068089581E0C9
:101D2000EF2B09F480E0672B09F08260452B09F066
:101D30008460232B19F08860089580E00895CF9384
:101D4000DF93682F81E06A3019F06D3029F480E06C
:101D5000DF91CF910C942E0F8091CD049091CE0401
:101D600026E0FC01A7ECB4E001900D922A95E1F782
:101D7000603E08F45AC026E0FC0111922A95E9F76A
:101D8000C091CD04D091CE0446E050E0BE0187EC76
:101D900094E00E942F2E9E01275C3240892B41F156
:101DA000C90145E0969587954A95E1F741E050E0F5
:101DB000BA0102C0660F771F8A95E2F7CB016091E6
:101DC000C5027091C602862B972BB9016B5F7F4FBE
:101DD000E5E076956795EA95E1F702C0440F551F57
:101DE0006A95E2F7842B952B9093C6028093C502E7
:101DF0002A5F3F4F4091C402642F70E0C9010E94E6
:101E00008C2D481B463010F4240F311D211572E033
:101E1000370710F030E020E029533D4F3093CE04D7
:101E20002093CD04DF91CF910895F6E06F9FB0012C
:101E300011246F5A784F46E050E00E94192EA0CF2F
:101E4000CF93DF93EC01FE018491811103C0DF91F8
:101E5000CF9108950E949F0E2196F5CFCF93382FF2
:101E6000E091CD04F091CE04E75CF2402091C402F1
:101E7000622F70E0CF010E948C2D281B822F33230C
:101E800061F066E00E94C22DC82FC15010F4CF91BE
:101E9000089580E20E949F0EF8CF9F01280F311D08
:101EA0002115324018F080E0F0E0E0E08E0F9F2F27
:101EB000911D89539D4F9093CE048093CD04E7CF1D
:101EC00080919C0290919B02892B8093BA01909102
:101ED0001302992391F0892B8093BA0120E08CEBB7
:101EE00091E0FC013191CF0131112F5FF1E0823C93
:101EF0009F07B9F721110E94100D48E050E06BE0F8
:101F000072E08AEB91E00E942F2E892BA9F088E0E5
:101F1000EAEBF1E0ABE0B2E001900D928A95E1F7D7
:101F2000E0919F02F091A002309731F00280F3819E
:101F3000E02D8AEB91E009940895CF93DF93EC01B3
:101F400081E0898B80919C029F81892B80939C02E8
:101F500080919B029885892B80939B020E94600F41
:101F6000EA81FB81309739F06C897D89CE01069634
:101F7000DF91CF910994DF91CF910895EF92FF9275
:101F80000F931F93CF93DF93EC018A85811134C0A7
:101F9000EB80FC8087E5F81A26E12E9DC0012F9D7D
:101FA000900D1124DC01A75DBE4F1496ED91FC91BC
:101FB0001597309731F054966D917C91815D9E4FCD
:101FC000099586E18E9D80018F9D100D1124075D7E
:101FD0001E4FF80187810E941D0DF80180850E9427
:101FE000160D0E94600F188219861B861E821D82A4
:101FF00010929A0210929902DF91CF911F910F9146
:10200000FF90EF900895882321F00E94160D0C9404
:10201000600F0895882339F090919B02982B90933C
:102020009B020C94600F0895882321F00E941D0DDF
:102030000C94600F0895882339F090919C02982B9E
:1020400090939C020C94600F0895CF92DF92EF92D0
:10205000FF920F931F93CF93DF936C017B0164E694
:1020600070E088E70E946E06EC0197FD12C010E058
:1020700000E0F601E00FF11F849164E670E00E9439
:10208000E806EC01892B29F40F5F1F4F0E151F0581
:1020900081F70E946B07CE01DF91CF911F910F91C5
:1020A000FF90EF90DF90CF900895CF93C09197026B
:1020B000809198028823D1F00E940E0968577C4EC7
:1020C0008F4F9F4F60939302709394028093950279
:1020D00090939602C11108C062E070E08FE196E033
:1020E0000E942510892B29F0C09197028C2FCF9147
:1020F000089581E080939702F7CF8093A7027093B1
:10210000A9026093A8028091B702843001F582E0B1
:102110008093E9008FEF9091E800815095FD06C013
:1021200095ED9A95F1F700008111F5CF8091E800C7
:1021300085FF0DC050E040E063E070E087EA92E088
:102140000E94BF078091E8008E778093E800089591
:10215000BC0184E00C947D10BC0183E00C947D10E4
:102160009C0182E08093E9009FEF8091E80091500C
:1021700085FD06C085ED8A95F1F700009111F5CF38
:102180008091E80085FF0CC050E040E066E070E020
:10219000C9010E94BF078091E8008E778093E80014
:1021A0000895CF93DF93EC0181E08093E9008FEFF6
:1021B0009091E800815095FD06C095ED9A95F1F754
:1021C00000008111F5CF8091E80085FF14C050E038
:1021D00040E068E070E0CE010E94BF078091E80017
:1021E0008E778093E80088E0FE01ADEAB2E00190CE
:1021F0000D928A95E1F7DF91CF91089580918E023B
:1022000080FD0AC0E6E7F2E0118210821282339666
:1022100052E0EE38F507C1F7269A35B13F7B25B17C
:1022200020644FB7F89486E792E0FC015191CF010A
:1022300068E025B9000000C057FF35B9550F000010
:1022400000C000C000C035B900C06A9591F7F2E047
:102250008E389F0751F74FBF8FE594E00197F1F754
:1022600000C000000895EF92FF920F931F93CF9349
:10227000DF938C01C6E7D2E0F12CE12CF8019481C8
:102280006091900280918F02F4E0EF16F104FCF46B
:102290009923F9F09E01409191020E9481092FEF4C
:1022A000E21AF20A239688E0E816F10439F70E9450
:1022B000FE10F801848190E0019681709927848353
:1022C000DF91CF911F910F91FF90EF900895992387
:1022D00009F39E0140E0E1CF8F929F92AF92BF92AF
:1022E000CF92DF92EF92FF920F931F93CF93DF93E2
:1022F000EC014C81042F10E09801D8010E94F02DD0
:102300009B01AC010E94062E4B015C01E0E2F0E073
:10231000E01BF10BA5E5B0E0AC019B010E94062E8D
:102320006B017C019F01DF010E94E82D9B01AC0144
:102330000E94112E9B01AC01280D391D4A1D5B1D09
:10234000C701B6010E94A02DF22E822F90E039E243
:102350003F15D8F143E0249F90011124359527952E
:10236000122F109596E7C92E92E0D92E00E085E550
:10237000E82EEF188E2D01FD8F2D9601412F6091D3
:1023800090020E9481090F5F53E0C50ED11C0830F6
:1023900089F70E94FE109C8181E0992319F0903208
:1023A00019F48FEF8093280180912801890F8C8385
:1023B000DF91CF911F910F91FF90EF90DF90CF9021
:1023C000BF90AF909F908F90089525E530E0A901D0
:1023D000481B590BCA019A01220F331F280F391FBE
:1023E00037FFBCCF2F5F3F4FB9CF0F931F93CF93D2
:1023F000DF93C6E7D2E0FE0111821082128233968B
:1024000082E0EE38F807C1F710E000E08091740236
:10241000082E000C990B081719078CF180912701E1
:10242000082E000C990B801791074CF19E014091EA
:1024300091026091900280918F020E9481090F5F4A
:102440001F4F23960830110509F70E94FE10809156
:10245000260190917402980F9093740220912701A5
:10246000280F20932701121614F497301CF0819541
:1024700080932601DF91CF911F910F9108951982CA
:1024800018821A82DCCFCF92DF92EF92FF920F93E5
:102490001F93CF93DF93FC018281DD24DA9480FDCA
:1024A00002C0DD24D394C6E7D2E010E000E0198238
:1024B00018821A8294E0E92EF12CC12C80917302CB
:1024C0008C0D8930CCF18770082E000C990B801789
:1024D000910791F4809191028E9DA0018F9D500DE6
:1024E000112455954795559547959E016091900209
:1024F00080918F020E948109CD0CF1E0EF1AF10862
:10250000E9F60F5F1F4F23960830110581F60E94F0
:10251000FE108091730291E0D91214C0811110C095
:1025200087E080937302DF91CF911F910F91FF900D
:10253000EF90DF90CF90089587FFC6CF885FC4CF1C
:102540008150EFCF90E0019687709927EACFEF9204
:10255000FF921F93CF93DF93EC0186E7E82E82E092
:10256000F82E10E08C8197014091910260919002C9
:10257000810F0E948109115E83E0E80EF11C183F73
:1025800089F70E94FE109A818C8190FF08C08F5FAE
:102590008C83DF91CF911F91FF90EF900895815030
:1025A000F7CF90918E0290FF0CC0E6E7F2E08183B6
:1025B00060834283339692E0EE38F907C1F70C94BA
:1025C000FE1008950F931F93CF93DF9300D00F92C7
:1025D000CDB7DEB78C018091750281110AC09E01D2
:1025E0002F5F3F4F4FEF6FEF0E9481098A818093E9
:1025F0007502F8016481613069F08091750240E0F4
:10260000662361F040E0623011F44091750280E091
:1026100060E004C06091750240E080E00E94D11249
:10262000F801848190E0019663E070E00E94CE2D75
:1026300084830F900F900F90DF91CF911F910F9196
:102640000895CF93DF9300D00F92CDB7DEB790916E
:102650008E0290FF0AC09E012F5F3F4F0E948109AA
:102660004B8169818A810E94D1120F900F900F9047
:10267000DF91CF910895CF93DF93EC01EEE8F2E084
:10268000438162818C810E9421138C818F5F8C83B6
:10269000DF91CF910895CF93DF93EC01EC81F0E0CF
:1026A000E15EFA4F4491EEE8F2E0628181810E949E
:1026B00021138C818F5F8C83DF91CF910895CF920E
:1026C000DF92EF92FF926B017C010E947209B701C9
:1026D000A60188E090E0FF90EF90DF90CF900C94FF
:1026E000622E7F928F929F92AF92BF92CF92DF9293
:1026F000EF92FF920F931F93CF93DF9300D00F922F
:10270000CDB7DEB7182FD62E042FC22E90918E0291
:1027100090FF29C0E92FE695AE2FB0E0AE56BE4F30
:102720008C91809371029E7F923071F59E012F5F94
:102730003F4F812F0E9481094B8169818A810E94CC
:10274000D11210938F02D092900200939102CC206C
:1027500051F060918E0270918F0280919002909161
:1027600091020E945F130F900F900F90DF91CF9115
:102770001F910F91FF90EF90DF90CF90BF90AF909F
:102780009F908F907F900895823019F4009191026C
:10279000D8CF863019F410918F02D3CF8930D9F376
:1027A000893179F6E9512E2F2170722EE695F0E0ED
:1027B000E65EFA4F85909490992436E7E32E32E056
:1027C000F32EB12CA12CC50123E0969587952A956F
:1027D000E1F7711013C0810F9701402F6D2D0E94FA
:1027E0008109A80CB91C83E0E80EF11C2EE8E21662
:1027F00022E0F20641F70E94FE10A3CF212F281BF2
:10280000822FEACFEEE8F2E0438121E1421B08F497
:1028100040E021E0628181810C947113EEE8F2E0E6
:10282000438121E1420F08F44FEF21E06281818171
:102830000C947113EEE8F2E0628121E1621B08F46E
:1028400060E021E0438181810C947113EEE8F2E0B5
:10285000628121E1620F08F46FEF21E04381818101
:102860000C947113EEE8F2E0818121E043816281F2
:1028700088500C947113EEE8F2E0818121E04381ED
:102880006281885F0C94711380919202882319F001
:1028900081508093920260918E0270918F0280919C
:1028A0009002909191020C945F1380919202833078
:1028B00018F48F5F8093920260918E0270918F0264
:1028C00080919002909191020C945F13EEE8F2E0F7
:1028D00083E0808311828FEF8283838314826081FF
:1028E0007181828193810C945F13CF9384E090E097
:1028F0000E943C2EC82F82E290E00E943C2E982F2E
:102900008C2FCF91089569EE7EEF90E080E00E94D9
:102910006E2E60E082E090E00E94502E60E083E046
:1029200090E00E94502E1092140210921502109204
:1029300016021092170260E084E090E00E94502E90
:1029400060E082E290E00E94502E60E085E090E03E
:102950000E94502E60E086E090E00E94502E6FEFC3
:1029600087E090E00E94502E40E050E0BA0188E0FD
:1029700090E00E94622E60E08DE090E00E94502E78
:1029800040E050E0BA0188E190E00E94622E60E0F1
:1029900087E190E00E94502E40E050E0BA018CE1C7
:1029A00090E00E94622E70E060E080E290E00E9481
:1029B0006E2E40E050E0BA0188E190E00E94622E65
:1029C00040E050E0BA018FE090E00E94622E40E0CB
:1029D00050E0BA0183E190E00C94622E78941F924B
:1029E0001FB61F9211248F939F93AF93BF93809133
:1029F000A3029091A402A091A502B091A602019613
:102A0000A11DB11D8093A3029093A402A093A502DF
:102A1000B093A602BF91AF919F918F911F901FBE5F
:102A20001F9018959C014FB7F8948091A302909144
:102A3000A402A091A502B091A6024FBF821B930BE6
:102A400008952FB7F8948091A3029091A402A091C9
:102A5000A502B091A6022FBF089590918E0290FF1B
:102A60003DC09170811129C0926090938E026623BF
:102A700051F060918E0270918F028091900290913E
:102A800091020E945F1360918E02669570E04BE0A8
:102A900050E08BE191E00E94222E892BA9F0109248
:102AA000720281E080936E0220E040919102609179
:102AB000900280918F020C947113853210F098640B
:102AC000D4CF880F982BD1CF81E0809372020E94DF
:102AD000211590936C0280936B02E3CF089580914F
:102AE0008E028695815009F484E261E00C942D15E4
:102AF00080918E0286958F5F853208F081E061E0DB
:102B00000C942D1590918E0290FF07C09695981702
:102B100020F0961710F40C94781561E00C942D15A4
:102B20000E9421159C019091670280916802982B68
:102B300021F03093640220936302909169028091A6
:102B40006A02982B21F03093620220936102E09197
:102B50009F02F091A002309749F082E080936502D5
:102B60000480F581E02D85E692E00994089590E0D7
:102B700080E00E944A0990E080E00E9434091092AF
:102B80009B020E94600F86E0E5E6F2E0DF011D9205
:102B90008A95E9F710925F0210925E02109260022D
:102BA0000C94901560933702709338028093390229
:102BB00090933A020C94B7150F931F9341E050E0A5
:102BC00060E070E004C0440F551F661F771F8A95B0
:102BD000D2F78091370290913802A0913902B091DA
:102BE0003A028A019B01082719272A273B27C90196
:102BF000B8011F910F910C94D2150F931F9341E0D0
:102C000050E060E070E004C0440F551F661F771F5E
:102C10008A95D2F7CB01BA01609570958095909511
:102C200000913702109138022091390230913A0216
:102C300060237123822393231F910F910C94D2154B
:102C400090910A028095892380930A02282F277089
:102C500091F4282F082E000C330B9217130659F00D
:102C60009091190292FD07C08595859585950E94E2
:102C7000FD1510920A020895CF93C0911902C2FB6C
:102C8000992790F9981799F080FBC2F9C09319021F
:102C90006091180284E090E00E94502E6C2F82E236
:102CA00090E00E94502E82E0CF910C942016CF919C
:102CB00008950F931F9341E050E060E070E004C07E
:102CC000440F551F661F771F8A95D2F780913702F0
:102CD00090913802A0913902B0913A028A019B0189
:102CE000082B192B2A2B3B2BC901B8011F910F91DF
:102CF0000C94D2150F931F9341E050E060E070E018
:102D00008A019B0104C0000F111F221F331F8A95E7
:102D1000D2F7C901B8011F910F910C94D2150F93EE
:102D20001F93CF93DF93EC018B01809111018111EF
:102D300029C0CE0101978E3F910520F0CF3E2FEFA5
:102D4000D20700F1F801828199E690931E02D09398
:102D50002002C0931F028093210230E020E08EE128
:102D600092E0FC014191CF01240F311DF2E082324B
:102D70009F07B9F72093220265E070E08EE192E0B0
:102D80000E941D2DC73A2DE5D207E9F081E0C83A2F
:102D9000DD45A1F4F8018281882381F0609137023A
:102DA000709138028091390290913A020E94210E6E
:102DB000811123C082E00E947A1680E0DF91CF91DA
:102DC0001F910F910895F80182818823B9F38098AB
:102DD000889880918E028E7F80938E02109272026C
:102DE000FFEF20E742E0F15020404040E1F700C013
:102DF00000000E94FE100E94FD08823011F484E061
:102E0000DACF843011F486E0D6CF863011F488E032
:102E1000D2CF883011F489E0CECF893071F680E0CE
:102E2000CACF609314027093150280931602909398
:102E300017020C94B71510929C02ECEBF1E086E0BF
:102E4000DF011D928A95E9F70C94B7151F93CF9374
:102E5000DF93CDB7DEB7AA970FB6F894DEBF0FBEEB
:102E6000CDBF89EB92E02091F100FC012193CF01CD
:102E7000F2E0813C9F07B9F78091BA02833009F4F0
:102E800070C0B8F4813009F447C0823009F4B1C091
:102E90008091E80083FF7EC28091B9029091BA02CE
:102EA0009A3008F077C2E92FF0E0EA57F14D0C9420
:102EB000E22D8A3009F48CC08B3009F46FC0893060
:102EC00039F78091B902813219F78091BD02909152
:102ED000BE020297E8F68091E800877F8093E800C1
:102EE0008091E80082FF38C09091F3008091F20059
:102EF000029731F48091F100813011F0863021F495
:102F00008091F1008093AC028091E8008B778093F0
:102F1000E8000E94E907BCCF8091B902813A09F02C
:102F2000B7CF8091E800877F8093E8008091BD0251
:102F30009091BE02892B61F468E08DEA92E070E026
:102F40000E949B088091E8008B778093E800A0CFD7
:102F500060E090E080E0F3CF8091B7028111C0CFB4
:102F600097CF8091B902813A09F092CF8091BD024A
:102F70009091BE02892B09F08BCF8091E800877F6A
:102F80008093E8008091E80080FFFCCF80913F01B2
:102F90008093F1008091E8008E77B9CF8091B902DB
:102FA000813209F075CF8091BD029091BE02892BCC
:102FB00009F06ECF8091E800877F8093E8000E943F
:102FC000E9078091BB0280933F010E941B1760CFED
:102FD0008091B902813209F05BCF8091E800877F50
:102FE0008093E8000E94E9078091BC028093AB02C5
:102FF0004FCF8091B902813A09F04ACF8091E80021
:10300000877F8093E8008091E80080FFFCCF80916B
:10301000AB02BECF803899F0823809F0BBC18091F5
:10302000BD028F70873008F0B5C18093E9008091B0
:10303000EB0085FB882780F91092E90006C080919B
:10304000B5029091B602911182609091E800977F4D
:103050009093E8008093F1001092F1008091E800D5
:103060008E7794C1882309F482C1823009F092C11D
:103070008091BB02811185C18091BD028F702FEFBD
:10308000280F263008F086C18093E9002091EB00DC
:1030900020FF77C1933031F48091EB008062809300
:1030A000EB006FC19091EB0090619093EB0021E0F9
:1030B00030E001C0220F8A95EAF72093EA001092CF
:1030C000EA008091EB008860EACF811163C1109122
:1030D000BB021F778091E3008078812B8093E3000F
:1030E0008091E800877F8093E8000E94E907809143
:1030F000E80080FFFCCF8091E30080688093E300CC
:1031000082E0111183E08093B70244C1805882307D
:1031100008F040C18091BB029091BC028C3D23E03D
:103120009207A1F583E08A838AE289834FB7F894F6
:10313000DE01139620E03EE051E2E32FF0E05093F1
:103140005700E49120FF03C0E295EF703F5FEF70FE
:103150008E2F90E0EA30C0F0C7968D939D932F5F3D
:10316000243159F74FBF8091E800877F8093E800B2
:103170006AE270E0CE0101960E949B088091E8000F
:103180008B778093E80006C1C096E7CF4091BD02DF
:103190005091BE02292F33272330310509F444C052
:1031A00078F52130310509F46FC08BE390E0ECED48
:1031B000F6E02230310509F0EDC02091E800277FCC
:1031C0002093E8002091BF023091C002821793073C
:1031D00008F49C0140E02115310509F064C041115B
:1031E00062C08091E80082FDC9CF8091B702882338
:1031F00029F2853019F28091E80083FFF2CFBECF2B
:1032000021323105A9F12232310509F0C3C041153F
:10321000510509F443C04130510509F0BBC08BE7AB
:1032200090E0E1E2F6E0C9CF992781309105C1F045
:10323000009759F0029709F0ADC0E9E2F7E0E49198
:103240008E2F90E0E9E2F7E007C0EDE4F7E0E491CB
:103250008E2F90E0EDE4F7E0009709F49BC0ADCF2E
:10326000E9E3F7E0E4918E2F90E0E9E3F7E0F4CFB3
:103270004115510571F04130510509F08BC089E0CD
:1032800090E0E7E0F7E099CF82E190E0E7E1F7E056
:1032900094CF89E090E0EEEEF6E08FCF80E490E00E
:1032A000ECE9F6E08ACF8091B702882309F466CF73
:1032B000853009F463CF8091E80083FD5FCF809172
:1032C000E80082FD8ECF8091E80080FF84CF90914E
:1032D000F3008091F2002115310519F08830910535
:1032E00050F041E0089709F040E08091E8008E77C7
:1032F0008093E80070CF44914093F10031962150C3
:1033000031090196E8CF803809F044C08091E80087
:10331000877F8093E8008091B8028093F1009ECE71
:10332000811138C01091BB021230A0F58091E800E5
:10333000877F8093E8001093B8020E94E907112369
:1033400011F084E005C08091E30087FDFACF81E0B1
:103350008093B70242E061EC81E00E94080842E2FB
:1033600061EC82E00E9408088091B70213C080914E
:10337000BB02813079F481E0933009F080E08093E2
:10338000B6021092E9008091E800877F8093E80000
:103390000E94E9078091E80083FF0AC08091E8005D
:1033A000877F8093E8008091EB0080628093EB0040
:1033B000AA960FB6F894DEBF0FBECDBFDF91CF91B6
:1033C0001F9108951F920F920FB60F9211242F9301
:1033D0003F934F935F936F937F938F939F93AF939D
:1033E000BF93CF93DF93EF93FF93D091E900DF700A
:1033F0008091EC00C82FC17080FDC0E81092E900F8
:103400008091F000877F8093F00078940E942617C7
:103410001092E9008091F00088608093F000CD2B3D
:10342000CF70C093E900FF91EF91DF91CF91BF91F1
:10343000AF919F918F917F916F915F914F913F914C
:103440002F910F900FBE0F901F9018951F920F9203
:103450000FB60F9211242F933F934F935F936F9367
:103460007F938F939F93AF93BF93EF93FF9380913D
:10347000E10082FF09C08091E20082FF05C08091D7
:10348000E1008B7F8093E1008091DA0080FF24C00F
:103490008091D80080FF20C08091DA008E7F8093D9
:1034A000DA008091D90080FFA3C080E189BD82E16C
:1034B00089BD09B400FEFDCF81E08093B702809101
:1034C000AA02811109C00E946F070E943A088091E8
:1034D000E20084608093E2008091E10080FF17C0E9
:1034E0008091E20080FF13C08091E2008E7F809384
:1034F000E2008091E20080618093E2008091D80038
:1035000080628093D80019BC85E08093B7028091D7
:10351000E10084FF31C08091E20084FF2DC080E192
:1035200089BD82E189BD89B5982F917080FFFBCF5D
:103530008091D8008F7D8093D8008091E1008F7EAC
:103540008093E1008091E2008F7E8093E200809181
:10355000E20081608093E2008091B802882309F440
:103560004DC084E08093B7020E941B170E9460093F
:103570000E941A0E8091B7028091E10083FF27C05C
:103580008091E20083FF23C08091E100877F8093D8
:10359000E10082E08093B7021092B8028091E100CE
:1035A0008E7F8093E1008091E2008E7F8093E20025
:1035B0008091E20080618093E20042E060E080E080
:1035C0000E9408088091F00088608093F000FF91CD
:1035D000EF91BF91AF919F918F917F916F915F918B
:1035E0004F913F912F910F900FBE0F901F90189504
:1035F00019BC1092B7021092AA026ECF8091E3001C
:1036000087FD93E09093B702AFCF8823B1F19CEF91
:10361000980F913A70F4ECEBF1E09191891303C0AB
:10362000DF0111971C9291E0E23CF907B1F70C948D
:10363000600F90E2980F983050F4877091E001C0CD
:10364000990F8A95EAF7892F0E941D0DF0CF9BE50F
:10365000980F933020F490E080E00C944A0998E5AC
:10366000980F973120F490E080E00C9434098D3E5F
:1036700020F00E94170A0C9490150895CF93DF93C1
:10368000FC0180818130D9F4FB01C081D1818C2F74
:103690000E94051BCE01805E9109089710F02097CB
:1036A00039F4CE010E946E0EDF91CF910C9414106C
:1036B000CE010E946E0EDF91CF910C940310DF912A
:1036C000CF910895CF93C82F882309F456C08CEF6B
:1036D0008C0F813AF8F4ECEBF1E082EC91E0DF0141
:1036E0002D91C21759F08A179B07D1F76C2F8AEBDF
:1036F00091E00E941A09CF910C94600F2191C2139E
:1037000003C0DF0111971C928E179F07B9F70E9423
:10371000600FECCF80E28C0F883068F4C77021E036
:1037200030E001C0220FCA95EAF780919C02822BFB
:1037300080939C02E0CFEBE5EC0FE33040F4F0E047
:10374000E05CFE4F808190E0CF910C944A09E8E55F
:10375000EC0FE73150F4F0E0EE0FFF1FED5BFE4F92
:1037600080819181CF910C943409CD3E30F08C2F23
:103770000E94D20ACF910C949015CF910895CF93C7
:10378000DF93DB01FC0180818130B9F4CD91DC91C4
:10379000CE010E946E0E9E01205E31092830310557
:1037A00010F0209739F40E941B108C2FDF91CF91DD
:1037B0000C94621B0E940A10F8CF823049F41396D1
:1037C000ED91FC91149712968C91DF91CF91099411
:1037D000DF91CF9108951F93CF93DF93182FD0E0FF
:1037E000C0E0893311F4C0E5D0E0812F0E94621B54
:1037F000209731F4812FDF91CF911F910C94051BFD
:103800008FE99FE00197F1F700C000002197F0CF0A
:103810000F931F93CF93DF93C62FD42F022FFC015A
:1038200082818823A1F06093C3020E9421159093A6
:10383000C2028093C102C77081E001C0880FCA959F
:10384000EAF7DF91CF911F910F910C941B1080919B
:10385000C302681335C08091C1029091C2020E94D8
:103860001215883C910560F510E21D0FCD17B9F0D7
:1038700080E28C0F883040F4C77081E001C0880F6F
:10388000CA95EAF70E941410183048F481E09D2F81
:10389000977001C0880F9A95EAF70E941B10802F3D
:1038A0000E94EB1B183098F4D77081E001C0880F9C
:1038B000DA95EAF7DF91CF911F910F910C941410D4
:1038C000C77081E001C0880FCA95EAF7F3CFDF9196
:1038D000CF911F910F9108954F925F926F927F92B7
:1038E0008F929F92AF92BF92CF92DF92EF92FF9210
:1038F0000F931F93CF93DF9300D000D00F92CDB7DB
:10390000DEB77C01DC0113968D919C911497892B75
:1039100041F01C9111960C91812F80238F3F09F06B
:1039200075C50F900F900F900F900F90DF91CF9172
:103930001F910F91FF90EF90DF90CF90BF90AF90CD
:103940009F908F907F906F905F904F9008950E940E
:103950002E0DD82E682F89819A810E94CE0DE02FDE
:10396000F0E0B5E0DB9EE00DF11D1124EE0FFF1F2E
:10397000EE0FFF1FE10FF11DEE0FFF1FE455FF4F8C
:1039800005911491F70182818111A6C0B701C80188
:103990000E948F16882309F417C1C80197558F3FDD
:1039A000910511F008F0E6C0209112013091130149
:1039B0002817390724F49093130180931201D7013B
:1039C00012962C91129736E1389F5001399FB00C16
:1039D0001124F501E75DFE4F6F01208B12969C913B
:1039E0008681992309F4B9C0128701878F5F868386
:1039F0000E942115D6011E969C938E931D9780914F
:103A0000130217968C93179780919B0290919C02BA
:103A1000892B18968C931897ED91FC9111973097FC
:103A200039F054966D917C91C501815D9E4F099549
:103A300010939A0200939902D70112968C918823D1
:103A400009F4F7C41092C3020430BDE51B0708F067
:103A5000F5C00B3FECE51E0730F4C80182509C45D1
:103A6000449708F0F5C00E94751490931902809352
:103A7000180201313CE5130709F4C1C108F03EC149
:103A800009309CE5190709F4ACC108F008C10530FC
:103A9000BCE51B0709F499C108F0F1C00330FCE54F
:103AA0001F0709F488C108F08CC180911802816059
:103AB00002301C4509F482C160911802109119026C
:103AC00084E090E00E94502E612F82E290E00E94FC
:103AD000502E0E941B1778C0809112019091130103
:103AE000019609F453CF89E2C82E81E0D82EB12C7B
:103AF000A12C9924939480911201909113018A151D
:103B00009B050CF443CFD60116968C91169788230B
:103B1000E9F019968D919C918017910739F4809165
:103B2000990290919A028017910781F0F601978689
:103B3000148703878189811103C0C6010E949D0FEC
:103B4000C60106960E94BE0F10929B02FFEFAF1AAD
:103B5000BF0A26E1C20ED11CCECF882309F46CCF58
:103B60008189882309F468CFC501815D9E4F0E9439
:103B7000BE0F62CF043FFCE51F0709F450C098F464
:103B8000093D3CE5130709F446C00A3D8CE51807DA
:103B900009F451C0083D9CE5190709F04DCF26E214
:103BA00041EE61EE0EC0063FACE51A0709F43FC0D6
:103BB000D0F127E245EE66EE073FECE51E0709F07F
:103BC0003BCFC7010E94081C80910A02877009F44C
:103BD000A8CED70112968C91882309F4A2CE8091A9
:103BE000190282FD9ECE82E00F900F900F900F90F1
:103BF0000F90DF91CF911F910F91FF90EF90DF9089
:103C0000CF90BF90AF909F908F907F906F905F907C
:103C10004F900C94201627E245EE65EED2CF26E2B7
:103C200041EE60EECECF27E245EE64EECACF26E24B
:103C300041EE62EEC6CF28E241E0EFCF0236FDE56D
:103C40001F0709F410CF063A2DE5120709F40BCF30
:103C500006318CE5180709F08FC480919C028A7A9E
:103C600091E009F490E09093C20169E2811165E36B
:103C70008AEB91E00E941A090E94600FA5CF0730DD
:103C80008CE5180709F4A9C08091180280610830FA
:103C90001C4508F493C08091180280648FC0809105
:103CA00018028B7F0D30ACE51A0709F487C098F431
:103CB000809118028E7F0B30ECE51E0709F47EC060
:103CC000809118028C600C301C4508F477C08091FC
:103CD00018028D7F73C0809118028F7E0F302CE503
:103CE000120709F46BC080911802877F00311C45D0
:103CF00008F464C0809118028F7D60C00E3F8CE58F
:103D0000180709F478C050F50531ACE51A0709F435
:103D100080C098F480911802837F0331ECE51E0780
:103D200009F44CC008F46FC00E941B179091180250
:103D3000892F97FB87F9805841C00C3F2CE512076B
:103D400009F447C008F053C00B3F1C4509F0B4CE3E
:103D500080911902816080931902AECE02309DE5F8
:103D6000190709F462C0B8F4809119028C7F01151B
:103D7000BDE51B0781F380911902836001301D4569
:103D800050F380911902982F909591708E7F892B16
:103D900090FB81F9E0CF0236FDE51F0709F44BC027
:103DA000063A2DE5120709F44DC003301D4509F010
:103DB00083CE60E03BC0809118028260809318023D
:103DC0007BCE809118028460F9CF809118028860C0
:103DD000F5CF809119028260BECF80911802806277
:103DE000EDCF0E941B17809118028068E7CF809169
:103DF00019028E7FB0CF809119028D7FACCF809158
:103E000018028F7BDBCF0E941B17809118028F77DF
:103E1000D5CF8091180282FB992790F921E0922753
:103E200090FB82F990FB83F9C9CF61E08EE090E0CE
:103E30000E94502E41CE90911802892F8F7E94FFC0
:103E40008061BCCF90911802892F8E7F90FF816096
:103E5000B5CF8091C20181110FC089E2ECEBF1E096
:103E600022EC31E09191891303C0DF0111971C927C
:103E70002E173F07B9F700CF85E3F0CF816080931D
:103E80008E0261E086950E942D159ECE4FE655E18B
:103E900068E775E10E946C0997CE48E755E16FE647
:103EA00075E1F8CF4BE354E162E374E1F3CF4AE10B
:103EB00054E166E274E1EECF42E054E16EE074E179
:103EC000E9CF4EE054E162E074E1E4CF45E554E12E
:103ED00064E474E1DFCF61E081E0D5CF65E082E0AA
:103EE0000E94821571CE68E086E0FACF64E18FE02F
:103EF000F7CF67E185E1F4CF62E289E1F1CF61E0DC
:103F000083E2C1CF0E941B17EFEFF4E32CE0E150F6
:103F1000F0402040E1F700C000000E94FD0881E071
:103F20004BC380E049C3812F902F0E94A70DD82E4C
:103F300056C3E12FEF70CE2E107F19F0C29450EFD0
:103F4000C522DD20B9F0CC2069F080E2800F8830F6
:103F500010F0811009C080919C02C82AC0929C0276
:103F60000E94600F802F46C080919B02C82AC09299
:103F70009B02F6CF802F0E94051BCC20E9F1005E4A
:103F80008C2D083010F0811003C00E941D0D02C05E
:103F90000E94160D0E94600F2FC0F12FFF70CF2ED0
:103FA000107F103219F0C29440EFC422882089F0AB
:103FB00021E0821609F48EC0DD2009F498C0992012
:103FC00009F48EC0F701858180FFCCCF8F70858387
:103FD00087C02091190222FF5AC0DD2009F44FC08A
:103FE000CC2039F080919C02C82AC0929C020E9489
:103FF000600F80E00E94621BAA2DA850BB0B149793
:1040000020F40E9460090E941A0EBB20A9F0809142
:104010000A0280FD11C0F70112828595859585956C
:104020000E945916C7010E946C1C80910A02859556
:10403000859585950E94FD1585E0F701DE011196B5
:1040400001900D928A95E1F789819A810E94A70DCE
:10405000EA81F0E025E0829FE00DF11D1124CF01FF
:10406000880F991F880F991FE981E80FF92FF11D1B
:10407000EE0FFF1FE455FF4F8591949152CC80E0E5
:104080000E94051BCC2009F4B7CF8C2D7ECFDD20FC
:10409000A1F0909113028C2D892B911003C00E94E6
:1040A0001B10AACF31E09312FACF22FDA5CF9817AB
:1040B00009F4A2CF809313029FCF911006C00E94F3
:1040C000100D8C2D0E94141097CF81E0981609F4E2
:1040D00093CFF5CFDD2031F095E0991508F48CCF22
:1040E0008C2DDDCFA4E0A91508F486CFEACF992066
:1040F00041F3F9E38F1209C02FEF37EE83E021502F
:1041000030408040E1F700C00000802F0E94051B76
:1041100073CF812F86958695837061F0813009F089
:104120006BCFC8019370D11002C090E080E00E9474
:10413000340962CFC8019370D11002C090E080E0D2
:104140000E944A0959CF802FDD2029F00E94D20A0F
:104150000E94901551CF0E94170AFACF812F8370C9
:1041600009F066C0D11048CF802F82958695877060
:10417000880F880F602F6F70462E512C712C612C88
:10418000082E04C0440C551C661C771C0A94D2F7F8
:1041900040E050E0BA0104FF0FC04FE050E060E0A3
:1041A00070E004C0440F551F661F771F8A95D2F731
:1041B0004095509560957095812F86958695837072
:1041C000823019F1D8F40091140210911502209157
:1041D000160230911702813069F044295529662969
:1041E0007729CB01BA0160237123822393230E9494
:1041F000111702CF402A512A622A732ACB01BA0131
:104200006429752986299729F2CF442955296629D9
:104210007729009114021091150220911602309115
:104220001702CB01BA016027712782279327DFCFBE
:104230008695DD2011F0812F8170882309F4DCCE72
:10424000802F829586958770880F880F602F6F70FA
:10425000462E512C712C612C082E04C0440C551C88
:10426000661C771C0A94D2F740E050E0BA0104FFC4
:104270000FC04FE050E060E070E004C0440F551FF5
:10428000661F771F8A95D2F7409550956095709577
:10429000812F869586958370823019F1D8F400912C
:1042A0003702109138022091390230913A02813060
:1042B00069F04429552966297729CB01BA01602381
:1042C0007123822393230E94D21596CE402A512A2D
:1042D000622A732ACB01BA01642975298629972994
:1042E000F2CF442955296629772900913702109188
:1042F00038022091390230913A02CB01BA0160278D
:10430000712782279327DFCF1F70DD2029F0812FAF
:104310000E945916802FC3CE802F0E941410812F27
:104320000E94FD1569CE802F92EF891679F19815BC
:1043300070F0A0EF8A16D1F0B1EF8B1691F0DD206E
:1043400009F454C091100ECE812F8F7123C0E3EF7A
:104350008E1619F1F4EF8F12F2CF8091190282FFBD
:1043600027C0812F8F71DD20D9F214C0DD2049F0E4
:1043700024E0291508F440CE812F8F710E94DC15AE
:104380003BCE35E0391508F437CEF6CF812F8F714B
:10439000D110C6CF0E9459162FCEDD2029F0812FD3
:1043A0008F710E947A1628CE60E070E0CB018BCF2F
:1043B000DD2089F01F71812F0E945916809119020A
:1043C00082FD07C0A8E01A9FC0011124836080937A
:1043D0000A02812FDFCF81E00E942016B1E0B915DB
:1043E00008F00ACE82E00E94201606CE992059F0ED
:1043F000893309F08ACEEFEFF7EE23E0E150F04089
:104400002040E1F780CE812F8F718ACF85E0F701C0
:10441000DE01119601900D928A95E1F7D70112966F
:104420002C9189819A81211192CA0E94A70DD82EC0
:1044300096CA0631BCE51B0709F40BCD80919C029E
:1044400082720D3CECE51E0709F440CD08F05FC018
:10445000073C2CE5120709F425CDB8F5043C9CE592
:10446000190709F413CD18F5033C1C4509F0A6C043
:1044700080918E0280FF02CD8E7F80938E026091AC
:104480008E0270918F0280919002909191020E9411
:104490005F13109272029FEFA0E7B2E09150A0402C
:1044A000B040E1F700C000000E94FE108DCB053C3B
:1044B000ECE51E0709F4F1CC42E354E16BE374E14F
:1044C000063C1C4509F4E6CC79C00A3C2CE51207F1
:1044D00009F4F2CC70F4083C9CE5190709F4E7CC28
:1044E00046E254E16AE174E1093C1C4509F4D2CC8E
:1044F00065C00B3CBCE51B0709F4E3CC44E454E184
:1045000065E574E10C3C1C4509F4C4CC57C0023D80
:10451000FCE51F0709F4EACC98F40F3C3CE51307CF
:1045200009F4DCCC08F4D7CC003D9CE5190709F46C
:10453000DACC6EE089E0013D1C4509F4D1CC3EC0E7
:10454000053DBCE51B0709F4D7CC60F4033DFCE551
:104550001F0709F4CECC61E088E1043D1C4509F455
:1045600092CC2CC0063D3CE5130709F4C8CC0E35AF
:104570001D4509F429CB22C00B359DE5190709F427
:10458000CECC58F40115BCE51B0709F4BBCC0F3D9C
:104590001C45A1F40E94831417CB0C35FDE51F07C1
:1045A00009F4BFCC0D351D4549F48091190282FBF9
:1045B000882780F991E089270E943C16F7018281C3
:1045C00010810181882309F4AECC812F902F0E94A5
:1045D0002E0DD82E682F812F902F0E94CE0DE02F08
:1045E000F0E025E0D29EE00DF11D1124EE0FFF1F3B
:1045F000EE0FFF1FE10FF11DEE0FFF1FE455FF4F00
:10460000859194910E94880B8C01882ED701129677
:10461000DC90129715969C909294BFE09B2280911B
:104620000A028770C1F0BD2CDD20B1F0812F807FA0
:10463000803421F080E2800F883068F08091190288
:1046400082FD09C082E00E94201680910A028770D4
:10465000BB24B3948111B12CA12EA2946FE0A622A9
:10466000BBE0BA1508F4C8CCEA2DF0E0E057F14DF4
:104670000C94E22D1F93CF93DF938091D701807F1D
:10468000A9F48091D401882389F080910902D09106
:10469000D8016091D2017091D301A091D501B09160
:1046A000D601C62FC72316E0D81304C0DF91CF91DF
:1046B0001F91089590E0109711F0CF3F19F40196E3
:1046C0008770F2CF189F9001199F300D1124F901C6
:1046D000E752FE4F41814713F2CF40814613EFCF9F
:1046E00042814111ECCF438154814A1B5B0B483C12
:1046F000510528F78091D7018F7080618093D70191
:10470000F901E252FE4F80818F708061808382EDDB
:1047100091E00E946C1CDF91CF911F910C94240DAD
:10472000AF92BF92CF92DF92EF92FF920F931F93BF
:10473000CF93DF93CDB7DEB761970FB6F894DEBFA6
:104740000FBECDBF8C0185E0F801DE011D96019002
:104750000D928A95E1F7F801E28082EDA82E81E0C2
:10476000B82E6091D5017091D6016115710509F4DB
:1047700032C19091D2014091D301892F84238F3F80
:1047800009F429C120813181C380D480F090D40103
:10479000F601E61BF70BFF2009F4E8C08091D70172
:1047A000582F507FE83CF10508F0ABC0511177C09D
:1047B000FE2C431321C092131FC0E1101DC08F7047
:1047C00080618093D701C5010E946C1C8091D70144
:1047D000F80185838F2D61960FB6F894DEBF0FBE6A
:1047E000CDBFDF91CF911F910F91FF90EF90DF90A0
:1047F000CF90BF90AF900895CD2829F0822F8323CA
:104800008F3F09F003C180E0F82FF170DF2E80FFA9
:104810003CC0809109024091D80156E0841315C034
:104820002D873E878D859E850E948C0D292F229590
:104830002F702230F0F0243018F59F70F1F0F8015D
:104840009581907FD1F4D12C1EC090E0589FF0014B
:10485000599FF00D1124E752FE4F6181361306C0B7
:104860006081261303C06281E6120FC00196877033
:10487000D5CF9F7011F0882331F3805E883018F314
:10488000C8010E946C1CFD2CA5CFEE2009F4A2CF1C
:104890008091D70181608093D701F12C9BCF431386
:1048A00006C0921304C0F801EE2009F479C0C801D3
:1048B0000E94FA0D882309F1EE20F9F08091D701CA
:1048C000803270F02091D2013091D30138872F834C
:1048D0001986DB86CA868C87CE0107960E946C1CDF
:1048E00086E0F801A2EDB1E001900D928A95E1F722
:1048F0000E943A23FF24F3946DCFC8010E946C1CE0
:10490000F9CF51110AC082ED91E00E946C1C86E043
:10491000F50111928A95E9F7C0CF43130FC09213A6
:104920000DC0E1100BC0F8018583C8010E946C1C0A
:1049300086E0F50111928A95E9F74CCFC8010E94F3
:10494000FA0D8823D1F2EE20C1F28091D701803296
:1049500038F22091D2013091D3013A8329831B820E
:10496000DD82CC828E83CE010196B8CFE83CF10582
:10497000F8F6FE2CEE2009F243131FC092131DC05F
:104980008091D70180FD10C0982F907F69F0F801C9
:104990008583903F31F0982F907F905F8F70892BA7
:1049A0008583C8010E946C1C86E0F801A2EDB1E08D
:1049B00001900D928A95E1F70DCFC8010E94FA0D82
:1049C00081118ECF8091D70181608093D701C8017A
:1049D0000E946C1CFFCEEE2009F48FCFC8010E940C
:1049E000FA0DF82E882309F488CF86E0F801A2EDAD
:1049F000B1E001900D928A95E1F78091D2019091FA
:104A0000D3010E948C0D0E943A23E4CE81E08E25D2
:104A1000FBCE1F93CF93DF93CDB7DEB767970FB66B
:104A2000F894DEBF0FBECDBF4B8B5C8B6D8B7E8B46
:104A30008F8B611110929B021A8A198A85E0FE0100
:104A40007396DE011D9601900D928A95E1F786E03E
:104A5000FE013D96DE01179601900D928A95E1F7D1
:104A6000CE0107960E949023882389F016E080915A
:104A700009029091D801891349C067960FB6F8943E
:104A8000DEBF0FBECDBFDF91CF911F91089586E0AD
:104A9000FE013796DE01119601900D928A95E1F79D
:104AA0008A859B85892B11F38F81988589238F3F78
:104AB000E9F22091D80130E0C90101968770992769
:104AC000409109024817190671F40E941B171092B1
:104AD000D8011092090286E0E2EDF1E0DF011D92BB
:104AE0008A95E9F7C3CF96E0929FD001939FB00DCE
:104AF0001124A752BE4FFE01319601900D929A9556
:104B0000E1F78093D8010E94240DB0CF819FC001AE
:104B1000112487529E4F0E949023882309F4ADCF21
:104B20008091090290E0019687709927809309028D
:104B30009ECF1F921FB61F9211248F939F93AF9306
:104B4000BF938091A3029091A402A091A502B0917D
:104B5000A6024196A11DB11D8093A3029093A402C9
:104B6000A093A502B093A602BF91AF919F918F91A0
:104B70001F901FBE1F901895CDB7DEB76D970FB66B
:104B8000F894DEBF0FBECDBF84B7877F84BF0FB65A
:104B9000F894A895809160008861809360001092DD
:104BA00060000FBE80E890E00FB6F894809361003B
:104BB000909361000FBE85B7806885BF85B7806818
:104BC00085BF8CE29BE09093B9018093B8010E946D
:104BD0006F070E943A088091E20084608093E200AF
:104BE00078948091B7028823A1F01091E9001F709A
:104BF0009091EC00892F817090FD80E8182B109225
:104C0000E9008091E80083FD0E9426171F70109331
:104C1000E90082E084BD93E095BD9AEF97BD809353
:104C20006E0084EF0E942E0B85EF0E942E0B86EF04
:104C30000E942E0B87EF0E942E0B05E711E0D80192
:104C40008D918D018F3F11F00E942E0BEAE7F1E06C
:104C5000E017F107A1F785E0E9E2F2E0DF01282F94
:104C60001D922A95E9F7E4E2F2E0DF011D928A95B0
:104C7000E9F760E078E582E090E00E94CA2C80913C
:104C8000D80080618093D800B5E3BA95F1F70000B1
:104C90008091D90081708093110190E080E00E94A2
:104CA0004A2E893E9E4F11F00E94831482E090E0CC
:104CB0000E943C2E80932E020E947514909319023C
:104CC0008093180283E090E00E943C2E682F70E0F1
:104CD00090E080E00E94111783E080935B0280E205
:104CE0008093C4020E9468066DE070E08FE492E059
:104CF0000E942510892BE9F580915B0263E070E04A
:104D000081FD2DC18CE492E00E942510892B89F54C
:104D10006DE070E08CE392E00E942510892B49F54C
:104D20000E940E0968577C4E8F4F9F4F60939302ED
:104D3000709394028093950290939602E7ECF2E0D0
:104D400080E092E0DF019C011D9221503040E1F7AC
:104D5000F093CE04E093CD048FEF9FEF9093C602C3
:104D60008093C50281E0809398028093970210920D
:104D70005C0280911A02811136C090E080E00E94AE
:104D80004A2E893E9E4F21F00E9483140E94661491
:104D900088E090E00E94442E60938E0270938F0210
:104DA00080939002909391026E7F71F40E9466143A
:104DB00088E090E00E94442E60938E0270938F02F0
:104DC00080939002909391020E9472091092720255
:104DD00080918E0280FF04C060E086950E942D15B0
:104DE00081E080931A0223982B9A22982A9A8FE8BE
:104DF00091E00197F1F700C0000083B183FB8827A1
:104E000080F91A99AFC090E0892B8093360285E033
:104E100091E09093A00280939F026E0147E0C40E40
:104E2000D11C22242394312C46E1E42E85E0D601C6
:104E30001D928A95E9F701E711E0FF24F394F80148
:104E400081918F018F3F09F449C0F894E82FE295D2
:104E5000EF70F0E021A18F70A10102C0440F551F37
:104E60008A95E2F7CA01922F982B91A392A180957F
:104E7000892382A3789400C0D60135E7A32E31E0C0
:104E8000B32E5F2D5095F50161915F014D919D010C
:104E9000215031096F3F09F467C0862F82958F70CA
:104EA00090E0FC0180A190E06F7002C0959587951D
:104EB0006A95E2F780FD58C04F29F90140832AE73F
:104EC00031E02A153B05F9F6F801319780818F3FD3
:104ED00011F00E942E0B30EA3A95F1F7FF0C45E7EE
:104EE00051E04017510709F0AACF45E050E0B60164
:104EF00084E292E00E942F2E5C01892BB9F185E0BB
:104F0000F601A4E2B2E001900D928A95E1F781E00A
:104F100080931D020E94211590931C0280931B0216
:104F200080911B0290911C020E941215059710F1AE
:104F300080912402809329028091250280932A0285
:104F40008091260280932B028091270280932C026D
:104F50008091280280932D0210921D020BC089E4DB
:104F600092E0D2CE92E050CF4523A7CF80911D0290
:104F70008111D6CF809111018111F7C0A114B10424
:104F800011F00E940E09A9E2B2E0EFE2F2E010E0B7
:104F900000E0302F8D919191981709F40DC1292FC0
:104FA000282790E0FF24F3944F2D422309F4FFC0FB
:104FB0009C873D878F2191E009F490E09E870E94B5
:104FC00021158160782F988B8F874C855D856E8544
:104FD00088890E940925F801E15DFD4F8081F8264E
:104FE000F0828091120190911301F12C019609F049
:104FF00030C180917202811136C1E0913602EE0F0C
:10500000EE0FE093360283B183FB882780F98E8B05
:105010001F8A1A99BDC180E02E893F89822BE82B17
:10502000E0933602EF70F0E0E658FE4F80819091F9
:105030003502890F80933502F12C8430E4F08091A1
:1050400034028F5F8093340260913702709138028E
:105050008091390290913A020E94210E843009F425
:10506000A1C108F098C1882309F49CC1823009F4D9
:105070009DC1FF24F394809135028D3FE4F480912B
:10508000340281508093340260913702709138026B
:105090008091390290913A020E94210E843009F4E5
:1050A0008EC108F085C1882309F489C1823009F4D2
:1050B0008AC1FF24F39480913502082E000C990BCD
:1050C00064E070E00E94CE2D80933502F1100E94C2
:1050D0000E0980919802882309F419C287EC92E0A6
:1050E0009093CE048093CD04609137027091380282
:1050F0008091390290913A020E94210E8A3008F084
:10510000AEC3E82FF0E0E456F14D0C94E22D84306C
:1051100009F041C030E020E08EE192E0DC014D91E9
:10512000CD01240F311DB2E082329B07B9F7809187
:105130001E028936C1F480912202821314C080912C
:105140001F0290912002209121028F3EEFEF9E07D7
:1051500030F131E0211101C030E03B83BE016F5FCF
:105160007F4F0E948F16109223020E94312D8823B8
:1051700009F404CF0091230210E00E94092DF801E8
:10518000E25EFD4F8083809123028111C0CF909118
:105190001E02993651F78F5F80932302E6CF2223B8
:1051A00019F00E94621BDFCF0E94051BDCCF9F5FBE
:1051B000FF0C943009F0F8CE0F5F1F4F053011053A
:1051C00009F0E7CE8FEF898B8A8B1B8A0E9421150D
:1051D0008160782F9D8B8C8B49895A896B898D8949
:1051E0000E940925FECEE89EF001E99EF00D1124F3
:1051F000E75DFE4F828893888114910419F428ECAE
:10520000822E912CE89E8001E99E100D1124075DED
:105210001E4FD80116968C9116978823C9F01D96BB
:105220008D919C910E9412158816990688F4FE9C17
:1052300040011124F8018189811105C0C401875DF5
:105240009E4F0E949D0FC401815D9E4F0E94BE0F24
:10525000F3948F2D90E020911201309113012817C3
:1052600039070CF6C6CE80917102E0918E02E69568
:10527000E81BE0936D02823089F5F0E0E659FD4FBE
:10528000E4910E2F10E09BE4892E93E1992E8091FA
:105290006E02882361F010926E020E942115909395
:1052A0006C0280936B021092700210926F020E9447
:1052B0002115E0916B02F0916C028E1B9F0B8F3FCA
:1052C0009F4708F09ACEE00FF11FF0936C02E09335
:1052D0006B028BE692E0F40109958FCE863059F48B
:1052E000F0E0E959FD4FE4910E2F10E08BE3882E9A
:1052F00083E1982ECCCF893061F4E695F0E0EC594B
:10530000FD4FE4910E2F10E0B7EA8B2EB2E19B2EF9
:10531000BECF8F3061F4E695F0E0EF59FD4FE49198
:105320000E2F10E0A3E48A2EA2E19A2EB0CF853191
:1053300059F4F0E0E25AFD4FE4910E2F10E0F5EF42
:105340008F2EF1E19F2EA3CF08E210E06CE6862EAF
:1053500061E1962E883109F49ACF833249F4ECE565
:10536000F2E005911491E2EE8E2EE2E19E2E8FCFB7
:1053700004EF11E073E3872E71E1972E843209F474
:1053800086CF00ED17E051E7852E59E0952E7FCFAF
:1053900082E090E041CE863049F0883009F069CE55
:1053A00089EA01C08EE20E94EB1B63CE89EFFBCF3E
:1053B000863049F0883009F07CCE8AEA01C08DE25F
:1053C0000E94EB1B76CE8AEFFBCF81E194E00E9436
:1053D000200F8AE094E00E94200F83E094E00E9476
:1053E000200F8CEF93E00E94200F85EF93E00E9446
:1053F000200F8EEE93E00E94200F80919802882368
:1054000009F460C02091C5023091C6022115310512
:1054100009F458C080915C02811154C0082F10E03B
:105420002101082E02C0440C551C0A94E2F7A90180
:1054300044215521452B09F41AC290915B0290FD3D
:1054400018C28295880F8076809316019801369550
:1054500027953695279520931901815E8093170132
:1054600010921A0124E630E047E050E064E171E078
:1054700088E70E941707892B29F5A80195E0440FBA
:10548000551F9A95E1F780915B0280FD00C2495358
:105490005D4F04E610E020E230E060E488E70E941F
:1054A0003E07892B79F40E945510C2018095909592
:1054B0004090C5025090C602482259225092C6021E
:1054C0004092C50280919702882309F10E940E093B
:1054D00000919302109194022091950230919602CE
:1054E000601B710B820B930B6F3F7F4F8F4F9F475A
:1054F00070F480919802882351F062E070E088E1B6
:1055000094E00E942510892B11F410929702AB2889
:1055100009F4F1100E94551086E0E5E6F2E0DE01A4
:10552000119601900D928A95E1F7F0906702B09084
:1055300068021091690200916A021092670210924B
:1055400068021092690210926A028F2D8B2909F469
:1055500048C080916302909164020E9412159C01E0
:1055600090915F02992309F410C225313105C8F1E9
:105570009F3F19F09F5F90935F02FF2059F00E94B8
:10558000B20A9FEF1F140CF491E0899F802D112423
:1055900080936702BB2059F00E94B20A9FEF1B1450
:1055A0000CF491E0899F802D112480936802309142
:1055B00067023323B1F020916802222391F045EB7A
:1055C0003403C0011124992309F4CAC190936702DE
:1055D00055EB250390011124332309F4C5C1309301
:1055E0006802812F802B09F448C08091610290915C
:1055F00062020E9412159C0190915E02992309F4A7
:10560000BFC121353105C8F19F3F19F09F5F9093CD
:105610005E02112359F00E94900A9FEF11160CF4BC
:1056200091E0899F802D112480936902002359F015
:105630000E94900A9FEF10160CF491E0899F802D34
:10564000112480936A02309169023323B1F02091D2
:105650006A02222391F045EB3403C00111249923FF
:1056600009F486C19093690255EB2503900111243A
:10567000332309F481C130936A02809167029091CB
:105680006802892B90916902892B90916A02892B7B
:1056900011F00E94901586E0FE013196A5E6B2E079
:1056A00001900D928A95E1F70E94600990915D0248
:1056B000891709F4BBCB80935D020E941A0EB4CB0C
:1056C00087EE93E00E94200F80EE93E00E94200F6F
:1056D00089ED93E00E94200F82ED93E00E94200F5D
:1056E0008BEC93E00E94200F84EC93E084CE8DEB52
:1056F00093E00E94200F86EB93E00E94200F8FEA38
:1057000093E00E94200F88EA93E00E94200F81EA34
:1057100093E00E94200F8AE993E06DCE83E993E045
:105720000E94200F8CE893E00E94200F85E893E010
:105730000E94200F8EE793E00E94200F87E793E0FE
:105740000E94200F80E793E056CE89E693E00E9406
:10575000200F82E693E00E94200F8BE593E00E94E9
:10576000200F84E593E00E94200F8DE493E00E94D7
:10577000200F86E493E03FCE8FE393E00E94200F5A
:1057800088E393E00E94200F81E393E00E94200FC2
:105790008AE293E00E94200F83E293E00E94200FB0
:1057A0008CE193E028CE85E193E00E94200F8EE00B
:1057B00093E00E94200F87E093E00E94200F80E09A
:1057C00093E00E94200F89EF92E00E94200F82EF69
:1057D00092E011CE8BEE92E00E94200F84EE92E0D8
:1057E0000E94200F8DED92E00E94200F86ED92E046
:1057F0000E94200F8FEC92E00E94200F88EC92E034
:10580000FACD81EC92E00E94200F8AEB92E00E9498
:10581000200F83EB92E00E94200F8CEA92E00E941E
:10582000200F85EA92E00E94200F8EE992E0E3CDFE
:1058300087E992E00E94200F80E992E00E94200F09
:1058400089E892E00E94200F82E892E00E94200FF7
:105850008BE792E00E94200F84E792E0CCCD8EE6A9
:1058600092E00E94200F81E00E942E0FC6CD8F5F34
:10587000D5CD880F880F880F8093160110921901DB
:10588000895F8093170183E080931A01EBCDEBE3EE
:10589000F2E080E2DF011D928A95E9F7EEE8F1E09F
:1058A000FD8FEC8F6AE871E087E0882EEC8DFD8D2E
:1058B000A191FD8FEC8FFB018191BF01840F952F8A
:1058C000911D9C0129533D4F3B8F2A8FEA2FF0E019
:1058D000E55CFD4F90E080E0682C681A922C082E61
:1058E00001C0990C0A94EAF7AA8DBB8DB98FA88FD5
:1058F00000E0A88DB98D1D91B98FA88F1921262D93
:10590000201B2770722E022E000C330BB12F01C00A
:10591000BB0F7A94EAF77B2E3195219531092770D8
:10592000332701C016952A95EAF7712A1081712A4A
:1059300070820F5F0830E9F6019631968830910544
:1059400059F6E2E9F1E02C8D3D8DE217F30709F0FD
:10595000ADCF04E610E020E230E04BE352E09DCD15
:1059600081E08093670234CE81E08093680239CE73
:1059700081E08093690278CE81E080936A027DCED7
:105980002B30310508F042CE78CE2B30310508F0AF
:10599000F1CD27CE9B01AC01F89460E079E08DE376
:1059A00090E00E94A02D21503109410951095695DE
:1059B0004795379527952093CC0082E08093C800C7
:1059C00088E98093C90086E08093CA00109211058F
:1059D000109212051092CF041092D004789408957A
:1059E000909112059F5F20911105291303C00FB6F6
:1059F00007FE0EC0209111052917E1F3E92FF0E011
:105A0000ED5EFA4F80839093120588EB8093C90076
:105A100008959091D0048091CF049817D1F390917C
:105A2000CF049F5F903408F090E0E92FF0E0EF5250
:105A3000FB4F80819093CF0408950F931F93CF93D2
:105A4000DF93EC018C01060F171FC017D10729F453
:105A5000DF91CF911F910F91089589910E94F02CB1
:105A6000F4CF5091D0044091CF04852F90E0242FA3
:105A700030E0541748F0AC01421B530B81E0141680
:105A800015060CF080E00895805C9F4FF4CF8F9353
:105A90008FB78F939F93EF93FF939091120580910F
:105AA000110598130AC088E98093C900FF91EF910E
:105AB0009F918F918FBF8F911895809111058F5F66
:105AC000E82FF0E0ED5EFA4F90819093CE00809346
:105AD0001105ECCF2F932FB72F938F939F93EF93B5
