:100000000C9479040C94B1040C94B1040C94B104D4
:100010000C94B1040C94B1040C94B1040C94B1048C
:100020000C94B1040C94B1040C9483260C943F26D8
:100030000C94D6270C94B1040C94B1040C94B10424
:100040000C94B1040C94B1040C94B1040C94B1045C
:100050000C94B1040C94B2270C94B1040C94B10428
:100060000C94B1040C94B1040C94B1040C94B1043C
:100070000C94B1040C94B1040C94B1040C94B1042C
:100080000C94FD270C94B1040C94B1040C94B104AD
:100090000C94B1040C94B1040C94B1040C94B1040C
:1000A0000C94B1040C94B1040C94B104076342366F
:1000B000B79BD8A71A39685618AEBAAB558C1D3CF9
:1000C000B7CC5763BD6DEDFD753EF6177231BF00BD
:1000D0000000803F08000000BE922449123EABAAF7
:1000E000AA2ABECDCCCC4C3E00000080BEABAAAA52
:1000F000AA3E00000000BF000000803F000000009A
:1001000000084178D3BB4387D1133D190E3CC3BDD2
:100110004282AD2B3E68EC8276BED98FE1A93E4C7F
:1001200080EFFFBE01C4FF7F3F00000000000631EA
:10013000FF0974A1010975150026FF0095207508B7
:1001400081020976150026FF00952075089102C0EE
:1001500005010980A101850319012AB700150126AF
:10016000B700950175108100C0050C0901A101853A
:100170000419012AA002150126A00295017510811B
:1001800000C005010906A101050719E029E71500CE
:100190002501950875018102950175088101050702
:1001A000190029FF150026FF009506750881000536
:1001B00008190129059505750191029501750391AD
:1001C00001C064796E616D6963206D6163726F3A1D
:1001D00020736C6F7420256420706C617962616398
:1001E0006B0A0064796E616D6963206D6163726F83
:1001F0003A20736C6F742025642073617665642CDB
:10020000206C656E6774683A2025640A0064796E14
:10021000616D6963206D6163726F3A207472696DFC
:100220006D696E67206120747261696C696E672008
:100230006B65792D646F776E206576656E740D0A37
:1002400000000000000000000000000000000000AE
:10025000000000000000000000000000000000009E
:1002600000000000007E0F00D4FFFFFFC700000069
:100270007800000000000000002A2B280000000089
:100280000000000000000000000000002900000045
:10029000002C1E3420212224342627252E362D37EB
:1002A00038271E1F202122232425263333362E37BC
:1002B000381F0405060708090A0B0C0D0E0F101154
:1002C00012131415161718191A1B1C1D2F31302361
:1002D0002D350405060708090A0B0C0D0E0F101129
:1002E00012131415161718191A1B1C1D2F3130352F
:1002F0004C64796E616D6963206D6163726F3A2041
:1003000069676E6F72696E67206D6163726F2070CE
:100310006C6179206B6579207768696C65207265FE
:10032000636F7264696E670D0A006272616E646F5A
:100330006E28313229466562323032320068616E91
:100340006E6168283238294D6179004C65616E67AD
:100350002E486F756E40416476616E6365644269D4
:100360006F6E6963732E636F6D006C65616E676895
:100370006F756E40676D61696C2E636F6D006261B1
:10038000636B6C696768742064656372656173652B
:100390003A2025750A006261636B6C696768742096
:1003A000696E6372656173653A2025750A00626142
:1003B000636B6C6967687420737465703A20257587
:1003C0000A0044454255473A2064697361626C658E
:1003D000642E0A0044454255473A20656E61626CBE
:1003E00065642E0A0029001E001F00200021002243
:1003F00000230024002500260027002A002B0014DB
:10040000001A00090013000A000D000F0018001C5C
:100410000033003400A95D04001500160017000722
:10042000000B00110008000C0012002800E1001D64
:10043000001B000600190005000E001000360037F2
:100440000038005200E000AC5DE200E300AA5D2C41
:10045000002C00AB5DB15D50004F00510029001E23
:10046000001F002000210022002300240025002678
:100470000027002A002B0014001A0008001500179E
:10048000001C0018000C00120013003400A95D04C9
:10049000001600070009000A000B000D000E000FF7
:1004A0000033002800E1001D001B000600190005B4
:1004B00000110010003600370038005200E000AC98
:1004C0005DE200E300AA5D2C002C00AB5DB15D5045
:1004D000004F005100010001000100010001000176
:1004E000000100010001000100B25D4C00010001AB
:1004F00000010001000100010001004A0052004D0E
:10050000004B00210AA95D3A003B003C003D003E43
:10051000003F00500051004F004E0001000100401C
:100520000041004200430044004500010001000179
:1005300000010001000100AC5D01000100AA5D01A5
:10054000000100AB5D01000100010001000100019C
:100550000001000100010001000100010001000193
:1005600000540055000100010001000100010001DC
:1005700000010001005F00600061005600A95D01FC
:10058000000100010001000100010001005C005DAC
:10059000005E0057000100010001000100010001A0
:1005A000000100010059005A005B0001000100AC8D
:1005B0005D01000100AA5D01000100AB5D62000168
:1005C000006300580001000100010001000100016A
:1005D0000001000100010001000100010001000113
:1005E0000001000100010001000100010001000103
:1005F0000001003500A95D010001000100010001BA
:100600000001002D002E0001000100010001000189
:10061000000100010001000100010001002F003075
:1006200000310001000100AC5D01000100AA5D0184
:10063000000100AB5D01000100010001000100ADFF
:100640005DAE5DAF5DB05D0100010001000100071E
:100650005D085D065D01000100010001000100016F
:1006600000010001000100045D055D0100A95D01BC
:100670000001000100010001000100010001000172
:10068000000100A8000100010001000100010001BB
:100690000001000100010001000100A9000100ACFF
:1006A0005D01000100AA5D01000100AB5DAE00BC70
:1006B00000BB00AA000100A75DA85D0100010001C8
:1006C0000001000100010001000100005C010001C7
:1006D0000001000100010001000100010001000112
:1006E0000001000100A95D010001000100010001FD
:1006F00000010001000100010001000100010001F2
:1007000000010001000100010001000100010001E1
:1007100000010001000100AC5D01000100AA5D01C3
:10072000000100AB5DB35D0100010001004F6E658B
:1007300073686F743A206163746976653A20256442
:100740000A000A002530325820006B6579626F611B
:1007500072645F7265706F72743A20005B735D0043
:100760000A002530313662003A2000253032580028
:100770000A722F63203031323334353637383941FD
:1007800042434445460A000A0025303258006C6551
:10079000645F7461736B3A20006261636B6C6967BC
:1007A00068742064697361626C650A006261636BDE
:1007B0006C6967687420656E61626C650A006261CD
:1007C000636B6C6967687420746F67676C653A2047
:1007D00025750A005B435D005B445D005B535D0073
:1007E0005B575D005B525D0009025B00030100A0E6
:1007F000FA090400000103010100092111010001AF
:1008000022400007058103080001090401000103DB
:1008100000000009211101000122320007058203B6
:100820002000010904020002030000000921110157
:1008300000012222000705830320000107050303AE
:100840002000011201000200000008A803F3670263
:10085000000102000110035000720065006F006E7D
:10086000006900630000000A034F004C004B004287
:100870000000000403090464796E616D6963206DF2
:100880006163726F3A20736C6F74202564206C650D
:100890006E6774683A2025642F25640A0064796EB7
:1008A000616D6963206D6163726F3A2069676E6F75
:1008B00072696E672061206C656164696E67206B88
:1008C00065792D7570206576656E740D0A00647902
:1008D0006E616D6963206D6163726F207265636F15
:1008E0007264696E673A20737461727465640D0A8C
:1008F000000011241FBECFEFDAE0DEBFCDBF04B68B
:1009000003FE18C08091A6099091A709A091A8099B
:10091000B091A9098730904BA740B04B59F4109281
:10092000A6091092A7091092A8091092A909E0E05F
:10093000F8E3099529E0A8E5B5E001C01D92A63AC3
:10094000B207E1F715E0A0E0B1E0EAE5F3E602C0A6
:1009500005900D92A835B107D9F70E94AC290C94E7
:100960007F310C940000FF93EF93E0915805F091D4
:100970005905309709F00995EF91FF910895FC0111
:100980008591803011F0EFDFFBCF0895FF27E0E283
:1009900030E247FF0CC0419597FF09C0EDE260953A
:1009A000709580959095611D711D811D911D27FF8A
:1009B00002C0219530E350E2AA27660F771F881FF7
:1009C000991FAA1FA41710F0A41B63955A95A9F7A5
:1009D000AA3008F0A95FA05DAF93F395611571058A
:1009E0008105910541F7ED3211F4EF93F395F2177C
:1009F00018F43F93F395FBCF8F91B5DFFA95E1F7AC
:100A00000895E991F9918591803021F0853219F0AE
:100A1000AADFF9CF089520E0E89455915532C1F34B
:100A2000503311F4689455915A3348F4505390F36D
:100A3000220F022E220F220F200D250FF4CF0EF4CD
:100A4000219589919991533619F3533729F15335EB
:100A500059F1BC0188279927E8945C3621F48991E3
:100A6000999168945591543639F446EF7EF077FFAA
:100A70000DC08FEF9FEF0AC055374AE039F0583567
:100A800040E121F0523642E009F00895FF93EF93E0
:100A90007DDFEF91FF91B7CFFF93EF93FC01819141
:100AA0008030B9F360DFFBCFFF93EF9368DFF1CFC6
:100AB000DF93CF93CDB7DEB72596A3DFCF91DF913C
:100AC0000895E8EDF0E080818E7F80831092E2004F
:100AD0001092DA001092E100A0EEB0E08C918160FB
:100AE0008C9380818F77808319BCA7EDB0E08C91C7
:100AF0008E7F8C9380818F7E808310922F09089542
:100B00002091E4003091E50095E6A9012091EC00E8
:100B1000822F817020FF06C08091E80080FF06C010
:100B200080E008952091E80022FD1AC080913C09E0
:100B3000882389F0853089F08091EB0085FD0FC016
:100B40002091E4003091E50042175307F9F29150EB
:100B5000E1F684E0089582E0089583E0089581E05D
:100B60000895EF92FF920F931F93CF937C018B0117
:100B70000E948005C82F811117C08091E80085FD73
:100B80000BC08091E8008E778093E8000E9480057A
:100B9000882399F3C82F08C0F70181917F018093C2
:100BA000F1000150110949F78C2FCF911F910F913E
:100BB000FF90EF90089580913E0987FF13C08091C8
:100BC000E80082FF06C08091E8008B778093E80000
:100BD00004C080913C098111F2CF089580913C09B5
:100BE0008823D9F38091E80080FFF8CF8091E80056
:100BF0008E77ECCF982F9093E900242F762F50E03A
:100C0000891731F07091EC002091ED005091F000C7
:100C100021FD07C09F5F973071F78093E90081E065
:100C200008953091EB003E7F3093EB003091ED0062
:100C30003D7F3093ED003091EB0031603093EB005D
:100C40007093EC002093ED005093F0002091EE00A3
:100C500027FDE0CF80E00895CF92DF92EF92FF92E0
:100C60000F931F93CF93DF93C8EDD0E088818F7EE1
:100C70008883E7EDF0E080818160808384E082BF3B
:100C800081E080932F0988818E7F888302EE10E0B7
:100C9000F80110821092DA0081EEC82ED12CF601F4
:100CA000108288818F778883888180688883888193
:100CB0008F7D888319BC10923C0910923D091092D7
:100CC0003B0910923A0990EEE92EF12CF701808150
:100CD0008B7F808388818160888342E060E080E050
:100CE0000E94FA05F60180818E7F8083F801808161
:100CF00081608083808188608083F70180818E7F1E
:100D00008083888180618883DF91CF911F910F91CB
:100D1000FF90EF90DF90CF900895FC0180914409FF
:100D20009091450986179707A0F06115710529F480
:100D30009091E8009E779093E80090E0611571052E
:100D400051F4911108C08091E80082FF34C080E026
:100D50000895BC01F2CF80913C098823C1F1853010
:100D6000C1F18091E80083FD30C08091E80082FDF0
:100D7000EACF8091E80080FFE1CF8091F3002091DD
:100D8000F200382F6115710519F02830310558F03F
:100D900091E02830310509F090E02091E8002E77AD
:100DA0002093E800CBCF81918093F10061507109CD
:100DB0002F5F3F4FE7CF80913C09882341F085307A
:100DC00041F08091E80083FFBECF81E0089582E08A
:100DD000089583E008950895089580913109089554
:100DE0009C014FB7F8948091250990912609A09114
:100DF0002709B09128094FBF821B930B08952FB785
:100E0000F8948091250990912609A0912709B09125
:100E100028092FBF0895209122093091230928170E
:100E2000390771F09093230980932209E0912009FA
:100E3000F0912109309721F00084F185E02D09948B
:100E4000089520911E0930911F092817390771F064
:100E500090931F0980931E09E0912009F0912109C8
:100E6000309721F00680F781E02D09940895E091F4
:100E70002009F0912109309721F00190F081E02DB7
:100E8000099480E008958F929F92AF92BF92EF9263
:100E9000FF920F931F93CF93DF938430B8F58111A6
:100EA00036C090918000977F909380002F98A091FA
:100EB0008600B0918700282F30E00E945E2D23E04D
:100EC00030E040E050E00E943C2D89019A01809181
:100ED0008600909187006CE070E00E94312C6017D2
:100EE0007107D8F0C80169E070E00E94312C70935E
:100EF0008D0060938C00DF91CF911F910F91FF9037
:100F0000EF90BF90AF909F908F90089583E0909165
:100F10008000986090938000CACF80918600909165
:100F20008700E0908600F0908700E0918600F091C5
:100F30008700C6E0D0E0BE010E94312C060F171FCB
:100F4000211D311D4801590185E0880C991CAA1CFE
:100F5000BB1C8A95D1F7C701BE010E94312C9F01AD
:100F600050E040E0260F371F411D511DC501B4015F
:100F70000E943C2D49015A01E0918600F0918700C2
:100F8000CA01B9010E94152C9B01AC01DF010E942E
:100F9000292D9B01AC01C501B4010E94152C2FE045
:100FA00096958795779567952A95D1F70091860054
:100FB0001091870030E020E006171707280739074F
:100FC00008F095CF609186007091870090CFE1E79F
:100FD000F0E080818D7F8083E0E9F0E080818F7395
:100FE00080830895CF92DF92EF92FF926B017C0194
:100FF00020E030E0A9010E94DA2D81110AC0809121
:1010000090008F7380939000FF90EF90DF90CF90CF
:10101000089580919000806880939000C092130999
:10102000D0921409E0921509F092160920E030E000
:1010300040E051E4C701B6010E949B2F9B01AC0127
:1010400060E074E284E79BE40E94DF2D6B017C0189
:101050000E94582E709397006093960060919204BE
:1010600070E090E080E00E94892EA70196010E9426
:101070009B2F20E030E048EC52E40E94DF2D0E94DC
:10108000582E7093990060939800BECF8091D00342
:10109000811122C01092A2090E94E70710925909FB
:1010A00010925A0910924E0910924D09E2E6F9E0A9
:1010B00080E090E0A0E8BFEB1182108282839383EE
:1010C000A483B58317821682389629E0E23AF207A4
:1010D00099F781E08093D003089580911B098111D5
:1010E0000C9446080895F894E82FE295EF70F0E02C
:1010F00031A1282F2F7081E090E001C0880F2A9540
:10110000EAF7982F9095932391A392A1892B82A31C
:10111000789408959091E60892FF06C0282F2871D0
:101120002830F9F4877F846093FF06C0282F287148
:101130002831F1F4877E84612091E70820FF06C002
:10114000382F38713830D9F4877F816021FF06C08D
:10115000282F28712831D1F4877E816194FD877E04
:101160000895282F24712430F9F68B7F8860DCCF16
:10117000282F2471243101F78B7E8861DDCF382F31
:101180003171313019F78E7F8860E0CF282F2171BF
:10119000213121F78E7E8861E1CFCF93DF93EC017F
:1011A00082389105A9F1D8F58133910509F496C0EB
:1011B00048F58932910509F48AC08A9709F495C0E7
:1011C000C11522E5D20708F0B6C0C11531E5D30735
:1011D00008F026C1C83ED10508F09CC0C03ED1052C
:1011E00060F5C83AD10508F087C0C53AD10508F0C6
:1011F000EFC0C130D10509F12097F9F0C430D10515
:10120000E0F440C08533910509F45AC0C997C1F68E
:101210008091E608837089F0C0EED0E00EC0833E76
:10122000910599F170F4803E910501F1823E91059E
:1012300039F68091E60882FD21C0CE01DF91CF9181
:101240000895863E910561F1873E910571F1843ED6
:10125000910509F0B5CF8091E70881FFEECF80912D
:10126000E608C7EED0E084FD0DC0E7CF8091E60828
:1012700080FD07C19091E70890FFDFCFC3EED0E07B
:1012800084FFDBCFD0E0C0E0D8CF8091E60882FDBC
:10129000FBC09091E70890FDBFCF84FFCECFF2CF87
:1012A0008091E60883FDDDCFC8CF8091E60883FDFD
:1012B000EEC09091E70891FFF0CFC4EED0E0BDCF33
:1012C0008091E60885FFB9CFC9E2D0E0B6CF809122
:1012D000E60885FFB2CFC5E3D0E0AFCF8091E60846
:1012E00086FFABCFCAE2D0E0A8CF8091E60886FFA8
:1012F000A4CFC1E3D0E0A1CFCF3BD10518F6C85AA7
:10130000D0E0CC0FDD1FC754DB4F0990D881C02D32
:10131000D46493CFC11540E5D40708F064C0C1156B
:1013200080E4D80708F05CC0CE019A9581159F41F2
:1013300008F483CFA7CFC11536E5D30718F5C1153B
:1013400045E5D40708F084C0C11584E5D80708F046
:101350007AC09C2F969596959E0123703327C115D0
:10136000D34508F462C0C1E0D0E002C0CC0FDD1F5D
:101370002A95E2F730E2939FC0011124C82BD92BA4
:10138000DA685BCFC1158AE5D80778F4C11599E50D
:10139000D90708F068C0C11528E5D20708F472CF54
:1013A000DC2FCC27C06FD06A48CFCE019056811574
:1013B000904208F067CF8D2F8F710E948A0890E0CD
:1013C000982F882788279F719C012C2BE90149C001
:1013D000C55AD0E0CA54DB4FC881D0E0D0642DCFCD
:1013E000DF70D06A2ACFCE01E4E096958795EA9522
:1013F000E1F783702C2F26952695237040E2249FD9
:1014000090011124382B8C2F8370C1E0D0E002C0F2
:10141000CC0FDD1F8A95E2F7C22BD32BDC680DCFF2
:10142000DC2FCC27C16FD06A08CFC1E0D0E002C06A
:10143000CC0FDD1F2A95E2F720E2929FC001112414
:10144000C82BD92BEBCFDC2FCC27C46FD06AF5CEBD
:101450008C2F0E948A08C82FD0E0DC2FCC27CC2705
:10146000DF71D062EACE8C2F8F700E948A0834E040
:10147000D695C7953A95E1F7CF709C2FEC01D069CE
:10148000DCCEC9E3D0E0D9CEC2EED0E0D6CEC6EEF7
:10149000D0E0D3CE8091D10881111092D108089567
:1014A00080959091D00898239093D0080895ECE50A
:1014B000F5E09191891303C0DF0111971C9295E02B
:1014C000E236F907B1F70895ACE5B5E0EFEF90E04B
:1014D0002D91821751F0EF3F19F4211101C0E92F2E
:1014E0009F5F9630A9F7EF3F09F408950E2E000C88
:1014F000FF0BE65AFA4F828308958091C5089091B8
:101500009408981301C008958F5F8770FACFAF9247
:10151000BF92CF92DF92EF92FF920F931F93CF93E0
:10152000DF93C0904609D0904709E0904809F090B9
:1015300049094091D2085091D3086091D408709124
:10154000D508C42AD52AE62AF72ACFE1D0E0082F09
:1015500010E02CE0929F000D111D11249CE3A92E98
:10156000BC2ED701C6010C2E04C0B695A795979541
:1015700087950A94D2F780FD0FC0219788F7B12C88
:101580008B2DDF91CF911F910F91FF90EF90DF9006
:10159000CF90BF90AF900895AC9EF001AD9EF00D3E
:1015A0001124E00FF11FEE0FFF1FEB51FC4F85914F
:1015B00094910E94CD08019701F3E2CFCF93DF937E
:1015C000EC010E94870AEC2FF0E09CE0D99FE00D2F
:1015D000F11D11249CE3899FE00DF11D1124EE0FF4
:1015E000FF1FEB51FC4F85919491DF91CF910C94AB
:1015F000CD082CE0929F800D1124982F977086952E
:101600008695869525E0829FF0011124EA59F74FCF
:1016100050E040E080E0219130E0092E02C0369594
:1016200027950A94E2F721703327042E01C0220F78
:101630000A94EAF7822B4F5F5F4F4530510559F707
:1016400008952CE0929F800D1124982F977041E00F
:1016500001C0440F9A95EAF786958695869595E0A0
:10166000899FF0011124EA59F74F90E080E070E083
:101670005191DF0111979B01082E02C036952795E5
:101680000A94E2F7217021952527242325272C93FE
:1016900001968530910561F70895FC018081918163
:1016A0000E94DE0A92959F70963091F058F4925FF6
:1016B0009F70923058F4803F19F030F4883E30F437
:1016C00081E008959A5FF4CF843FD1F380E00895DC
:1016D000883EB0F3813FD1F7F3CF829590E09C0133
:1016E000220F331F220F331F2C7C959587959595DC
:1016F00087958373282B30E0C901880F991F8A7A58
:10170000359527952575822B08959FB7F8941092EB
:101710002D099FBF90913C09943009F048C0209159
:10172000E9002F703091EC00932F917030FD90E81C
:10173000922B23E02093E9002091EB0020FF34C09E
:101740002091EE0027FF30C020912C09222321F0A8
:101750002091E80025FF28C010922C0926E0309146
:10176000E80035FF14C08093F1008091E80085FD0A
:1017700027C08091E80080FFFCCF8091E8008E7741
:101780008093E8009F709093E90080E00895309185
:101790003C09343049F43091EB0035FD05C021504F
:1017A00041F481E080932C099F709093E9008FEFC2
:1017B0000895EFE9FFE03197F1F700C00000CFCFC7
:1017C0008FB7F89421E020932D098FBFDBCF809352
:1017D000290970932B0960932A0980913C09843070
:1017E00001F582E08093E9008FEF9091E80081504D
:1017F00095FD06C095ED9A95F1F700008111F5CFA2
:101800008091E80085FF0DC050E040E063E070E0AB
:1018100089E299E00E94B1058091E8008E7780937B
:10182000E8000895BC0184E00C94E70BBC0183E060
:101830000C94E70BCF93DF93EC0181E08093E900F8
:101840008FEF9091E800815095FD06C095ED9A9537
:10185000F1F700008111F5CF8091E80085FF14C0F9
:1018600050E040E068E070E0CE010E94B105809158
:10187000E8008E778093E80088E0FE01A2E3B9E0FB
:1018800001900D928A95E1F7DF91CF91089581E063
:101890008093E00080E28093D8001092C9008FE12D
:1018A0009EE40197F1F700C0000087E090EBDC01B7
:1018B0008093A6099093A709A093A809B093A909BA
:1018C00088E19CE00FB6F894A895809360000FBE65
:1018D00090936000FFCF8554990BBC01990F880B42
:1018E000990B0E94892E20E030E040E451E40E94F0
:1018F000DF2D9B01AC0160E070E080E090E40E948D
:10190000083020E030E04CED53E40E949B2F089516
:10191000CF92DF92EF92FF920F931F93E091A20973
:10192000EE2309F414C2E15088E0E802F00111242A
:10193000EE59F64FC280D380E480F58020E030E09D
:10194000A901C701B6010E94DA2D18160CF0FFC1DB
:1019500080916009909161090E94F0068C0164E613
:1019600070E00E94312CE0915F09E93038F4F0E03A
:10197000EF57FE4C0C94592C10925E0980915D0932
:10198000882371F10E94FF06BC0190E080E00E9474
:10199000872E20E030E048E451E40E94DF2D20E073
:1019A00030E040EA51E40E94CF2E0E94512E660F93
:1019B000771F660F771F695F7A4FFB016081718126
:1019C0008281938120E030E040E05FE30E940830B4
:1019D0009B01AC01C701B6010E949B2F6B017C01EA
:1019E000C701B6011F910F91FF90EF90DF90CF904C
:1019F000089510925E0981E080935D09BFCF109237
:101A00005E096431710538F46A30710540F089E18E
:101A100080939204B3CF88E1693C7105C8F38CE0F0
:101A2000F7CF10925E0920E030E040EA52E4C701AF
:101A3000B6010E94DA2D87FDA1CF20E030E040E220
:101A400053E4C701B6010E94DA2D87FF28C00E9427
:101A5000AB2C68E270E00E94452CBC01645C7F4FB7
:101A6000072E000C880B990B0E94892E6B017C01BC
:101A70000B30110508F498C00531110508F0B1C00C
:101A80002EEC2003C001219F900D1124865E9B4FF8
:101A90006AE070E00E94312C609392046FCF20E0E6
:101AA00030E040EA53E4C701B6010E94DA2D87FF17
:101AB00024C00E94AB2C68EE73E00E94452CBC0150
:101AC00068517C4F072E000C880B990B0E94892EC1
:101AD0006B017C010630110508F466C00531110563
:101AE00008F07FC02EEC2003C001219F900D11242F
:101AF000865E9B4F6FE070E0CDCF20E030E040E2AB
:101B000054E4C701B6010E94DA2D87FF23C00E946A
:101B1000AB2C60ED77E00E94452CBC016854744FFB
:101B2000072E000C880B990B0E94892E6B017C01FB
:101B300000311105C8F10531110508F052C02EEC35
:101B40002003C001219F900D1124865E9B4F65E00C
:101B500070E0A0CF20E030E040EA54E4C701B601D5
:101B60000E94DA2D87FF0ACF0E94AB2C60ED77E050
:101B70000E94452CBC016854744F072E000C880B42
:101B8000990B0E94892E6B017C010432110560F0D3
:101B90000333110530F52EEC2003C001219F900D79
:101BA00011248A50964FA6CF82E332CF81E08093F2
:101BB0005E096431710590F420E030E040E85EE3B6
:101BC0006A30710520F020E030E040E05FE3C701BB
:101BD000B6010E949B2F6B017C0121CF693C7105EE
:101BE00018F010929204CACE90E080E00E94872EF6
:101BF00020E030E040EA51E40E946D2D20E030E02A
:101C000044E353E40E94DF2D9B01AC010E949B2F13
:101C100020E030E048E451E40E949B2F0E94582EBF
:101C20008CE0861BF5CE81E080935E092AE0269F3A
:101C3000C001279F900D112468EB7BE00E94312C9E
:101C40008C5D954097FF03C0919581959109BC01EA
:101C50007727072E000C880B990B0E94892E2EE304
:101C600033EC4EE259E30E949B2F20E030E040EC41
:101C70005EE30E946E2D0E94582E0ECF81E080936D
:101C80005E09C80183709927892B19F1C8018170F9
:101C9000992724E6289FB001299F700D112490E018
:101CA00080E00E94872E20E030E040E05EE30E946A
:101CB0009B2F20E030E040E45FE30E946E2D0E9405
:101CC000582E6093920407701127012B09F056CE0D
:101CD00088CF82E380939204F6CF81E080935E09FF
:101CE00082E3809392040C3F1A4308F447CE90E0BD
:101CF00080E00E94872E20E030E047E153E40E941C
:101D00006D2D20E030E04AE754E40E94DF2D20E012
:101D100030E048E452E40E949B2F20E030E040EAAB
:101D200051E40E94CF2E0E94512E660F771F660F3E
:101D3000771F695F7A4FFB01208131814281538196
:101D4000C701B6010E949B2F6B017C0117CEC12CED
:101D5000D12C760145CE682F86E090E00C94D62CED
:101D6000CF93C0911D09C1708091A50980FF29C042
:101D70001F92CF938EEB97E09F938F930E9458050D
:101D80000F900F900F900F90CC23E9F080911D09D8
:101D900080FF3BC080911D098E7F80931D090E94AA
:101DA000AB0E8091A50980FF08C089E997E09F9359
:101DB0008F930E9458050F900F9080E0CF910C9464
:101DC0004307C111E7CF80911D0980FD1EC08160CE
:101DD00080931D09813019F489E080931D09809159
:101DE0001D090E94AB0E8091A50980FF08C08CEAF6
:101DF00097E09F938F930E9458050F900F908091CA
:101E00001D09869586958695D9CFCF9108959F9285
:101E1000AF92BF92CF92DF92EF92FF920F931F93F8
:101E2000CF93DF938C01EB01942E79010E94B00EC9
:101E30002FEF61EE84E0215060408040E1F700C068
:101E400000000E94B00E992DEAEF9E02600111245D
:101E50008091A5098170C017D10739F05E01AC0CE3
:101E6000BD1CF5019281911139C0882341F1CE0149
:101E7000801B910B959587952BEA3AEA829FA001EA
:101E8000839F500D929F500D1124692D6403900182
:101E9000659F300D112481E0981641F182E03F9357
:101EA0002F931F928F9383EE91E09F938F930E94C5
:101EB00058050F900F900F900F900F900F90F70113
:101EC000D183C083DF91CF911F910F91FF90EF904D
:101ED000DF90CF90BF90AF909F900895882321F01E
:101EE0008DE092E00E94BF04E501B2CF81E0D7CF40
:101EF000FF920F931F93CF93DF938C01EB01F42E8E
:101F0000F901A091A309B091A4098281811110C0A7
:101F10000A171B0769F48091A50980FF71C08DE93C
:101F200098E0DF91CF911F910F91FF900C94BF0427
:101F30002F2D86E02802A0011124CD01841B950BD2
:101F4000C817D90709F462C086E001900D928A95FE
:101F5000E1F78091A3099091A409840F951F9093B4
:101F6000A4098093A3098091A50980FF49C04F2D42
:101F70000F2C000C550BC01BD10BD595C7956BEAE8
:101F80007AEAC69FC001C79F900DD69F900D11247D
:101F9000849F9001859F300D949F300D11242F5FF9
:101FA0003F4F8091A3099091A409801B910B9595B7
:101FB0008795869FF001879FF00D969FF00D112465
:101FC000E49FB001E59F700DF49F700D112491E026
:101FD00082E0F91201C081E03F932F937F936F93CA
:101FE0001F928F9387E798E09F938F930E945805E5
:101FF0008DB79EB708960FB6F8949EBF0FBE8DBFE3
:10200000DF91CF911F910F91FF9008950E94B00E24
:102010009FEF21EE84E0915020408040E1F700C026
:1020200000000E94B00E9FCFCF9384E090E00E940A
:10203000C82CC82F82E290E00E94C82C982F8C2FC9
:10204000CF9108950F931F93CF93DF938091D00882
:102050009091CF08892B80935A059091D1089923AC
:1020600091F0892B80935A0520E08CE595E0FC01E6
:102070003191CF0131112F5FF5E082369F07B9F71B
:1020800021110E944A0A48E050E067EC78E08AE5B6
:1020900095E00E94BB2C892B09F445C088E0EAE555
:1020A000F5E0A7ECB8E001900D928A95E1F7E09198
:1020B0002009F09121093097B1F10280F381E02DE0
:1020C0008AE595E009958091A50982FF2CC080FFE3
:1020D00004C08AE497E00E94BF04D0E0C0E004E4BA
:1020E00017E08091A50980FF0EC0FE01E65AFA4F65
:1020F00080811F928F931F930F930E9458050F901A
:102100000F900F900F902196C830D10551F7809114
:10211000A50980FF08C082E497E0DF91CF911F916D
:102120000F910C94BF04DF91CF911F910F910895EF
:1021300090E080E00E94210790E080E00E940B0781
:102140001092CF080C9422106093460970934709AF
:1021500080934809909349090C9498100F931F930A
:102160006091460970914709809148099091490909
:102170008B019C0108711127222733270831110593
:102180002105310529F460641F910F910C94A4106E
:102190006F7BFACF0F931F9341E050E060E070E057
:1021A00004C0440F551F661F771F8A95D2F7CB01D5
:1021B000BA016095709580959095009146091091AF
:1021C00047092091480930914909602371238223EE
:1021D00093231F910F910C94A4109091C6088095A1
:1021E00089238093C608282F277091F4282F082E62
:1021F000000C330B9217130659F09091E70892FDEB
:1022000007C08595859585950E94CA101092C608CD
:102210000895CF93DF93D82FC091E708C2FB88279A
:1022200080F98D1711F1D0FBC2F9C093E7086091D6
:10223000E60884E090E00E94D62C6C2F82E290E0C9
:102240000E94D62C82E00E94ED108091A50980FFAB
:102250000CC01F92DF938DE297E09F938F930E94B3
:1022600058050F900F900F900F90DF91CF91089528
:102270000F931F9341E050E060E070E004C0440F12
:10228000551F661F771F8A95D2F780914609909156
:102290004709A0914809B09149098A019B01082B7F
:1022A000192B2A2B3B2BC901B8011F910F910C94BC
:1022B000A4106093D2087093D3088093D4089093AD
:1022C000D5080C9498101092D008ECE5F5E086E063
:1022D000DF011D928A95E9F70C949810CF93DF9354
:1022E000EC018091A50980FF04C08EEC98E00E946B
:1022F000BF040E94B00E2FEF81EE94E02150804089
:102300009040E1F700C000000E94B00E0E946311EF
:1023100060E070E0CB010E94A410D093A409C093A8
:10232000A309DF91CF9108951F93CF93DF93CDB78A
:10233000DEB7AA970FB6F894DEBF0FBECDBF8EE30F
:1023400099E02091F100DC012D93CD01B9E08634B4
:102350009B07B9F780913F09833009F470C0B8F446
:10236000813009F447C0823009F4B1C08091E8009F
:1023700083FF84C280913E0990913F099A3008F012
:102380007DC2E92FF0E0E657FE4C0C94592C8A30C0
:1023900009F48CC08B3009F46FC0893039F7809113
:1023A0003E09813219F780914209909143090297C1
:1023B000E8F68091E800877F8093E8008091E8004C
:1023C00082FF38C09091F3008091F200029731F4BF
:1023D0008091F100813011F0863021F48091F1007C
:1023E000809331098091E8008B778093E8000E9408
:1023F000DB05BCCF80913E09813A09F0B7CF8091CF
:10240000E800877F8093E80080914209909143091A
:10241000892B61F468E082E399E070E00E948D0608
:102420008091E8008B778093E800A0CF60E090E097
:1024300080E0F3CF80913C098111C0CF97CF80918C
:102440003E09813A09F092CF809142099091430967
:10245000892B09F08BCF8091E800877F8093E8007B
:102460008091E80080FFFCCF809191048093F1007F
:102470008091E8008E77B9CF80913E09813209F0D2
:1024800075CF8091420990914309892B09F06ECF55
:102490008091E800877F8093E8000E94DB058091AF
:1024A0004009809391040E94631160CF80913E099E
:1024B000813209F05BCF8091E800877F8093E8004C
:1024C0000E94DB0580914109809330094FCF8091B4
:1024D0003E09813A09F04ACF8091E800877F8093D6
:1024E000E8008091E80080FFFCCF80913009BECFEA
:1024F000803899F0823809F0C1C1809142098F700B
:10250000873008F0BBC18093E9008091EB0085FB28
:10251000882780F91092E90006C080913A099091CD
:102520003B09911182609091E800977F9093E800B9
:102530008093F1001092F1008091E8008E779AC1AB
:10254000882309F488C1823009F098C1809140093C
:1025500081118BC1809142098F702FEF280F263097
:1025600008F08CC18093E9002091EB0020FF7DC131
:10257000933031F48091EB0080628093EB0075C161
:102580009091EB0090619093EB0021E030E001C06E
:10259000220F8A95EAF72093EA001092EA008091D0
:1025A000EB008860EACF811169C1109140091F7763
:1025B0008091E3008078812B8093E3008091E80094
:1025C000877F8093E8000E94DB058091E80080FF10
:1025D000FCCF8091E30080688093E30082E01111DA
:1025E00083E080933C094AC18058823008F046C19C
:1025F00020914009309141092C3DE3E03E07A1F5CF
:1026000083E08A838AE289834FB7F894DE011396C8
:1026100020E03EE051E2E32FF0E050935700E491D8
:1026200020FF03C0E295EF703F5FEF708E2F90E0C8
:10263000EA30C0F0C7968D939D932F5F243159F7F0
:102640004FBF8091E800877F8093E8006AE270E0E6
:10265000CE0101960E948D068091E8008B778093D1
:10266000E8000CC1C096E7CF8091420990914309E0
:10267000432F55274330510509F44AC078F54130BE
:10268000510509F47AC08BE590E0E8EEF7E04230BE
:10269000510509F0F3C02091E800277F2093E8005E
:1026A00020914409309145098217930708F49C0151
:1026B00040E02115310509F065C0411163C08091EA
:1026C000E80082FDC9CF80913C09882329F285303A
:1026D00019F28091E80083FFF2CFBECF413251055D
:1026E00009F43CC04232510509F0C8C0833091055D
:1026F00008F0C4C0FC01EE0FFF1FE550FB4F019036
:10270000F081E02D88509B4FDC018C9190E01AC045
:10271000332721303105D1F02115310561F0223008
:10272000310509F0ABC0E5E5F8E0E4918E2F90E0CB
:10273000E5E5F8E007C0E3E7F8E0E4918E2F90E0EC
:10274000E3E7F8E0009709F499C0A5CFE7E6F8E0E1
:10275000E4918E2F90E0E7E6F8E0F4CF8330910526
:1027600008F08CC0880F991FFC01EF5FFA4F0190B1
:10277000F081E02D89E090E08ECF82E190E0E3E40B
:10278000F8E089CF80913C09882309F465CF853032
:1027900009F462CF8091E80083FD5ECF8091E8006C
:1027A00082FD8DCF8091E80080FF83CF9091F30070
:1027B0008091F2002115310519F08830910550F013
:1027C00041E0089709F040E08091E8008E7780931F
:1027D000E8006FCF44914093F100319621503109C8
:1027E0000196E8CF803809F049C08091E800877FE2
:1027F0008093E80080913D098093F1009DCE811186
:102800003DC0109140091230C8F58091E800877FE3
:102810008093E80010933D090E94DB05112311F01D
:1028200084E005C08091E30087FDFACF81E08093CA
:102830003C0942E061EC81E00E94FA0542E261EC71
:1028400082E00E94FA0542E261EC83E00E94FA0510
:1028500080913C0913C080914009813079F481E076
:10286000933009F080E080933B091092E900809159
:10287000E800877F8093E8000E94DB058091E800F4
:1028800083FF0AC08091E800877F8093E8008091F1
:10289000EB0080628093EB00AA960FB6F894DEBF3F
:1028A0000FBECDBFDF91CF911F910895882321F0F6
:1028B0000E94500A0C9422100895882339F09091B8
:1028C000D008982B9093D0080C9422100895882358
:1028D00009F44BC0823871F40E94370781FF45C06C
:1028E00089E30E94640A0E94221089E30E94570A29
:1028F0000C942210833859F40E94370780FF35C0AA
:1029000083E50E94640A0E94221083E5EFCF843899
:1029100059F40E94370782FF28C087E40E94640AA6
:102920000E94221087E4E2CF9CEF980F913AF0F2D8
:1029300090E2980F983050F4877091E001C0990FA1
:102940008A95EAF7892F0E94500AD2CF9BE5980F0B
:10295000933020F490E080E00C942107885A87316E
:1029600020F490E080E00C940B0708956F927F9222
:102970008F929F92AF92BF92CF92DF92EF92FF928F
:102980000F931F93CF93DF93CDB7DEB72A970FB680
:10299000F894DEBF0FBECDBF8E010F5F1F4F8AE0E0
:1029A000F80111928A95E9F797EEE92E94E0F92E55
:1029B00068012CEE622E24E0722E88248394912CE0
:1029C000F70181917F018F3F09F446C0F894E82F09
:1029D000E295EF70F0E021A18F70A40102C0440FD6
:1029E000551F8A95E2F7CA01922F982B91A392A1C5
:1029F0008095892382A3789400C0ECEEF4E021E076
:102A000030E0B12CA12C41914F3F09F47FC0A42F9D
:102A1000A295AF70B0E090968C9190E04F7002C09C
:102A2000959587954A95E2F780FD70C0C901A82A5F
:102A3000B92A220F331F54E0E83FF50721F7F701C9
:102A4000319780818F3F11F00E94730880EA8A9548
:102A5000F1F7F601B182A082F2E0CF0ED11C6E1424
:102A60007F0409F0ADCF4AE050E0B8018CED98E06A
:102A70000E94BB2CFF24F394009709F4F12C892BBE
:102A800009F447C08AE0F801ACEDB8E001900D927E
:102A90008A95E1F781E08093D8080E94FF06909321
:102AA000D7088093D6088091D6089091D7080E94C5
:102AB000F006059790F18091DC089091DD089093E5
:102AC000E9088093E8088091DE089091DF089093F0
:102AD000EB088093EA088091E0089091E1089093D8
:102AE000ED088093EC088091E2089091E3089093C0
:102AF000EF088093EE088091E4089091E5089093A8
:102B0000F1088093F0081092D80807C090E080E0A8
:102B10008ECF8091D8088111C6CF8091DB088823A1
:102B200089F08091D9089091DA080E94F006893ED8
:102B3000934040F083EE0E94671482EE0E94671477
:102B40001092DB088F2D2A960FB6F894DEBF0FBEC9
:102B5000CDBFDF91CF911F910F91FF90EF90DF904C
:102B6000CF90BF90AF909F908F907F906F9008957F
:102B7000CF93C82F882309F488C08238C1F40E94FB
:102B8000370781FD82C089E30E94640A0E942210F7
:102B90002FEF81EE94E0215080409040E1F700C09B
:102BA000000089E30E94570ACF910C9422108338C9
:102BB000A1F40E94370780FD68C083E50E94640A83
:102BC0000E9422102FEF81EE94E02150804090402F
:102BD000E1F700C0000083E5E5CF8438A1F40E944E
:102BE000370782FD52C087E40E94640A0E942210C7
:102BF0002FEF81EE94E0215080409040E1F700C03B
:102C0000000087E4CFCF8CEF8C0F813A68F4ECE5BD
:102C1000F5E08191C81799F125E0E236F207C9F78E
:102C20008C2F0E94640AC0CF80E28C0F883068F439
:102C3000C77021E030E001C0220FCA95EAF7809109
:102C4000D008822B8093D008AFCFEBE5EC0FE330B8
:102C500040F4F0E0EA54FB4F808190E0CF910C9477
:102C60002107C85AC73188F4EC2FF0E0EE0FFF1FA0
:102C7000E754FB4F80819181CF910C940B078C2FEF
:102C80000E94570A0E942210CBCFCF9108951F9324
:102C9000CF93DF93182FD0E0C0E0893311F4C0E563
:102CA000D0E0812F0E94B815209731F4812FDF9159
:102CB000CF911F910C9467148FE99FE00197F1F772
:102CC00000C000002197F0CF0F931F93CF93DF93A5
:102CD000C62FD42F022FFC0182818823A1F060939C
:102CE0004C090E94FF0690934B0980934A09C770D4
:102CF00081E001C0880FCA95EAF7DF91CF911F915B
:102D00000F910C945D1480914C09681335C080912B
:102D10004A0990914B090E94F006883C910560F5A4
:102D200010E21D0FCD17B9F080E28C0F883040F40F
:102D3000C77081E001C0880FCA95EAF70E94561457
:102D4000183048F481E09D2F977001C0880F9A9544
:102D5000EAF70E945D14802F0E944716183098F4FD
:102D6000D77081E001C0880FDA95EAF7DF91CF9143
:102D70001F910F910C945614C77081E001C0880F09
:102D8000CA95EAF7F3CFDF91CF911F910F91089584
:102D9000AF92BF92CF92DF92EF92FF920F931F9369
:102DA000CF93DF93EC018AE0A82EFE012491222329
:102DB00009F494C0213009F03EC0319684918130ED
:102DC00031F42296FE0184910E94471607C082309A
:102DD00039F42296FE0184910E94B8152196E5CF20
:102DE000833031F42296FE0184910E946714F6CF5D
:102DF000843009F071C02296FE01249190E080E0B9
:102E0000FE0131962053330B2A30310548F00197EB
:102E100028F3EFE9FFE03197F1F700C00000F7CFAA
:102E2000A89EA001A99E500D1124C901840F951FD1
:102E30002491EF01E5CFE22FF0E0EF58FD4FB49081
:102E4000822F86958695869590E0FC01EF59FD4F7F
:102E5000E4902770F12C022E02C0F594E7940A94B6
:102E6000E2F731E0E322FF24FC01EF5AFD4FC4906A
:102E7000D12C022E02C0D594C7940A94E2F7E1E067
:102E8000CE22DD24FC01EF5BFD4F049110E002C077
:102E9000159507952A95E2F701701127E114F104C1
:102EA00019F081EE0E94B815C114D10419F086EE14
:102EB0000E94B8158B2D0E944716CD2819F086EE7A
:102EC0000E946714EF2819F081EE0E946714012B0D
:102ED00009F484CF8CE278CFEF0180CFDF91CF91DE
:102EE0001F910F91FF90EF90DF90CF90BF90AF9028
:102EF000089569EE7EEF90E080E00E94F42C60E09F
:102F000082E090E00E94D62C60E083E090E00E9496
:102F1000D62C1092D2081092D3081092D408109296
:102F2000D50860E084E090E00E94D62C60E082E268
:102F300090E00E94D62C60E085E090E00E94D62CC4
:102F400060E086E090E00E94D62C6FEF87E090E092
:102F50000E94D62C40E050E0BA0188E090E00E9448
:102F6000E82C60E08DE090E00E94D62C40E050E03C
:102F7000BA0188E190E00E94E82C60E087E190E0EF
:102F80000E94D62C40E050E0BA018CE190E00E9413
:102F9000E82C70E060E080E290E00E94F42C40E0D9
:102FA00050E0BA0188E190E00E94E82C40E050E057
:102FB000BA018FE090E00E94E82C40E050E0BA01B6
:102FC00083E190E00C94E82C90E080E00E94D02C0B
:102FD000893E9E4F51F00E94791780911D0984709F
:102FE000896180931D090E94AB0E86E090E00E94EB
:102FF000C82C80931D09803220F0877088618093EF
:103000001D0990911D09892F817090FF04C0892F9F
:103010008695869586950C94430780915B0981116E
:1030200044C090E080E00E94D02C893E9E4F11F079
:103030000E94791787E090E00E94C82C80935C0979
:10304000E2E6F9E080E090E0A0E8BFEB11821082B8
:1030500082839383A483B58317821682389629E0EE
:10306000E23AF20799F780915B0981110CC00E9446
:10307000E7073E9A82E0809390008AE18093910076
:1030800081E080935B090E94460880915C0980FF83
:1030900006C064E070E080E993E00E9419190E9484
:1030A000FF069093500980934F0908957F928F9265
:1030B0009F92AF92BF92CF92DF92EF92FF920F93C7
:1030C0001F93CF93DF934B015C017A0180915C09E0
:1030D00080FF85C080915B09811102C00E940D189C
:1030E00020E030E0A901C501B4010E94DA2D87FF7C
:1030F00004C0B7FAB094B7F8B0947090A209872DC5
:103100008150990B6C01EC01CF3FDC0709F051C0F5
:1031100081E0870D893008F489C088E08093A20996
:1031200082E699E028E0FC013896DC0101900D92DE
:103130002A95E1F7089629E08A39920799F781E004
:103140008093120980935A09C091A209C150DD0BE6
:103150000E94FF06FE0123E0EE0FFF1F2A95E1F714
:10316000EE59F64F9183808382829382A482B58246
:10317000F782E6820E94FF069093610980936009BE
:103180008091D003882359F18091710082608093EF
:1031900071008091900080688093900080915A091E
:1031A000882321F00E94880C0E94F2071092D0031D
:1031B00016C08E0133E0000F111F3A95E1F70E594A
:1031C000164FA5019401F801628173818481958174
:1031D0000E94DA2D811128C0CC15DD0574F0DF9135
:1031E000CF911F910F91FF90EF90DF90CF90BF9004
:1031F000AF909F908F907F900895219688E0F8017E
:103200003896D80101900D928A95E1F70E94FF0649
:10321000F8019187808782869386A486B586F78693
:10322000E686085F1F4FD8CF21976ECF8093A20903
:1032300086CFCF92DF92EF92FF92CF93DF93EC0194
:103240007B0180915C0980FD08C0DF91CF91FF90E8
:10325000EF90DF90CF900C94460880915B0981112C
:1032600002C00E940D1880915A0981110E944608DF
:1032700081E08093590910925809D0935709C0935F
:103280005609F0925509E092540910925309109290
:103290005209109251096C817D818E819F810E941B
:1032A000582E9B01A0E6BAEE0E945E2DC12C2EE1A5
:1032B000D22EE12CF12CA70196010E943C2D6881B1
:1032C00079818A819B81A9010E9456180E94FF067C
:1032D0009093500980934F09E0915609F091570956
:1032E000809151099091520933E0880F991F3A95C6
:1032F000E1F7E80FF91F64817581868197810E944B
:10330000582E9B01A0E6BAEE0E945E2DA701960101
:103310000E943C2D30934E0920934D09DF91CF91AF
:10332000FF90EF90DF90CF90089581E080931C098B
:1033300068E070E081E594E00C9419190E946D0832
:1033400010921B0968E070E081E194E00C94191977
:1033500081E080931B0968E070E081ED93E00C94BC
:10336000191962E070E080EC93E00E9419192FEFC8
:1033700081EE94E0215080409040E1F700C00000D1
:103380000E94460860915C096E7F60935C0987E04B
:1033900090E00C94D62C60915C09616060935C09AC
:1033A00087E090E00E94D62C62E070E080EB93E032
:1033B0000C941919CF92DF92EF92FF92CF93C82FFE
:1033C00020E8829FC001112460E170E08C5F9E4F75
:1033D0000E941919C12CD12C7601C39404C0CC0CC5
:1033E000DD1CEE1CFF1CCA95D2F76C2D83E090E02B
:1033F0000E94D62CC701B601CF91FF90EF90DF90CD
:10340000CF900C9459110E946B0C4FEF5FEF0C940E
:103410005618CF92DF92EF92FF920F931F93CF93A4
:10342000DF936B017C0120E030E0A9010E94DA2DDE
:1034300087FF04C0F7FAF094F7F8F09480915A09E6
:10344000882309F458C080915B09811102C00E9451
:103450000D1802E619E0C7E0D0E0A7019601F801D7
:1034600062AD73AD84AD95AD0E94DA2D81113CC083
:1034700083E0CC0FDD1F8A95E1F7CE59D64F198234
:10348000188280E090E0A0E8BFEB8A839B83AC8346
:10349000BD831F821E82AC01BD01F9E0CA39DF077E
:1034A00089F4C1E0C09312098091A20981508093F0
:1034B000A209811120C00E94E707C093D003109297
:1034C0005A0919C088E0FE013896DE0101900D927C
:1034D0008A95E1F7198618864A875B876C877D870E
:1034E0001F861E862896D9CF219708501109CF3FF5
:1034F000DC0709F0B2CFDF91CF911F910F91FF90C0
:10350000EF90DF90CF9008954F925F926F927F92ED
:103510008F929F92AF92BF92CF92DF92EF92FF92E3
:103520000F931F93CF93DF93CDB7DEB7A8970FB656
:10353000F894DEBF0FBECDBF7C01DC0113968D91E8
:103540009C911497892B49F01C911196DC90812F46
:103550008D218F3F11F00C944B23A8960FB6F89451
:10356000DEBF0FBECDBFDF91CF911F910F91FF90B6
:10357000EF90DF90CF90BF90AF909F908F907F9013
:103580006F905F904F9008950E94870A082F682FD0
:1035900089819A810E94210BE12FF0E0BCE0DB9E43
:1035A000E00DF11D11242CE3029FE00DF11D11240B
:1035B000EE0FFF1FEB51FC4F0591149180916208B3
:1035C00081116DC0D70112968C9181110AC005300E
:1035D000BDE51B0709F453C090F40430FDE51F0757
:1035E000F9F0D70112968C91F801E75AFD45ED30BC
:1035F000F10508F051C1EC56FE4C0C94592C0730E3
:103600002DE5120709F441C008303DE5130749F7DD
:1036100060910402709105024FEF8CE598E03CC088
:1036200082E695E00E946E1181E0809362088091AD
:10363000C608877009F491CFD70112968C91882320
:1036400009F48BCF8091E70882FD87CF82E0A896AE
:103650000FB6F894DEBF0FBECDBFDF91CF911F91A3
:103660000F91FF90EF90DF90CF90BF90AF909F9021
:103670008F907F906F905F904F900C94ED108CE541
:1036800098E00E946E1182E0D0CF609106027091A6
:10369000070241E082E695E00E94ED25C8CF0630A2
:1036A0009DE5190799F020F00930BDE51B0780F171
:1036B0008130B9F1823009F094CF609106027091A7
:1036C000070297014FEF8CE598E033C0F701928134
:1036D000992309F4ACCF813029F0823079F010922F
:1036E0006208A5CF6091A3097091A40926E032E099
:1036F00041E082E695E00E94070FF1CF6091A309B7
:103700007091A40924E032E04FEF8CE598E0F3CF0C
:103710008091A50980FF8BCF81EF92E00E94BF04CA
:1037200086CF6091040270910502970141E082E624
:1037300095E00E94780F55CF882309F478CF80E078
:103740000E94DA1974CF882309F471CF81E0F8CF91
:10375000882321F082E00E94381169CF82E00E9424
:10376000CA1065CF882311F085E0F5CF85E0F7CF4B
:10377000882331F083E00E9438110E94AE1057CFA9
:1037800083E00E94CA10F9CF882311F084E0F3CFC0
:1037900084E0F7CF882321F08AE693E00E94C816E0
:1037A000F70182810F31FCE51F0709F489C0D701B9
:1037B00012968C910A32BCE51B0709F088C0882359
:1037C00009F492C080915F0990E0019669E070E091
:1037D0000E94452C80935F0964E070E089E092E0EC
:1037E0000E94191924CF8823D9F28BE493E0D6CF15
:1037F0008823B1F28DE393E0D1CF882389F28AE266
:1038000093E0CCCF8823D1F08091DB0881110AC0EE
:1038100081E08093DB088091080281110DC082EE67
:103820000E94B8150E94FF069093DA088093D90889
:103830008BE20E94B815B4CF83EEF2CF8BE20E94E8
:103840006714AECF90910802882361F0911102C0F5
:1038500086E4EFCF81EE0E94B81583EE0E94B81582
:1038600081E2E7CF911102C086E4E9CF81EE0E94A8
:10387000671483EE0E94671481E2E1CF882309F484
:103880008FCF80910802811104C081E080930802EB
:1038900087CF1092080284CF0D31BCE51B0731F4AD
:1038A000882309F484CF0E94CB19C1CE0E31ECE5F8
:1038B0001E0709F075CF882351F00E94B119B7CEC9
:1038C000882391F080915C0980FDF7CFECCFF70160
:1038D00082810B32FCE51F0739F4882329F080919F
:1038E0005F0990E0089672CFD70112968C918823D9
:1038F00009F4F2C60E3BBCE51B0709F474C0D0F412
:103900000C3BFCE51F0709F44EC00D3B2CE51207EC
:1039100009F461C006329CE5190709F4CBC00732EF
:10392000BCE51B0709F0BBC0882309F4DAC60E9476
:103930009E197DCE003C3CE5130709F4AAC008F4AB
:1039400083C0013CACE51A0729F790911D09892F26
:103950008695869586958F5F8F719770843008F075
:103960009BC0880F880F880F892B80931D09809139
:103970001D09887F91E009F490E080911D0990FB7A
:1039800080F980931D090E94AB0E8091A50980FFEC
:1039900053C080911D098695869586951F928F93B9
:1039A0008EEA93E041C080911D0987708861809301
:1039B0001D09887F91E009F490E080911D0990FB3A
:1039C00080F980931D0983E00E94430780911D09BF
:1039D0000E94AB0E2CCE80911D0987708E7F809344
:1039E0001D0980E0F1CF80911D09982F987F79F013
:1039F000885080931D09887F91E009F490E08091C0
:103A00001D0990FB80F980931D090E94AB0E8091E7
:103A1000A50980FF11C080911D0986958695869520
:103A20001F928F938EE793E09F938F930E94580588
:103A30000F900F900F900F9080911D09869586959D
:103A400086950E944307F3CD80911D09982F969586
:103A500096959695933040F49F5F990F990F990F23
:103A60008770892B80931D0980911D098160809347
:103A70001D090E94AB0E8091A50980FFDDCF8091CA
:103A80001D098695869586951F928F9386E993E00A
:103A9000CBCF0E94B00ECBCD90931D0968CF0832DA
:103AA000ECE51E0751F490911B09882309F419C60F
:103AB00091113DCF0E94A819BACD0C32FCE51F0729
:103AC00031F4882309F40DC60E949519B0CD0D324A
:103AD0002CE5120751F4882309F403C610921C093F
:103AE00068E070E089E292E07BCE0E323CE513079D
:103AF00041F4882309F4F5C580911C098111EECFAA
:103B0000E3CF09329CE5190709F0EBC5882309F4D6
:103B1000E8C50E946D082091090330E02F5F3F4FF8
:103B2000237033272093090348E2429FC001439F3B
:103B3000900D112465E070E087599D4F51CE023EF3
:103B4000110571F40E946D0880916408882319F0B2
:103B500081E080936308109264081092100967CD89
:103B6000033E110591F490916308992321F10E947D
:103B70006D081092640881E08093100910920D097D
:103B800010920F0910920E0952CD0235110551F411
:103B900080918E0390918F030A9790938F03809367
:103BA0008E0345CD0135110531F480918E0390913E
:103BB0008F030A96F2CF9091090391117AC0D70131
:103BC00011969C91119725E030E0291B3109DC907A
:103BD000B0E1DB0EECE02E9FD00C1124882309F419
:103BE000ABC0442319F08D2D0E94031A8091640804
:103BF000882351F080910C09E82FF0E0E450F74F52
:103C0000D0828F5F80930C090115110509F00FCD4B
:103C1000D70112968C91882309F452C510924C0951
:103C20000430BDE51B0708F0CAC00B3FECE51E07DA
:103C300038F4980122503C452431310508F0C9C0C0
:103C40000E9414109093E7088093E60801313CE548
:103C5000130709F4A4C108F008C109309CE519074D
:103C600009F471C108F0DDC00530BCE51B0709F49B
:103C70005EC108F0C6C00330FCE51F0709F44DC162
:103C800008F051C18091E608816002301C4509F4BA
:103C900047C16091E6081091E70884E090E00E9437
:103CA000D62C612F82E290E00E94D62C0E946311F4
:103CB000BECC913081F4D70111969C91119725E0EB
:103CC00030E0291B3109D22EDD0CDD0CD20E9C9187
:103CD0009D5CD90E83CF923071F4F701918125E07C
:103CE00030E0291B3109D080F3E3DF0E97E0299FF4
:103CF000D00C112473CF6CE0D62E933009F06ECF28
:103D000093E2E3E9F4E0DE01119601900D929A95B9
:103D1000E1F7D701EC91EC0FFD2FF11D11969C916D
:103D200025E030E0291B3109D084BCE02B9FD00C6A
:103D30001124E9E0DE0E52CF442309F465CF8D2D26
:103D40000E946B0C0E94091A5FCF043FFCE51F071D
:103D500039F188F4093D3CE51307F1F00A3D8CE5A3
:103D6000180751F1083D9CE5190709F051CF26E2EB
:103D700041EE61EE0DC0063FACE51A07C9F0A0F0B8
:103D800027E245EE66EE073FECE51E0709F040CF5F
:103D9000C7010E9464164BCC27E245EE65EEF8CFD2
:103DA00026E241EE60EEF4CF27E245EE64EEF0CF7E
:103DB00026E241EE62EEECCF28E241E0EFCF0236A0
:103DC000FDE51F0709F43CCF063A2DE5120709F47B
:103DD00037CF06313CE5130709F027C1882309F4E2
:103DE00073C48091D0088A7A91E009F490E09093AE
:103DF0006508811116C189E20E94640A0E9422109E
:103E000016CC07308CE5180709F499C08091E608B4
:103E1000806108301C4508F483C08091E608806406
:103E20007FC00D30ACE51A0709F4ADC058F40B3073
:103E3000ECE51E0709F4A3C008F48BC08091E608E6
:103E40008D7F6EC08091E6088F7E0F302CE51207C3
:103E500009F466C08091E608877F00311C4508F4AC
:103E60005FC08091E6088F7D5BC00E3F8CE5180730
:103E700009F491C038F50531ACE51A0709F4ADC075
:103E800080F40331ECE51E0709F493C008F48BC0FD
:103E90000E9463119091E608892F97FB87F980585B
:103EA0003FC00C3F2CE5120709F445C008F06FC075
:103EB0000B3F1C4509F0EDCE8091E70881608093AF
:103EC000E708E7CE02309DE5190709F496C0A8F48B
:103ED0000115BDE51B0709F476C008F446C08091C2
:103EE000E708982F909591708E7F892B90FB81F930
:103EF0008093E70881FF6CC03DC00236FDE51F07D7
:103F000009F481C0063A2DE5120709F483C0033095
:103F10001D4509F0BECE60E071C08091E608826068
:103F20008093E608B6CE8091E6088460F9CF809150
:103F3000E6088860F5CF8091E7088260C0CF809165
:103F4000E6088062EDCF0E9463118091E6088068E8
:103F5000E7CF8091E6088C608093E60864E070E02B
:103F60008AE493E00E94191994CE8091E708836057
:103F70008093E70864E070E08AE293E0F3CF8091F9
:103F8000E6088E7FCDCF8091E6088B7FC9CF8091E8
:103F9000E7088E7F94CF8091E7088D7F90CF809146
:103FA000E6088F7BBDCF0E9463118091E6088F7772
:103FB000B7CF8091E608837F8093E60862E070E0E7
:103FC0008AE193E0CFCF8091E7088C7F8093E70868
:103FD00062E070E08AE093E0C5CF8091E60882FB62
:103FE000992790F921E0922790FB82F990FB83F9C1
:103FF0008093E60883FFE2CFB1CF61E08EE090E0EE
:104000000E94D62C46CE9091E608892F8F7E94FF91
:10401000806186CF9091E608892F8E7F90FF816026
:104020007FCF85E3E9CE85E354C30F3D8CE51807C8
:1040300009F4A2C008F064C00115ACE51A0709F440
:104040006DC001301C4509F487C0F70182811081E1
:104050000181882309F49FC0812F902F0E94870A35
:10406000D82E682F812F902F0E94210BE12FF0E096
:104070002CE0029FE00DF11D11243CE3D39EE00DE6
:10408000F11D1124EE0FFF1FEB51FC4F8591949110
:104090000E94CD088C01882ED7011296DC901297D1
:1040A00015969C9092945FE095228091C608877047
:1040B000C1F0BD2CDD20B1F0812F807F803421F054
:1040C00080E2800F883068F08091E70882FD09C0A7
:1040D00082E00E94ED108091C6088770BB24B394E3
:1040E0008111B12CA12EA2943FE0A322BBE0BA150E
:1040F00008F4BFC0EA2DF0E0EF55FE4C0C94592CAB
:104100000C35EDE51E0709F444C00D351007B9F173
:104110000B351D4509F099CF81E038C00E9463112D
:104120000E946D080E94FF068C0163E070E08AE641
:1041300093E00E941919C8010E94F0068A3F910578
:1041400020F00E9446080E94470C8FE99FE00197EB
:10415000F1F700C00000EFCF9091A509892F8E7F65
:1041600090FF81608093A50980FF03C084ED93E0F8
:10417000D5CA82EC93E0D2CA0E94791758CA8091BE
:10418000E70882FB882780F991E089270E940911BE
:104190005CCF80E0FBCF812F902F0E94F90AD82EB0
:1041A00065CFE12FEF70CE2E107F19F0C29420EF73
:1041B000C222DD20B9F0CC2069F080E2800F883087
:1041C00010F0811009C08091D008C82AC092D00890
:1041D0000E942210802F4BC08091CF08C82AC09225
:1041E000CF08F6CF802F0E946714CC2009F441C07D
:1041F000005E083010F0811004C08C2D0E94500A1F
:1042000006C0C0948091CF08C822C092CF080E94F7
:1042100022102FC0F12FFF70CF2E107F103219F017
:10422000C29490EFC922882089F021E0821609F417
:1042300088C0DD2009F492C0992009F488C0F701F4
:10424000858180FFC7CF8F70858381C02091E7086B
:1042500022FF54C0DD2009F44AC0CC2039F08091FF
:10426000D008C82AC092D0080E94221080E00E9484
:10427000B815AA2DA850BB0B149710F40E9437074D
:10428000BB20A9F08091C60880FD11C0F701128201
:104290008595859585950E943811C7010E94841ADD
:1042A0008091C6088595859585950E94CA1085E000
:1042B000F701DE01949601900D928A95E1F78CA1A9
:1042C0009DA10E94F90A9DA1ECA1F0E02CE0929F33
:1042D000E00DF11D11243CE3839FE00DF11D11243D
:1042E000EE0FFF1FEB51FC4F8591949136C980E092
:1042F0000E946714CC2009F4BCCF7FCFDD20A1F051
:104300009091D1088C2D892B911003C00E945D14CF
:10431000B0CF31E09312FACF22FDABCF981709F45A
:10432000A8CF8093D108A5CF911006C00E944A0A59
:104330008C2D0E9456149DCF81E0981609F499CFD8
:10434000F5CFDD2031F095E0991508F492CF8C2D52
:10435000DDCFA4E0A91508F48CCFEACF992041F372
:10436000F9E38F1209C02FEF37EE83E02150304080
:104370008040E1F700C00000802F0E94671479CFD1
:10438000812F86958695837061F0813009F071CF19
:10439000C8019370D11002C090E080E00E940B072A
:1043A00068CFC8019370D11002C090E080E00E94F5
:1043B00021075FCF812F837009F066C0D11059CFDC
:1043C000802F829586958770880F880F602F6F7079
:1043D000462E512C712C612C082E04C0440C551C07
:1043E000661C771C0A94D2F740E050E0BA0104FF43
:1043F0000FC04FE050E060E070E004C0440F551F74
:10440000661F771F8A95D2F74095509560957095F5
:10441000812F869586958370823019F1D8F40091AA
:10442000D2081091D3082091D4083091D50881305A
:1044300069F04429552966297729CB01BA016023FF
:104440007123822393230E94591113CF402A512AAA
:10445000622A732ACB01BA01642975298629972912
:10446000F2CF44295529662977290091D208109165
:10447000D3082091D4083091D508CB01BA01602728
:10448000712782279327DFCF8695DD2011F0812FBA
:104490008170882309F4EDCE802F829586958770F0
:1044A000880F880F602F6F70462E512C712C612C55
:1044B000082E04C0440C551C661C771C0A94D2F7C5
:1044C00040E050E0BA0104FF0FC04FE050E060E070
:1044D00070E004C0440F551F661F771F8A95D2F7FE
:1044E0004095509560957095812F8695869583703F
:1044F000823019F1D8F400914609109147092091B2
:10450000480930914909813069F0442955296629C3
:104510007729CB01BA0160237123822393230E9460
:10452000A410A7CE402A512A622A732ACB01BA01CD
:104530006429752986299729F2CF442955296629A6
:104540007729009146091091470920914809309137
:104550004909CB01BA016027712782279327DFCF52
:104560001F70DD2029F0812F0E943811802FCECEC0
:10457000802F0E945614812F0E94CA107ACE802F5D
:1045800092EF891609F43FC0981570F0A0EF8A16D3
:10459000D1F0B1EF8B1691F0DD2009F46CC09110D1
:1045A00019CE812F8F7133C0E3EF8E1699F1F4EF9E
:1045B0008F12F2CF8091E70882FF3FC0812F8F7169
:1045C000DD20D1F224C0DD20C9F024E0291508F453
:1045D00050CE1F7161E070E080E090E004C0660F93
:1045E000771F881F991F1A95D2F7009146091091DD
:1045F00047092091480930914909ADCF35E0391577
:1046000008F437CEE6CF812F8F71D110B5CF0E943D
:1046100038112FCE60E070E0CB01DD2009F47FCFB0
:104620001F7161E070E080E090E004C0660F771FCA
:10463000881F991F1A95D2F772CFDD2089F01F715C
:10464000812F0E9438118091E70882FD07C0A8E001
:104650001A9FC001112483608093C608812FD7CF91
:1046600081E00E94ED10B1E0B91508F002CE82E0C1
:104670000E94ED10FECD992059F0893309F07CCECF
:10468000EFEFF7EE23E0E150F0402040E1F772CE8B
:10469000812F8F7171CF85E0F701DE0111960190B6
:1046A0000D928A95E1F7D70112962C9189819A8112
:1046B00021110C94C41A0E94F90A082F0C94CC1AE8
:1046C00006311C4509F0C1CC809165088111ABCC45
:1046D00089E20E94570A92CB0632ACE51A0709F02C
:1046E0001EC940911B09411105C090911C099923D5
:1046F00009F42BCB882309F45ECA003E110509F0AA
:104700001ECA0E946D0881E08093640810926308BD
:104710001092100910920C090C94171B1F93CF9341
:10472000DF9380919308807FA9F48091900888237B
:1047300089F08091C508D091940860918E0870919D
:104740008F08A0919108B0919208C62FC72316E058
:10475000D81304C0DF91CF911F91089590E0109776
:1047600011F0CF3F19F401968770F2CF189F900196
:10477000199F300D1124F901EB56F74F4181471372
:10478000F2CF40814613EFCF42814111ECCF4381FC
:1047900054814A1B5B0B483C510528F780919308D4
:1047A0008F70806180939308F901E656F74F8081FE
:1047B0008F70806180838EE898E00E94841ADF9178
:1047C000CF911F910C947D0AAF92BF92CF92DF924E
:1047D000EF92FF920F931F93CF93DF93CDB7DEB786
:1047E00061970FB6F894DEBF0FBECDBF8C0185E098
:1047F000F801DE011D9601900D928A95E1F7F8010E
:10480000E2808EE8A82E88E0B82E60919108709121
:1048100092086115710509F432C190918E0840919A
:104820008F08892F84238F3F09F429C1208131818A
:10483000C380D480F0909008F601E61BF70BFF20B0
:1048400009F4E8C080919308582F507FE83CF105A7
:1048500008F0ABC0511177C0FE2C431321C0921356
:104860001FC0E1101DC08F70806180939308C50147
:104870000E94841A80919308F80185838F2D619698
:104880000FB6F894DEBF0FBECDBFDF91CF911F9161
:104890000F91FF90EF90DF90CF90BF90AF90089571
:1048A000CD2829F0822F83238F3F09F003C180E0B8
:1048B000F82FF170DF2E80FF3CC08091C508409139
:1048C000940856E0841315C02D873E878D859E85FC
:1048D0000E94DE0A292F22952F702230F0F024301A
:1048E00018F59F70F1F0F8019581907FD1F4D12CEB
:1048F0001EC090E0589FF001599FF00D1124EB5617
:10490000F74F6181361306C06081261303C06281B0
:10491000E6120FC001968770D5CF9F7011F08823E3
:1049200031F3805E883018F3C8010E94841AFD2C90
:10493000A5CFEE2009F4A2CF8091930881608093E7
:104940009308F12C9BCF431306C0921304C0F801C7
:10495000EE2009F479C0C8010E944D0B882309F1AB
:10496000EE20F9F080919308803270F020918E084B
:1049700030918F0838872F831986DB86CA868C870B
:10498000CE0107960E94841A86E0F801AEE8B8E0EE
:1049900001900D928A95E1F70E948E23FF24F394F3
:1049A0006DCFC8010E94841AF9CF51110AC08EE858
:1049B00098E00E94841A86E0F50111928A95E9F741
:1049C000C0CF43130FC092130DC0E1100BC0F8010C
:1049D0008583C8010E94841A86E0F50111928A95A8
:1049E000E9F74CCFC8010E944D0B8823D1F2EE208D
:1049F000C1F280919308803238F220918E08309174
:104A00008F083A8329831B82DD82CC828E83CE017C
:104A10000196B8CFE83CF105F8F6FE2CEE2009F23D
:104A200043131FC092131DC08091930880FD10C0D6
:104A3000982F907F69F0F8018583903F31F0982F8F
:104A4000907F905F8F70892B8583C8010E94841AA4
:104A500086E0F801AEE8B8E001900D928A95E1F7A2
:104A60000DCFC8010E944D0B81118ECF809193080C
:104A7000816080939308C8010E94841AFFCEEE20C3
:104A800009F48FCFC8010E944D0BF82E882309F43A
:104A900088CF86E0F801AEE8B8E001900D928A95E3
:104AA000E1F780918E0890918F080E94DE0A0E94A3
:104AB0008E23E4CE81E08E25FBCE1F93CF93DF9330
:104AC000CDB7DEB767970FB6F894DEBF0FBECDBF88
:104AD0004B8B5C8B6D8B7E8B8F8B61111092CF0813
:104AE0001A8A198A85E0FE017396DE011D960190EF
:104AF0000D928A95E1F786E0FE013D96DE0117965C
:104B000001900D928A95E1F7CE0107960E94E42369
:104B1000882389F016E08091C50890919408891344
:104B200049C067960FB6F894DEBF0FBECDBFDF91C8
:104B3000CF911F91089586E0FE013796DE01119610
:104B400001900D928A95E1F78A859B85892B11F357
:104B50008F81988589238F3FE9F22091940830E076
:104B6000C9010196877099274091C5084817190611
:104B700071F40E946311109294081092C50886E0A7
:104B8000EEE8F8E0DF011D928A95E9F7C3CF96E0E1
:104B9000929FD001939FB00D1124AB56B74FFE01E9
:104BA000319601900D929A95E1F7809394080E94B6
:104BB0007D0AB0CF819FC00111248B56974F0E9470
:104BC000E423882309F4ADCF8091C50890E00196D5
:104BD000877099278093C5089ECF8F929F92AF923E
:104BE000BF92EF92FF920F931F93CF93DF93EC014D
:104BF0007B01042F8091A50980FF10C082E0413025
:104C000009F481E01F928F9382EC91E09F938F9340
:104C10000E9458050F900F900F900F9080904609BA
:104C200090904709A0904809B09049090E946311EB
:104C300060E070E0CB010E94A41086E008028001D1
:104C40001124CE15DF05A9F40E9463118092460954
:104C500090924709A0924809B0924909DF91CF91FB
:104C60001F910F91FF90EF90BF90AF909F908F900A
:104C70000895CE010E94841AC00FD11FE2CF1F9267
:104C80000F920FB60F9211242F933F934F935F9380
:104C90006F937F938F939F93AF93BF93CF93DF9344
:104CA000EF93FF93D091E900DF708091EC00C82F63
:104CB000C17080FDC0E81092E9008091F000877F0C
:104CC0008093F00078940E9494111092E9008091F2
:104CD000F00088608093F000CD2BCF70C093E90086
:104CE000FF91EF91DF91CF91BF91AF919F918F9104
:104CF0007F916F915F914F913F912F910F900FBED8
:104D00000F901F9018951F920F920FB60F921124BB
:104D10002F933F934F935F936F937F938F939F93C3
:104D2000AF93BF93EF93FF938091E10082FF15C093
:104D30008091E20082FF11C08091E1008B7F80931F
:104D4000E10020912E092F5F822F62E30E94252C23
:104D5000992309F4C0C020932E098091DA0080FFC6
:104D600028C08091D80080FF24C08091DA008E7F17
:104D70008093DA008091D90080FFE3C080E189BD93
:104D800082E189BD09B400FEFDCF81E080933C093A
:104D900084ED97E00E94BF0480912F09811109C022
:104DA0000E9461050E942C068091E200846080933D
:104DB000E2008091E10080FF1BC08091E20080FF53
:104DC00017C08091E2008E7F8093E2008091E20024
:104DD00080618093E2008091D80080628093D80047
:104DE00019BC85E080933C098CED97E00E94BF04DC
:104DF0008091E10084FF2FC08091E20084FF2BC0EE
:104E000080E189BD82E189BD89B5982F917080FFCD
:104E1000FBCF8091D8008F7D8093D8008091E100F6
:104E20008F7E8093E1008091E2008F7E8093E2008C
:104E30008091E20081608093E20080913D098823A7
:104E400009F489C084E080933C0980EE97E00E94D9
:104E5000BF0480913C098091E10083FF2BC08091C9
:104E6000E20083FF27C08091E100877F8093E1000B
:104E700082E080933C0910923D098091E1008E7F91
:104E80008093E1008091E2008E7F8093E200809128
:104E9000E20080618093E20042E060E080E00E94F6
:104EA000FA058091F00088608093F00084EE97E02E
:104EB0000E94BF04FF91EF91BF91AF919F918F919D
:104EC0007F916F915F914F913F912F910F900FBE06
:104ED0000F901F90189510922E0980912D0988230C
:104EE00009F43BCF80913C098430C1F49091E900F2
:104EF0009F702091EC00822F817020FD80E8892B2B
:104F000093E09093E9009091EB0090FF04C09091A2
:104F1000EE0097FD08C08F708093E90010922D0974
:104F20001CCF1092F1009091E80095FDFACF90917E
:104F3000E80090FFF0CF9091E8009E779093E80012
:104F4000EACF19BC10923C0988ED97E00E94BF049B
:104F500010922F092ECF8091E30087FD93E090936C
:104F60003C0973CF78941F921FB61F9211248F9320
:104F70009F93AF93BF938091250990912609A091AB
:104F80002709B09128090196A11DB11D809325091B
:104F900090932609A0932709B0932809BF91AF9158
:104FA0009F918F911F901FBE1F9018951F921FB643
:104FB0001F9211248F939F93AF93BF9380912409E5
:104FC000811113C08091250990912609A09127098C
:104FD000B09128094196A11DB11D80932509909398
:104FE0002609A0932709B0932809BF91AF919F91FB
:104FF0008F911F901FBE1F9018951F920F920FB692
:105000000F9211247F928F929F92AF92BF92CF9274
:10501000DF92EF92FF920F931F932F933F934F9343
:105020005F936F937F938F939F93AF93BF93CF9330
:10503000DF93EF93FF938091170990911809A09146
:105040001909B0911A090196A11DB11D8093170984
:1050500090931809A0931909B0931A096091170940
:10506000709118098091190990911A090E94872E50
:105070006B017C0120E030E040E85CE360911309C3
:105080007091140980911509909116090E949B2F27
:105090009B01AC01C701B6010E94DA2D87FDBDC09E
:1050A00010921709109218091092190910921A09F2
:1050B0007090590980915A09811103C0772009F431
:1050C000A2C00E94FF066C01711023C080E0909185
:1050D0005A09782E9923A1F070905D09711005C0CE
:1050E00070905E09711001C0782EC2E6D9E010E020
:1050F00000E08091A2098017110611F00CF00CC19C
:1051000080911209882309F47EC010921209782E2A
:105110007AC000914F0910915009C8010E94F00611
:10512000C0914D09D0914E098C179D0778F2C801A6
:105130000E94F0067C01EC1AFD0AD0925009C09240
:105140004F098090510990905209E4012196D09323
:105150005209C09351090E94FF0690936109809300
:105160006009C0905409D0905509CC15DD0548F070
:1051700080915309882309F443C010925209109278
:1051800051090091560910915709C0915109D091C8
:105190005209809158095E0163E0AA0CBB1C6A9514
:1051A000E1F7811158C0F40153E0EE0FFF1F5A954B
:1051B000E1F7E00FF11FD801AA0DBB1D2D913D9124
:1051C0004D915C9160817181828193810E94DA2D81
:1051D000811141C081E0809358094FE050E060E0C8
:1051E00070E0CB010E9456189092520980925109AA
:1051F0008FE090E090934E0980934D09872D67CF03
:105200000E944608712C80915A0981119DC080919D
:105210005909811199C00E94E707FF91EF91DF9131
:10522000CF91BF91AF919F918F917F916F915F913E
:105230004F913F912F911F910F91FF90EF90DF9031
:10524000CF90BF90AF909F908F907F900F900FBEA8
:105250000F901F90189510925809F801EA0DFB1D48
:1052600064817581868197810E94582E9B01A0E6FA
:10527000BAEE0E945E2D20E03EE140E050E00E9448
:105280003C2D81E0C81AD108812C4EE1942EA12C2E
:10529000B12C2E153F05F0F0D0935209C09351095F
:1052A000E216F306A8F5C9018E199F097C0183E077
:1052B000CC0FDD1F8A95E1F7C00FD11F688179817E
:1052C0008A819B81A7010E945618F0924E09E092B4
:1052D0004D0994CFCC15DD05F8F6E21AF30A2196B4
:1052E000FE0123E0EE0FFF1F2A95E1F7E00FF11F0B
:1052F00064817581868197810E94582E9B01A0E66A
:10530000BAEE0E945E2DA50194010E943C2DC1CFF2
:10531000EE24E394F12CCBCFEE80FF80C701019700
:105320008E3F9F4F68F4888199810E94F0068E1508
:105330009F0530F06A817B818C819D810E94091AD2
:105340000F5F1F4F2896D5CE772009F466CF0E94B5
:10535000880C0E94F20761CFCDB7DEB72B970FB64E
:10536000F894DEBF0FBECDBF84B7877F84BF0FB672
:10537000F894A895809160008861809360001092F5
:1053800060000FBE80E890E00FB6F8948093610053
:10539000909361000FBE85B7806885BF85B7806830
:1053A00085BF85E89BE090935905809358050E943E
:1053B00061050E942C068091E20084608093E200E7
:1053C000789480913C098823A1F01091E9001F7026
:1053D0009091EC00892F817090FD80E8182B10923D
:1053E000E9008091E80083FD0E9494111F701093E2
:1053F000E90082E084BD93E095BD9AEF97BD80936C
:105400006E0007EE14E0ECEEEE2EE4E0FE2ED80186
:105410008D918D018F3F11F00E947308E016F10607
:10542000B1F70CEE14E078EFE72E74E0F72EF801F8
:1054300081918F018F3F11F00E947308E016F106F1
:10544000B1F78AE0E8EEF8E0DF01282F1D922A95F7
:10545000E9F7ECEDF8E0DF011D928A95E9F76E9A25
:10546000769A90E080E00E94D02C893E9E4F11F009
:105470000E94791782E090E00E94C82C8093A509D1
:105480000E9414109093E7088093E6080E94B614D7
:10549000EFE3FCE93197F1F700C000000E94B61479
:1054A0008091E80880FF08C06FEF7FEF90E080E018
:1054B0000E94F42C0E94470C83E090E00E94C82CCC
:1054C000682F70E090E080E00E945911279A2F9891
:1054D0008AE08093800089E1809381008FEF9FEFC5
:1054E00090938700809386000E94E4170E940D1815
:1054F0000E94E41782E893E09093210980932009A9
:1055000080913C09853089F48CE597E00E94BF04C6
:1055100000E112E180913C09853009F442C00E940B
:1055200063110E94E4170E9437070E94B614882373
:1055300059F08FB7F8944091250950912609609150
:105540002709709128098FBF52EF452E58E0552E3C
:1055500068EE662E68E0762E10E000E00B87D3013F
:10556000ED90FD903D01F201A190B1902F01AE149C
:10557000BF0409F057C00F5F1F4F0530110571F7C9
:105580008FEF8E838F8318860E94FF068160782FAD
:105590009A8789874E815F8168858A850E945D250B
:1055A00072C080913C09843049F180E00E94430739
:1055B0000E9446081092240988E190E0A0E40FB60A
:1055C000F894A895809360000FBEA093600083B705
:1055D000817F846083BF83B7816083BF789488951F
:1055E00083B78E7F83BF0FB6F894A8958091600033
:1055F000886180936000109260000FBE80913B092B
:10560000882309F487CF0E94B614E8EEF8E0819170
:105610009191892B09F0F3C082EF98E08E179F07D4
:10562000B1F778CF8091A50981FD49C0AE24BF2490
:1056300080E0CC24C394D12C96012A213B21232B3A
:1056400009F478C089832B852A83EC20FD2081E032
:10565000EF2809F480E08B830E94FF068160782F99
:105660009D838C8349815A816B818D810E945D2548
:10567000000F111FF801EE50F74F80819181C8266D
:10568000D926D182C08280911009882309F463C091
:1056900080910E0990910F09009709F052C00E9465
:1056A000FF0690930F0980930E0980910D09282F12
:1056B00030E0882309F47CC0C90101977DC080E7F0
:1056C00097E00E94BF0438EE832E38E0932ED12C51
:1056D000C12CDF92CF928BE697E09F938F930E942D
:1056E000580588E697E00E94BF04F401808121807C
:1056F000F2E08F0E911C0E946D0B382E822D0E94BD
:105700006D0B3F928F9382E697E09F938F930E9459
:10571000580580E697E00E94BF04BFEFCB1ADB0A72
:105720000FB6F894DEBF0FBECDBFF5E0CF16D104A3
:1057300081F67CCF8F5FCC0CDD1C8C3009F07CCFE8
:105740001ACF0E94F00620918E0330918F03281704
:10575000390708F4A4CF0E943707182F8091110948
:10576000181709F4CDCE109311098091A50982FF75
:10577000C7CE80FFC5CE8EE897E00E94BF0480911F
:10578000A50980FFBDCE1F921F9389E897E09F93E4
:105790008F930E9458058091A5090F900F900F904C
:1057A0000F9080FFADCE87E897E00E94BF04A8CE9F
:1057B00080910C098150990B40911B09442399F069
:1057C0002450374FD9011C918450974FFC018081A0
:1057D0000E946B0C0E94091A80911B09882319F002
:1057E000812F0E94031A80910D0990E0019660912B
:1057F0000C0970E00E94452C80930D09ACCF09BDC7
:1058000019BD09B400FEFDCF8091D8008F7D809333
:10581000D8008091E00082608093E0008091E000F9
:1058200081FDFCCF0E94631175CEDB018F939F93A6
:105830000E94292DBF91AF91A29F800D911DA39F22
:10584000900DB29F900D11240895991B79E004C02A
:10585000991F961708F0961B881F7A95C9F78095AF
:105860000895AA1BBB1B51E107C0AA1FBB1FA617A7
:10587000B70710F0A61BB70B881F991F5A95A9F7F9
:1058800080959095BC01CD01089597FB072E16F4E5
:10589000009407D077FD09D00E94312C07FC05D079
:1058A0003EF4909581959F4F0895709561957F4F37
:1058B0000895EE0FFF1F0590F491E02D09948F924B
:1058C0009F92AF92BF92CF92DF92EF92FF92CF93CF
:1058D000DF93EC01688179818A819B816115710573
:1058E0008105910521F464E279ED8BE597E02DE1E6
:1058F00033EF41E050E00E940A2D49015A019B011B
:10590000AC01A7EAB1E40E94292D6B017C01ACEE49
:10591000B4EFA50194010E94372DDC01CB018C0D61
:105920009D1DAE1DBF1DB7FF03C00197A109B04863
:1059300088839983AA83BB839F77DF91CF91FF9060
:10594000EF90DF90CF90BF90AF909F908F90089591
:105950000E945F2C089580E091E00E945F2C0895E2
:10596000B0E0A0E08093000190930101A0930201B8
:10597000B09303010895FB01DC0104C08D910190F7
:10598000801921F441505040C8F7881B990B0895A5
:10599000F999FECF92BD81BDF89A992780B50895F7
:1059A000A8E1B0E042E050E00C94FC2C262FF999DD
:1059B000FECF92BD81BDF89A019700B4021639F06E
:1059C0001FBA20BD0FB6F894FA9AF99A0FBE08953F
:1059D0000396272F0E94D72C0E94D62C252F0E9499
:1059E000D72C242F0C94D72C0196272F0E94D72C2C
:1059F0000C94D62CDC01CB01FC01F999FECF06C03A
:105A0000F2BDE1BDF89A319600B40D92415050407C
:105A1000B8F70895052E97FB1EF400940E94212DDF
:105A200057FD07D00E943C2D07FC03D04EF40C9488
:105A3000212D50954095309521953F4F4F4F5F4F09
:105A4000089590958095709561957F4F8F4F9F4FEA
:105A500008950E945E2DA59F900DB49F900DA49F68
:105A6000800D911D11240895B7FF0C94292D0E94DB
:105A7000292D821B930B0895A1E21A2EAA1BBB1B92
:105A8000FD010DC0AA1FBB1FEE1FFF1FA217B3070A
:105A9000E407F50720F0A21BB30BE40BF50B661F20
:105AA000771F881F991F1A9469F7609570958095E4
:105AB00090959B01AC01BD01CF010895A29FB0015B
:105AC000B39FC001A39F700D811D1124911DB29F32
:105AD000700D811D1124911D08955058BB27AA27D0
