:100000000C942E030C9466030C9466030C94660304
:100010000C9466030C9466030C9466030C946603BC
:100020000C9466030C9466030C942A220C94E6212B
:100030000C9427230C9466030C9466030C946603BB
:100040000C9466030C9466030C9466030C9466038C
:100050000C9466030C9403230C9466030C946603BF
:100060000C9466030C9466030C9466030C9466036C
:100070000C9466030C9466030C9466030C9466035C
:100080000C944E230C9466030C9466030C94660344
:100090000C9466030C9466030C9466030C9466033C
:1000A0000C9466030C9466030C9466030763423653
:1000B000B79BD8A71A39685618AEBAAB558C1D3CF9
:1000C000B7CC5763BD6DEDFD753EF6177231BF00BD
:1000D0000000803F08000000BE922449123EABAAF7
:1000E000AA2ABECDCCCC4C3E00000080BEABAAAA52
:1000F000AA3E00000000BF000000803F000000009A
:1001000000084178D3BB4387D1133D190E3CC3BDD2
:100110004282AD2B3E68EC8276BED98FE1A93E4C7F
:1001200080EFFFBE01C4FF7F3F0000000000000021
:1001300000000000000000000000000000000000BF
:1001400000000000000000000000000000000000AF
:1001500000007E0F00D4FFFFFFC700000078000002
:100160000000000000002A2B280000000000000012
:1001700000000000000000000029000000002C1E0C
:100180003420212224342627252E362D3738271EC9
:100190001F202122232425263333362E37381F04EF
:1001A00005060708090A0B0C0D0E0F101112131487
:1001B00015161718191A1B1C1D2F3130232D350445
:1001C00005060708090A0B0C0D0E0F101112131467
:1001D00015161718191A1B1C1D2F3130354C627259
:1001E000616E646F6E283132294665623230323278
:1001F0000068616E6E6168283238294D6179004C63
:1002000065616E672E486F756E40416476616E63FE
:10021000656442696F6E6963732E636F6D006C6510
:10022000616E67686F756E40676D61696C2E636F94
:100230006D0029001E001F00200021002200230065
:1002400024002500260027002A002B0014001A0095
:10025000090013000A000D000F0018001C003300F5
:100260003400A95D040015001600170007000B00FC
:10027000110008000C0012002800E1001D001B0006
:100280000600190005000E00100036003700380087
:100290005200E000AC5DE200E300AA5D2C002C00FF
:1002A000AB5DB15D50004F00510029001E001F00E2
:1002B0002000210022002300240025002600270022
:1002C0002A002B0014001A000800150017001C005B
:1002D00018000C00120013003400A95D0400160081
:1002E000070009000A000B000D000E000F0033008C
:1002F0002800E1001D001B00060019000500110088
:1003000010003600370038005200E000AC5DE2001B
:10031000E300AA5D2C002C00AB5DB15D50004F00E6
:100320005100010001000100010001000100010075
:10033000010001000100B25D4C000100010001005C
:1003400001000100010001004A0052004D004B0075
:10035000210AA95D3A003B003C003D003E003F0001
:10036000500051004F004E000100010040004100CC
:10037000420043004400450001000100010001006B
:1003800001000100AC5D01000100AA5D0100010057
:10039000AB5D01000100010001000100010001004E
:1003A00001000100010001000100010001005400F2
:1003B00055000100010001000100010001000100E1
:1003C00001005F00600061005600A95D01000100AE
:1003D000010001000100010001005C005D005E0001
:1003E00057000100010001000100010001000100AF
:1003F000010059005A005B0001000100AC5D0100E2
:100400000100AA5D01000100AB5D62000100630014
:10041000580001000100010001000100010001007D
:1004200001000100010001000100010001000100C4
:1004300001000100010001000100010001000100B4
:100440003500A95D0100010001000100010001006B
:100450002D002E000100010001000100010001003B
:10046000010001000100010001002F0030003100F7
:1004700001000100AC5D01000100AA5D0100010066
:10048000AB5D01000100010001000100AD5DAE5D4A
:10049000AF5DB05D0100010001000100075D085D76
:1004A000065D0100010001000100010001000100E2
:1004B00001000100045D055D0100A95D010001006E
:1004C0000100010001000100010001000100010024
:1004D000A80001000100010001000100010001006D
:1004E0000100010001000100A9000100AC5D010054
:1004F0000100AA5D01000100AB5DAE00BC00BB00C5
:10050000AA000100A75DA85D010001000100010033
:100510000100010001000100005C01000100010078
:1005200001000100010001000100010001000100C3
:100530000100A95D010001000100010001000100AE
:1005400001000100010001000100010001000100A3
:100550000100010001000100010001000100010093
:1005600001000100AC5D01000100AA5D0100010075
:10057000AB5DB35D01000100010005010980A1012F
:10058000850319012AB700150126B70095017510DA
:100590008100C0050C0901A101850419012AA002EE
:1005A000150126A002950175108100C005010906FC
:1005B000A101050719E029E7150025019508750136
:1005C00081029501750881010507190029FF1500B1
:1005D00026FF009506750881000508190129059573
:1005E0000575019102950175039101C009023B0057
:1005F000020100A0FA090400000103010100092121
:1006000011010001224000070581030800010904CF
:100610000100010300000009211101000122320044
:10062000070582032000011201000200000008A853
:1006300003F367010001020001100350007200651E
:10064000006F006E006900630000000A034F004C59
:10065000004B0042000000040309040011241FBEE7
:10066000CFEFDAE0DEBFCDBF04B603FE18C0809145
:10067000960990919709A0919809B09199098730AE
:10068000904BA740B04B59F41092960910929709DD
:100690001092980910929909E0E0F8E3099529E091
:1006A000A8E4B5E001C01D92A639B207E1F715E054
:1006B000A0E0B1E0E2E6F9E502C005900D92A834B1
:1006C000B107D9F70E94FD240C94832C0C940000F0
:1006D000E8EDF0E080818E7F80831092E20010923E
:1006E000DA001092E100A0EEB0E08C9181608C9372
:1006F00080818F77808319BCA7EDB0E08C918E7FCD
:100700008C9380818F7E80831092200908952091A0
:10071000E4003091E50095E6A9012091EC00822FDC
:10072000817020FF06C08091E80080FF06C080E055
:1007300008952091E80022FD1AC080912D09882398
:1007400089F0853089F08091EB0085FD0FC0209104
:10075000E4003091E50042175307F9F29150E1F6B9
:1007600084E0089582E0089583E0089581E008958B
:10077000EF92FF920F931F93CF937C018B010E9406
:100780008703C82F811117C08091E80085FD0BC039
:100790008091E8008E778093E8000E948703882389
:1007A00099F3C82F08C0F70181917F018093F10070
:1007B0000150110949F78C2FCF911F910F91FF9094
:1007C000EF90089580912F0987FF13C08091E80072
:1007D00082FF06C08091E8008B778093E80004C018
:1007E00080912D098111F2CF089580912D098823E0
:1007F000D9F38091E80080FFF8CF8091E8008E77F0
:10080000ECCF982F9093E900242F762F50E0891792
:1008100031F07091EC002091ED005091F00021FD3D
:1008200007C09F5F973071F78093E90081E00895DA
:100830003091EB003E7F3093EB003091ED003D7F37
:100840003093ED003091EB0031603093EB0070930A
:10085000EC002093ED005093F0002091EE0027FD76
:10086000E0CF80E00895CF92DF92EF92FF920F9356
:100870001F93CF93DF93C8EDD0E088818F7E88836C
:10088000E7EDF0E080818160808384E082BF81E0D9
:100890008093200988818E7F888302EE10E0F80122
:1008A00010821092DA0081EEC82ED12CF60110824F
:1008B00088818F77888388818068888388818F7D0D
:1008C000888319BC10922D0910922E0910922C09C0
:1008D00010922B0990EEE92EF12CF70180818B7F8D
:1008E000808388818160888342E060E080E00E94AC
:1008F0000104F60180818E7F8083F8018081816010
:100900008083808188608083F70180818E7F8083EF
:10091000888180618883DF91CF911F910F91FF9033
:10092000EF90DF90CF900895FC0180913509909170
:10093000360986179707A0F06115710529F4909183
:10094000E8009E779093E80090E06115710551F4FE
:10095000911108C08091E80082FF34C080E00895C2
:10096000BC01F2CF80912D098823C1F18530C1F1FE
:100970008091E80083FD30C08091E80082FDEACFDD
:100980008091E80080FFE1CF8091F3002091F20098
:10099000382F6115710519F02830310558F091E0B4
:1009A0002830310509F090E02091E8002E7720935F
:1009B000E800CBCF81918093F100615071092F5FE6
:1009C0003F4FE7CF80912D09882341F0853041F0DA
:1009D0008091E80083FFBECF81E0089582E0089512
:1009E00083E00895089508958091220908959C0157
:1009F0004FB7F8948091190990911A09A0911B0999
:100A0000B0911C094FBF821B930B08952FB7F89428
:100A10008091190990911A09A0911B09B0911C09A4
:100A20002FBF08952091160930911709281739070B
:100A300071F09093170980931609E0911409F091D1
:100A40001509309721F00084F185E02D099408956F
:100A500020911209309113092817390771F09093EA
:100A6000130980931209E0911409F0911509309748
:100A700021F00680F781E02D09940895E091140992
:100A8000F0911509309721F00190F081E02D099443
:100A900080E008958F929F92AF92BF92EF92FF9263
:100AA0000F931F93CF93DF938430B8F5811136C035
:100AB00090918000977F909380002F98A09186005E
:100AC000B0918700282F30E00E94622823E030E0B8
:100AD00040E050E00E94402889019A018091860000
:100AE000909187006CE070E00E94352760177107D5
:100AF000D8F0C80169E070E00E94352770938D003E
:100B000060938C00DF91CF911F910F91FF90EF9038
:100B1000BF90AF909F908F90089583E09091800058
:100B2000986090938000CACF809186009091870052
:100B3000E0908600F0908700E0918600F0918700B9
:100B4000C6E0D0E0BE010E943527060F171F211D09
:100B5000311D4801590185E0880C991CAA1CBB1C59
:100B60008A95D1F7C701BE010E9435279F0150E049
:100B700040E0260F371F411D511DC501B4010E94E1
:100B8000402849015A01E0918600F0918700CA018E
:100B9000B9010E9425279B01AC01DF010E942D288D
:100BA0009B01AC01C501B4010E9425272FE0969559
:100BB0008795779567952A95D1F7009186001091D2
:100BC000870030E020E0061717072807390708F0EC
:100BD00095CF609186007091870090CFE1E7F0E0BB
:100BE00080818D7F8083E0E9F0E080818F73808356
:100BF0000895CF92DF92EF92FF926B017C0120E08B
:100C000030E0A9010E94DE2881110AC08091900085
:100C10008F7380939000FF90EF90DF90CF900895B6
:100C200080919000806880939000C0920709D092D4
:100C30000809E0920909F0920A0920E030E040E05A
:100C400051E4C701B6010E949F2A9B01AC0160E0FC
:100C500074E284E79BE40E94E3286B017C010E941C
:100C60005C2970939700609396006091920470E005
:100C700090E080E00E948D29A70196010E949F2AA2
:100C800020E030E048EC52E40E94E3280E945C2916
:100C90007093990060939800BECF8091D00381112A
:100CA00022C0109295090E94EE0510924C091092F4
:100CB0004D091092410910924009E5E5F9E080E004
:100CC00090E0A0E8BFEB1182108282839383A4831B
:100CD000B58317821682389629E0E539F20799F72D
:100CE00081E08093D003089580910F0981110C94C5
:100CF0004D06089580E00895F894E82FE295EF708E
:100D0000F0E031A1282F2F7081E090E001C0880F22
:100D10002A95EAF7982F9095932391A392A1892B76
:100D200082A3789408959091D60892FF06C0282F48
:100D300028712830F9F4877F846093FF06C0282F3C
:100D400028712831F1F4877E84612091D70820FF33
:100D500006C0382F38713830D9F4877F816021FF81
:100D600006C0282F28712831D1F4877E816194FD37
:100D7000877E0895282F24712430F9F68B7F8860B0
:100D8000DCCF282F2471243101F78B7E8861DDCFE1
:100D9000382F3171313019F78E7F8860E0CF282FDE
:100DA0002171213121F78E7E8861E1CFCF93DF93CE
:100DB000EC0182389105A9F1D8F58133910509F448
:100DC00096C048F58932910509F48AC08A9709F4DA
:100DD00095C0C11522E5D20708F0B6C0C11531E5AE
:100DE000D30708F026C1C83ED10508F09CC0C03E1C
:100DF000D10560F5C83AD10508F087C0C53AD105DC
:100E000008F0EFC0C130D10509F12097F9F0C430E6
:100E1000D105E0F440C08533910509F45AC0C99763
:100E2000C1F68091D608837089F0C0EED0E00EC084
:100E3000833E910599F170F4803E910501F1823E67
:100E4000910539F68091D60882FD21C0CE01DF914F
:100E5000CF910895863E910561F1873E910571F12C
:100E6000843E910509F0B5CF8091D70881FFEECF80
:100E70008091D608C7EED0E084FD0DC0E7CF809109
:100E8000D60880FD07C19091D70890FFDFCFC3EE51
:100E9000D0E084FFDBCFD0E0C0E0D8CF8091D6088F
:100EA00082FDFBC09091D70890FDBFCF84FFCECFCD
:100EB000F2CF8091D60883FDDDCFC8CF8091D608D0
:100EC00083FDEEC09091D70891FFF0CFC4EED0E043
:100ED000BDCF8091D60885FFB9CFC9E2D0E0B6CFAB
:100EE0008091D60885FFB2CFC5E3D0E0AFCF809127
:100EF000D60886FFABCFCAE2D0E0A8CF8091D60853
:100F000086FFA4CFC1E3D0E0A1CFCF3BD10518F637
:100F1000C85AD0E0CC0FDD1FC754DB4F0990D881F1
:100F2000C02DD46493CFC11540E5D40708F064C048
:100F3000C11580E4D80708F05CC0CE019A958115F0
:100F40009F4108F483CFA7CFC11536E5D30718F525
:100F5000C11545E5D40708F084C0C11584E5D8075C
:100F600008F07AC09C2F969596959E0123703327A2
:100F7000C115D34508F462C0C1E0D0E002C0CC0F77
:100F8000DD1F2A95E2F730E2939FC0011124C82BA0
:100F9000D92BDA685BCFC1158AE5D80778F4C1157B
:100FA00099E5D90708F068C0C11528E5D20708F40B
:100FB00072CFDC2FCC27C06FD06A48CFCE019056BD
:100FC0008115904208F067CF8D2F8F710E94930694
:100FD00090E0982F882788279F719C012C2BE9018E
:100FE00049C0C55AD0E0CA54DB4FC881D0E0D064B4
:100FF0002DCFDF70D06A2ACFCE01E4E09695879599
:10100000EA95E1F783702C2F26952695237040E210
:10101000249F90011124382B8C2F8370C1E0D0E0E5
:1010200002C0CC0FDD1F8A95E2F7C22BD32BDC6800
:101030000DCFDC2FCC27C16FD06A08CFC1E0D0E044
:1010400002C0CC0FDD1F2A95E2F720E2929FC0017B
:101050001124C82BD92BEBCFDC2FCC27C46FD06A3F
:10106000F5CE8C2F0E949306C82FD0E0DC2FCC2722
:10107000CC27DF71D062EACE8C2F8F700E9493064E
:1010800034E0D695C7953A95E1F7CF709C2FEC01E7
:10109000D069DCCEC9E3D0E0D9CEC2EED0E0D6CE66
:1010A000C6EED0E0D3CE8091C10881111092C10864
:1010B000089580959091C00898239093C008089552
:1010C000ECE4F5E09191891303C0DF0111971C92C4
:1010D00095E0E235F907B1F70895ACE4B5E0EFEF3C
:1010E00090E02D91821751F0EF3F19F4211101C0CA
:1010F000E92F9F5F9630A9F7EF3F09F408950E2E70
:10110000000CFF0BE65BFA4F828308958091B508CF
:1011100090918408981301C008958F5F8770FACF6B
:10112000AF92BF92CF92DF92EF92FF920F931F93F5
:10113000CF93DF93C0903909D0903A09E0903B09F2
:10114000F0903C094091C2085091C3086091C408D6
:101150007091C508C42AD52AE62AF72ACFE1D0E043
:10116000082F10E02CE0929F000D111D11249CE32C
:10117000A92EBC2ED701C6010C2E04C0B695A7958A
:10118000979587950A94D2F780FD0FC0219788F72D
:10119000B12C8B2DDF91CF911F910F91FF90EF908C
:1011A000DF90CF90BF90AF900895AC9EF001AD9EC0
:1011B000F00D1124E00FF11FEE0FFF1FEE5CFD4F4D
:1011C000859194910E94D606019701F3E2CFCF93C7
:1011D000DF93EC010E949008EC2FF0E09CE0D99F97
:1011E000E00DF11D11249CE3899FE00DF11D1124F8
:1011F000EE0FFF1FEE5CFD4F85919491DF91CF9133
:101200000C94D6062CE0929F800D1124982F977095
:1012100086958695869525E0829FF0011124EA5AED
:10122000F74F50E040E080E0219130E0092E02C00D
:10123000369527950A94E2F721703327042E01C0D2
:10124000220F0A94EAF7822B4F5F5F4F453051051A
:1012500059F708952CE0929F800D1124982F9770D4
:1012600041E001C0440F9A95EAF7869586958695E8
:1012700095E0899FF0011124EA5AF74F90E080E051
:1012800070E05191DF0111979B01082E02C0369545
:1012900027950A94E2F721702195252724232527F5
:1012A0002C9301968530910561F70895FC018081AA
:1012B00091810E94E70892959F70963091F058F4C2
:1012C000925F9F70923058F4803F19F030F4883E5E
:1012D00030F481E008959A5FF4CF843FD1F380E049
:1012E0000895883EB0F3813FD1F7F3CF8554990B31
:1012F000BC01990F880B990B0E948D2920E030E0EA
:1013000040E451E40E94E3289B01AC0160E070E0FE
:1013100080E090E40E940C2B20E030E04CED53E4A0
:101320000E949F2A0895CF92DF92EF92FF920F932F
:101330001F93E0919509EE2309F414C2E15088E06F
:10134000E802F0011124EB5AF64FC280D380E4800A
:10135000F58020E030E0A901C701B6010E94DE2837
:1013600018160CF0FFC180915309909154090E9406
:10137000F7048C0164E670E00E943527E091520981
:10138000E93038F4F0E0EB57F34D0C945D27109200
:10139000510980915009882371F10E940605BC0112
:1013A00090E080E00E948B2920E030E048E451E4A6
:1013B0000E94E32820E030E040EA51E40E94D32973
:1013C0000E945529660F771F660F771F68507B4F65
:1013D000FB01608171818281938120E030E040E0F7
:1013E0005FE30E940C2B9B01AC01C701B6010E9478
:1013F0009F2A6B017C01C701B6011F910F91FF90DD
:10140000EF90DF90CF9008951092510981E0809382
:101410005009BFCF109251096431710538F46A3018
:10142000710540F089E180939204B3CF88E1693C73
:101430007105C8F38CE0F7CF1092510920E030E03D
:1014400040EA52E4C701B6010E94DE2887FDA1CF21
:1014500020E030E040E253E4C701B6010E94DE28FC
:1014600087FF28C00E94AF2768E270E00E944927EA
:10147000BC01645C7F4F072E000C880B990B0E9407
:101480008D296B017C010B30110508F498C00531E2
:10149000110508F0B1C02EEC2003C001219F900D72
:1014A0001124865E9B4F6AE070E00E9435276093AE
:1014B00092046FCF20E030E040EA53E4C701B60168
:1014C0000E94DE2887FF24C00E94AF2768EE73E0E9
:1014D0000E944927BC0168517C4F072E000C880BE5
:1014E000990B0E948D296B017C010630110508F4CF
:1014F00066C00531110508F07FC02EEC2003C00145
:10150000219F900D1124865E9B4F6FE070E0CDCF40
:1015100020E030E040E254E4C701B6010E94DE283A
:1015200087FF23C00E94AF2760ED77E00E94492724
:10153000BC016854744F072E000C880B990B0E9455
:101540008D296B017C0100311105C8F105311105B0
:1015500008F052C02EEC2003C001219F900D1124F1
:10156000865E9B4F65E070E0A0CF20E030E040EA6F
:1015700054E4C701B6010E94DE2887FF0ACF0E940B
:10158000AF2760ED77E00E944927BC016854744F93
:10159000072E000C880B990B0E948D296B017C0192
:1015A0000432110560F00333110530F52EEC2003F1
:1015B000C001219F900D11248A50964FA6CF82E33F
:1015C00032CF81E0809351096431710590F420E0BD
:1015D00030E040E85EE36A30710520F020E030E062
:1015E00040E05FE3C701B6010E949F2A6B017C01C6
:1015F00021CF693C710518F010929204CACE90E098
:1016000080E00E948B2920E030E040EA51E40E9413
:10161000712820E030E044E353E40E94E3289B017A
:10162000AC010E949F2A20E030E048E451E40E948F
:101630009F2A0E945C298CE0861BF5CE81E0809376
:1016400051092AE0269FC001279F900D112468EBC5
:101650007BE00E9435278C5D954097FF03C09195F4
:1016600081959109BC017727072E000C880B990BF7
:101670000E948D292EE333EC4EE259E30E949F2A0B
:1016800020E030E040EC5EE30E9472280E945C297A
:101690000ECF81E080935109C80183709927892B6F
:1016A00019F1C8018170992724E6289FB001299F6C
:1016B000700D112490E080E00E948B2920E030E042
:1016C00040E05EE30E949F2A20E030E040E45FE3D8
:1016D0000E9472280E945C2960939204077011276F
:1016E000012B09F056CE88CF82E380939204F6CF87
:1016F00081E08093510982E3809392040C3F1A4366
:1017000008F447CE90E080E00E948B2920E030E092
:1017100047E153E40E94712820E030E04AE754E4B6
:101720000E94E32820E030E048E452E40E949F2A2F
:1017300020E030E040EA51E40E94D3290E9455297C
:10174000660F771F660F771F68507B4FFB01208164
:10175000318142815381C701B6010E949F2A6B01EA
:101760007C0117CEC12CD12C760145CE80931D096A
:1017700070931F0960931E0980912D09843001F533
:1017800082E08093E9008FEF9091E800815095FD11
:1017900006C095ED9A95F1F700008111F5CF809183
:1017A000E80085FF0DC050E040E063E070E08DE1AF
:1017B00099E00E94B8038091E8008E778093E8005A
:1017C0000895BC0184E00C94B60BBC0183E00C943A
:1017D000B60BCF93DF93EC0181E08093E9008FEFAC
:1017E0009091E800815095FD06C095ED9A95F1F72E
:1017F00000008111F5CF8091E80085FF14C050E012
:1018000040E068E070E0CE010E94B8038091E800FB
:101810008E778093E80088E0FE01A3E2B9E00190B2
:101820000D928A95E1F7DF91CF91089581E0809341
:10183000E00080E28093D8001092C9008FE19EE41E
:101840000197F1F700C0000087E090EBDC01809386
:10185000960990939709A0939809B093990988E104
:101860009CE00FB6F894A895809360000FBE90930B
:101870006000FFCF682F86E090E00C94DA2780911B
:10188000110980FF08C08E7F809311090E943A0CD5
:1018900080E00C944A0580FD12C08160809311099C
:1018A000813019F489E080931109809111090E9417
:1018B0003A0C80911109869586958695EACF089510
:1018C0000E943F0C2FEF81EE94E021508040904029
:1018D000E1F700C000000C943F0CF901A09137091A
:1018E000B09138092281211103C08A179B07E1F0CA
:1018F00086E04802A0011124CD01841B950B6817D6
:10190000790781F086E001900D928A95E1F7809148
:10191000370990913809480F591F5093380940935F
:10192000370908950C94600C0895CF9384E090E0FB
:101930000E94CC27C82F82E290E00E94CC27982FEB
:101940008C2FCF9108958091C0089091BF08892B6A
:1019500080934A059091C108992391F0892B809337
:101960004A0520E08CE495E0FC013191CF01311172
:101970002F5FF5E082359F07B9F721110E945308C8
:1019800048E050E067EB78E08AE495E00E94BF27EA
:10199000892BA9F088E0EAE4F5E0A7EBB8E0019034
:1019A0000D928A95E1F7E0911409F09115093097AD
:1019B00031F00280F381E02D8AE495E009940895E6
:1019C00090E080E00E94280590E080E00E941205EF
:1019D0001092BF080C94A30C6093390970933A09D4
:1019E00080933B0990933C090C94E00C0F931F9358
:1019F0006091390970913A0980913B0990913C09B5
:101A00008B019C010871112722273327083111050A
:101A10002105310529F460641F910F910C94EC0CA1
:101A20006F7BFACF0F931F9341E050E060E070E0CE
:101A300004C0440F551F661F771F8A95D2F7CB014C
:101A4000BA01609570958095909500913909109133
:101A50003A0920913B0930913C096023712382238C
:101A600093231F910F910C94EC0C9091B6088095E4
:101A700089238093B608282F277091F4282F082EE9
:101A8000000C330B9217130659F09091D70892FD72
:101A900007C08595859585950E94120D1092B60810
:101AA0000895CF93C091D708C2FB992790F9981752
:101AB00099F080FBC2F9C093D7086091D60884E002
:101AC00090E00E94DA276C2F82E290E00E94DA27F1
:101AD00082E0CF910C94350DCF9108950F931F9311
:101AE00041E050E060E070E004C0440F551F661F05
:101AF000771F8A95D2F78091390990913A09A09180
:101B00003B09B0913C098A019B01082B192B2A2B18
:101B10003B2BC901B8011F910F910C94EC0C60E0B4
:101B200070E0CB010C94EC0C6093C2087093C30876
:101B30008093C4089093C5080C94E00C1092C008E0
:101B4000ECE4F5E086E0DF011D928A95E9F70C945C
:101B5000E00C1F93CF93DF93CDB7DEB7AA970FB6F4
:101B6000F894DEBF0FBECDBF8FE299E02091F10067
:101B7000FC012193CF01F9E087339F07B9F78091EA
:101B80003009833009F470C0B8F4813009F447C0DB
:101B9000823009F4B1C08091E80083FF7EC2809159
:101BA0002F09909130099A3008F077C2E92FF0E0C0
:101BB000E257F34D0C945D278A3009F48CC08B30CA
:101BC00009F46FC0893039F780912F09813219F7F4
:101BD00080913309909134090297E8F68091E800EA
:101BE000877F8093E8008091E80082FF38C0909161
:101BF000F3008091F200029731F48091F10081307E
:101C000011F0863021F48091F100809322098091B7
:101C1000E8008B778093E8000E94E203BCCF8091BC
:101C20002F09813A09F0B7CF8091E800877F809330
:101C3000E8008091330990913409892B61F468E0C0
:101C400083E299E070E00E9494048091E8008B7731
:101C50008093E800A0CF60E090E080E0F3CF809137
:101C60002D098111C0CF97CF80912F09813A09F0BA
:101C700092CF8091330990913409892B09F08BCF51
:101C80008091E800877F8093E8008091E80080FFE2
:101C9000FCCF809191048093F1008091E8008E77D1
:101CA000B9CF80912F09813209F075CF8091330926
:101CB00090913409892B09F06ECF8091E800877FDD
:101CC0008093E8000E94E20380913109809391049F
:101CD0000E949E0D60CF80912F09813209F05BCF69
:101CE0008091E800877F8093E8000E94E203809162
:101CF0003209809321094FCF80912F09813A09F051
:101D00004ACF8091E800877F8093E8008091E800C7
:101D100080FFFCCF80912109BECF803899F08238B6
:101D200009F0BBC1809133098F70873008F0B5C1CD
:101D30008093E9008091EB0085FB882780F9109261
:101D4000E90006C080912B0990912C0991118260C5
:101D50009091E800977F9093E8008093F1001092B3
:101D6000F1008091E8008E7794C1882309F482C144
:101D7000823009F092C180913109811185C1809131
:101D800033098F702FEF280F263008F086C180931B
:101D9000E9002091EB0020FF77C1933031F480916E
:101DA000EB0080628093EB006FC19091EB0090613B
:101DB0009093EB0021E030E001C0220F8A95EAF712
:101DC0002093EA001092EA008091EB008860EACF4D
:101DD000811163C1109131091F778091E3008078F0
:101DE000812B8093E3008091E800877F8093E80057
:101DF0000E94E2038091E80080FFFCCF8091E30025
:101E000080688093E30082E0111183E080932D09C4
:101E100044C18058823008F040C1809131099091CE
:101E200032098C3D23E09207A1F583E08A838AE2A0
:101E300089834FB7F894DE01139620E03EE051E22B
:101E4000E32FF0E050935700E49120FF03C0E295A8
:101E5000EF703F5FEF708E2F90E0EA30C0F0C796D2
:101E60008D939D932F5F243159F74FBF8091E800E8
:101E7000877F8093E8006AE270E0CE0101960E94BD
:101E800094048091E8008B778093E80006C1C096A7
:101E9000E7CF4091330950913409292F332723305C
:101EA000310509F444C078F52130310509F46FC0DB
:101EB0008BE390E0ECEEF5E02230310509F0EDC067
:101EC0002091E800277F2093E80020913509309188
:101ED00036098217930708F49C0140E0211531056B
:101EE00009F064C0411162C08091E80082FDC9CF51
:101EF00080912D09882329F2853019F28091E8001C
:101F000083FFF2CFBECF21323105A9F12232310554
:101F100009F0C3C04115510509F443C041305105D2
:101F200009F0BBC082E390E0EAE7F5E0C9CF99276A
:101F300081309105C1F0009759F0029709F0ADC0CA
:101F4000E9E3F6E0E4918E2F90E0E9E3F6E007C0E4
:101F5000E7E5F6E0E4918E2F90E0E7E5F6E0009704
:101F600009F49BC0ADCFEBE4F6E0E4918E2F90E056
:101F7000EBE4F6E0F4CF4115510571F04130510525
:101F800009F08BC089E090E0E7E1F6E099CF82E1CB
:101F900090E0E7E2F6E094CF89E090E0EEEFF5E044
:101FA0008FCF80E490E0ECEAF5E08ACF80912D09B4
:101FB000882309F466CF853009F463CF8091E80067
:101FC00083FD5FCF8091E80082FD8ECF8091E80095
:101FD00080FF84CF9091F3008091F20021153105AC
:101FE00019F08830910550F041E0089709F040E081
:101FF0008091E8008E778093E80070CF4491409301
:10200000F1003196215031090196E8CF803809F06E
:1020100044C08091E800877F8093E80080912E097A
:102020008093F1009ECE811138C010913109123099
:10203000A0F58091E800877F8093E80010932E0937
:102040000E94E203112311F084E005C08091E300B7
:1020500087FDFACF81E080932D0942E061EC81E0B9
:102060000E94010442E261EC82E00E94010480913E
:102070002D0913C080913109813079F481E09330CA
:1020800009F080E080932C091092E9008091E8002B
:10209000877F8093E8000E94E2038091E80083FF3D
:1020A0000AC08091E800877F8093E8008091EB0070
:1020B00080628093EB00AA960FB6F894DEBF0FBE45
:1020C000CDBFDF91CF911F910895882321F00E9409
:1020D00059080C94A30C0895882339F09091C008F6
:1020E000982B9093C0080C94A30C0895882309F4AE
:1020F0004BC0823871F40E943E0581FF45C089E3E0
:102100000E946D080E94A30C89E30E9460080C9451
:10211000A30C833859F40E943E0580FF35C083E547
:102120000E946D080E94A30C83E5EFCF843859F418
:102130000E943E0582FF28C087E40E946D080E942D
:10214000A30C87E4E2CF9CEF980F913AF0F290E273
:10215000980F983050F4877091E001C0990F8A95DC
:10216000EAF7892F0E945908D2CF9BE5980F933048
:1021700020F490E080E00C942805885A873120F400
:1021800090E080E00C94120508956F927F928F92F8
:102190009F92AF92BF92CF92DF92EF92FF920F93F6
:1021A0001F93CF93DF93CDB7DEB72A970FB6F8947E
:1021B000DEBF0FBECDBF8E010F5F1F4F8AE0F8015B
:1021C00011928A95E9F797EEE92E94E0F92E6801CD
:1021D0002CEE622E24E0722E88248394912CF70139
:1021E00081917F018F3F09F446C0F894E82FE29572
:1021F000EF70F0E021A18F70A40102C0440F551FC1
:102200008A95E2F7CA01922F982B91A392A180950B
:10221000892382A3789400C0ECEEF4E021E030E062
:10222000B12CA12C41914F3F09F47FC0A42FA2955E
:10223000AF70B0E090968C9190E04F7002C0959591
:1022400087954A95E2F780FD70C0C901A82AB92A8E
:10225000220F331F54E0E83FF50721F7F7013197CC
:1022600080818F3F11F00E947C0680EA8A95F1F709
:10227000F601B182A082F2E0CF0ED11C6E147F0471
:1022800009F0ADCF4AE050E0B8018CEC98E00E9434
:10229000BF27FF24F394009709F4F12C892B09F44C
:1022A00047C08AE0F801ACECB8E001900D928A9545
:1022B000E1F781E08093C8080E9406059093C70863
:1022C0008093C6088091C6089091C7080E94F704C1
:1022D000059790F18091CC089091CD089093D90802
:1022E0008093D8088091CE089091CF089093DB0816
:1022F0008093DA088091D0089091D1089093DD08FE
:102300008093DC088091D2089091D3089093DF08E5
:102310008093DE088091D4089091D5089093E108CD
:102320008093E0081092C80807C090E080E08ECF4C
:102330008091C8088111C6CF8091CB08882389F08D
:102340008091C9089091CA080E94F704893E934081
:1023500040F083EE0E94761082EE0E94761010927A
:10236000CB088F2D2A960FB6F894DEBF0FBECDBFD7
:10237000DF91CF911F910F91FF90EF90DF90CF9061
:10238000BF90AF909F908F907F906F900895CF9364
:10239000C82F882309F488C08238C1F40E943E0502
:1023A00081FD82C089E30E946D080E94A30C2FEF7B
:1023B00081EE94E0215080409040E1F700C00000A1
:1023C00089E30E946008CF910C94A30C8338A1F498
:1023D0000E943E0580FD68C083E50E946D080E9452
:1023E000A30C2FEF81EE94E0215080409040E1F764
:1023F00000C0000083E5E5CF8438A1F40E943E05CB
:1024000082FD52C087E40E946D080E94A30C2FEF4A
:1024100081EE94E0215080409040E1F700C0000040
:1024200087E4CFCF8CEF8C0F813A68F4ECE4F5E0D1
:102430008191C81799F125E0E235F207C9F78C2F91
:102440000E946D08C0CF80E28C0F883068F4C7709E
:1024500021E030E001C0220FCA95EAF78091C00860
:10246000822B8093C008AFCFEBE5EC0FE33040F454
:10247000F0E0EA54FB4F808190E0CF910C94280566
:10248000C85AC73188F4EC2FF0E0EE0FFF1FE75475
:10249000FB4F80819181CF910C9412058C2F0E946B
:1024A00060080E94A30CCBCFCF9108951F93CF93C8
:1024B000DF93182FD0E0C0E0893311F4C0E5D0E0FD
:1024C000812F0E94C711209731F4812FDF91CF9186
:1024D0001F910C9476108FE99FE00197F1F700C0EF
:1024E00000002197F0CF0F931F93CF93DF93C62F58
:1024F000D42F022FFC0182818823A1F060933F0931
:102500000E94060590933E0980933D09C77081E0C3
:1025100001C0880FCA95EAF7DF91CF911F910F9103
:102520000C946C1080913F09681335C080913D096F
:1025300090913E090E94F704883C910560F510E2F5
:102540001D0FCD17B9F080E28C0F883040F4C770B2
:1025500081E001C0880FCA95EAF70E946510183023
:1025600048F481E09D2F977001C0880F9A95EAF793
:102570000E946C10802F0E945612183098F4D77069
:1025800081E001C0880FDA95EAF7DF91CF911F91C2
:102590000F910C946510C77081E001C0880FCA9537
:1025A000EAF7F3CFDF91CF911F910F910895AF928A
:1025B000BF92CF92DF92EF92FF920F931F93CF9330
:1025C000DF93EC018AE0A82EFE012491222309F476
:1025D00094C0213009F03EC031968491813031F4AD
:1025E0002296FE0184910E94561207C0823039F46F
:1025F0002296FE0184910E94C7112196E5CF833077
:1026000031F42296FE0184910E947610F6CF843038
:1026100009F071C02296FE01249190E080E0FE0155
:1026200031962053330B2A30310548F0019728F3B7
:10263000EFE9FFE03197F1F700C00000F7CFA89E67
:10264000A001A99E500D1124C901840F951F24914A
:10265000EF01E5CFE22FF0E0E25AFE4FB490822F77
:1026600086958695869590E0FC01E25BFE4FE490AE
:102670002770F12C022E02C0F594E7940A94E2F739
:1026800031E0E322FF24FC01E25CFE4FC490D12C38
:10269000022E02C0D594C7940A94E2F7E1E0CE225C
:1026A000DD24FC01E25DFE4F049110E002C01595AF
:1026B00007952A95E2F701701127E114F10419F04A
:1026C00081EE0E94C711C114D10419F086EE0E9458
:1026D000C7118B2D0E945612CD2819F086EE0E944C
:1026E0007610EF2819F081EE0E947610012B09F484
:1026F00084CF8CE278CFEF0180CFDF91CF911F9113
:102700000F91FF90EF90DF90CF90BF90AF90089522
:1027100069EE7EEF90E080E00E94F82760E082E0C2
:1027200090E00E94DA2760E083E090E00E94DA27E0
:102730001092C2081092C3081092C4081092C508E3
:1027400060E084E090E00E94DA2760E082E290E0BE
:102750000E94DA2760E085E090E00E94DA2760E0DE
:1027600086E090E00E94DA276FEF87E090E00E9419
:10277000DA2740E050E0BA0188E090E00E94EC27C0
:1027800060E08DE090E00E94DA2740E050E0BA017E
:1027900088E190E00E94EC2760E087E190E00E94F1
:1027A000DA2740E050E0BA018CE190E00E94EC278B
:1027B00070E060E080E290E00E94F82740E050E0A6
:1027C000BA0188E190E00E94EC2740E050E0BA01B5
:1027D0008FE090E00E94EC2740E050E0BA0183E1F6
:1027E00090E00C94EC2790E080E00E94D427893E92
:1027F0009E4F51F00E948813809111098470896165
:10280000809311090E943A0C86E090E00E94CC2748
:1028100080931109803220F08770886180931109BC
:1028200090911109892F817090FF04C0892F86959E
:10283000869586950C944A0580914E09811134C085
:1028400090E080E00E94D427893E9E4F11F00E94C4
:10285000881387E090E00E94CC2780934F09E5E53C
:10286000F9E080E090E0A0E8BFEB11821082828363
:102870009383A483B58317821682389629E0E539BD
:10288000F20799F780914E0981110CC00E94EE0564
:102890003E9A82E0809390008AE18093910081E0EB
:1028A00080934E090C944D0608957F928F929F92CB
:1028B000AF92BF92CF92DF92EF92FF920F931F934E
:1028C000CF93DF934B015C017A0180914F0980FF28
:1028D00085C080914E09811102C00E941C1420E025
:1028E00030E0A901C501B4010E94DE2887FF04C0C1
:1028F000B7FAB094B7F8B09470909509872D8150CD
:10290000990B6C01EC01CF3FDC0709F051C081E06D
:10291000870D893008F489C088E08093950985E5A2
:1029200099E028E0FC013896DC0101900D922A958F
:10293000E1F7089629E08D38920799F781E08093B6
:10294000060980934D09C0919509C150DD0B0E9485
:102950000605FE0123E0EE0FFF1F2A95E1F7EB5A73
:10296000F64F9183808382829382A482B582F7821C
:10297000E6820E9406059093540980935309809142
:10298000D003882359F18091710082608093710097
:102990008091900080688093900080914D098823F9
:1029A00021F00E9493090E94F9051092D00316C0ED
:1029B0008E0133E0000F111F3A95E1F70B5A164FC5
:1029C000A5019401F80162817381848195810E943F
:1029D000DE28811128C0CC15DD0574F0DF91CF9180
:1029E0001F910F91FF90EF90DF90CF90BF90AF902D
:1029F0009F908F907F900895219688E0F8013896F7
:102A0000D80101900D928A95E1F70E940605F80120
:102A10009187808782869386A486B586F786E68628
:102A2000085F1F4FD8CF21976ECF8093950986CF2F
:102A3000CF92DF92EF92FF92CF93DF93EC017B0175
:102A400080914F0980FD08C0DF91CF91FF90EF90FA
:102A5000DF90CF900C944D0680914E09811102C0F9
:102A60000E941C1480914D0981110E944D0681E045
:102A700080934C0910924B09D0934A09C09349099D
:102A8000F0924809E09247091092460910924509D0
:102A9000109244096C817D818E819F810E945C2906
:102AA0009B01A0E6BAEE0E946228C12C2EE1D22E34
:102AB000E12CF12CA70196010E94402868817981C0
:102AC0008A819B81A9010E9455140E94060590935A
:102AD000430980934209E0914909F0914A098091A4
:102AE00044099091450933E0880F991F3A95E1F721
:102AF000E80FF91F64817581868197810E945C29A6
:102B00009B01A0E6BAEE0E946228A70196010E94EE
:102B100040283093410920934009DF91CF91FF90E5
:102B2000EF90DF90CF90089581E08093100968E0E6
:102B300070E081E594E00C9418150E9474061092E0
:102B40000F0968E070E081E194E00C94181581E0D1
:102B500080930F0968E070E081ED93E00C94181504
:102B600062E070E080EC93E00E9418152FEF81EE98
:102B700094E0215080409040E1F700C000000E94A6
:102B80004D0660914F096E7F60934F0987E090E09A
:102B90000C94DA2760914F09616060934F0987E0D8
:102BA00090E00E94DA2762E070E080EB93E00C9402
:102BB0001815CF92DF92EF92FF92CF93C82F20E8A3
:102BC000829FC001112460E170E08C5F9E4F0E94E3
:102BD0001815C12CD12C7601C39404C0CC0CDD1C7B
:102BE000EE1CFF1CCA95D2F76C2D83E090E00E948A
:102BF000DA27C701B601CF91FF90EF90DF90CF9019
:102C00000C94940D0E9476094FEF5FEF0C945514CD
:102C1000CF92DF92EF92FF920F931F93CF93DF93A8
:102C20006B017C0120E030E0A9010E94DE2887FFD3
:102C300004C0F7FAF094F7F8F09480914D098823D6
:102C400009F458C080914E09811102C00E941C14E1
:102C500005E519E0C7E0D0E0A7019601F80162ADF3
:102C600073AD84AD95AD0E94DE2881113CC083E038
:102C7000CC0FDD1F8A95E1F7CB5AD64F1982188207
:102C800080E090E0A0E8BFEB8A839B83AC83BD83A8
:102C90001F821E82AC01BD01F9E0CD38DF0789F447
:102CA000C1E0C093060980919509815080939509F0
:102CB000811120C00E94EE05C093D00310924D09EF
:102CC00019C088E0FE013896DE0101900D928A95C8
:102CD000E1F7198618864A875B876C877D871F8690
:102CE0001E862896D9CF219708501109CF3FDC07BF
:102CF00009F0B2CFDF91CF911F910F91FF90EF902C
:102D0000DF90CF9008954F925F926F927F928F9253
:102D10009F92AF92BF92CF92DF92EF92FF920F936A
:102D20001F93CF93DF93CDB7DEB7A8970FB6F89474
:102D3000DEBF0FBECDBF7C01DC0113968D919C914F
:102D40001497892B49F01C911196DC90812F8D21CD
:102D50008F3F11F00C94441FA8960FB6F894DEBF75
:102D60000FBECDBFDF91CF911F910F91FF90EF90DC
:102D7000DF90CF90BF90AF909F908F907F906F909B
:102D80005F904F9008950E949008082F682F8981C6
:102D90009A810E942A09E12FF0E0BCE0DB9EE00D61
:102DA000F11D11242CE3029FE00DF11D1124EE0F03
:102DB000FF1FEE5CFD4F0591149180915208811127
:102DC000ADC0D70112968C9181110AC00530BDE5C6
:102DD0001B0709F46FC090F40430FDE51F0799F15B
:102DE000D70112968C91F801E75AFD45ED30F105B7
:102DF00008F0A0C1E856F34D0C945D2707302DE58F
:102E0000120709F465C008303DE5130749F7C09083
:102E10000402D09005028090390990903A09A09060
:102E20003B09B0903C090E949E0D0E948F0D0CE45E
:102E300018E0C016D10609F460C0C8010E948316CC
:102E400006501109F6CF0E94600C0E949E0D0E9450
:102E50008F0D82E595E0909338098093370981E0E2
:102E6000809352088091B608877009F475CFD70116
:102E700012968C91882309F46FCF8091D70882FD38
:102E80006BCF82E0A8960FB6F894DEBF0FBECDBF21
:102E9000DF91CF911F910F91FF90EF90DF90CF9036
:102EA000BF90AF909F908F907F906F905F904F906A
:102EB0000C94350D0E94600C0E949E0D0E948F0D97
:102EC0008CE498E0909338098093370982E0C8CF6A
:102ED000C0900602D09007028090390990903A097C
:102EE000A0903B09B0903C090E949E0D0E948F0D5E
:102EF00002E515E0C016D10659F40E949E0D80929D
:102F0000390990923A09A0923B09B0923C09AACFA4
:102F1000C8010E9483160A5F1F4FECCF06309DE563
:102F20001907A9F028F00930BDE51B0708F49ACF6E
:102F3000813009F444C0823009F052CF609106021A
:102F40007091070297014FEF8CE498E040C0F701C1
:102F50009281992309F486CF813029F08230C9F01B
:102F6000109252087FCF00913709109138090E94C2
:102F7000600CF5E002351F0729F0F80136978281D1
:102F8000811105C01093070200930602E9CF8F015B
:102F9000F0CF00913709109138090E94600C28E0A9
:102FA0000C34120729F0F80136968281811105C090
:102FB0001093050200930402D3CF8F01F0CF6091EC
:102FC000040270910502970141E082E595E00E94BC
:102FD0006D0C06CF882309F445CF80E00E94D915F7
:102FE00041CF882309F43ECF81E0F8CF882321F038
:102FF00082E00E946E0D36CF82E00E94120D32CF29
:10300000882311F085E0F5CF85E0F7CF882331F0F4
:1030100083E00E946E0D0E94F60C24CF83E00E9494
:10302000120DF9CF882311F084E0F3CF84E0F7CFBD
:10303000882321F08EE192E00E94D712F70182816D
:103040000F31FCE51F0709F489C0D70112968C9156
:103050000A32BCE51B0709F088C0882309F492C036
:103060008091520990E0019669E070E00E94492742
:103070008093520964E070E089E092E00E941815A4
:10308000F1CE8823D9F28FEF91E0D6CF8823B1F229
:1030900081EF91E0D1CF882389F28EED91E0CCCF02
:1030A0008823D1F08091CB0881110AC081E0809300
:1030B000CB088091080281110DC082EE0E94C711D9
:1030C0000E9406059093CA088093C9088BE20E946B
:1030D000C711B4CF83EEF2CF8BE20E947610AECF51
:1030E00090910802882361F0911102C086E4EFCF2D
:1030F00081EE0E94C71183EE0E94C71181E2E7CFE3
:10310000911102C086E4E9CF81EE0E94761083EE31
:103110000E94761081E2E1CF882309F48FCF80915D
:103120000802811104C081E08093080287CF1092C9
:10313000080284CF0D31BCE51B0731F4882309F464
:1031400084CF0E94CA158ECE0E31ECE51E0709F021
:1031500075CF882351F00E94B01584CE882391F05A
:1031600080914F0980FDF7CFECCFF70182810B32C0
:10317000FCE51F0739F4882329F08091520990E07B
:10318000089672CFD70112968C91882309F49DC6B8
:103190000E3BBCE51B0709F45AC0C8F40C3BFCE528
:1031A0001F07A9F10D3B2CE5120709F448C00632B0
:1031B0009CE5190709F48CC00732BCE51B0709F030
:1031C0007CC0882309F486C60E949D154BCE003C26
:1031D0003CE5130709F46BC008F455C0013CACE5AD
:1031E0001A0729F790911109892F8695869586955A
:1031F0008F5F8F719770843008F05CC0880F880FE4
:10320000880F892B809311098091110928C0809122
:1032100011098770886180931109887F91E009F412
:1032200090E08091110990FB80F98093110983E06F
:103230000E944A05809111090E943A0C13CE809198
:10324000110987708E7F8093110980E0F1CF809102
:103250001109982F987F79F0885080931109887F01
:1032600091E009F490E08091110990FB80F980933E
:1032700011090E943A0C80911109869586958695D0
:103280000E944A05EFCD80911109982F9695969549
:103290009695933040F49F5F990F990F990F87701F
:1032A000892B80931109809111098160E0CF0E94E0
:1032B0003F0CD8CD90931109A7CF0832ECE51E073B
:1032C00051F490910F09882309F404C691117CCF21
:1032D0000E94A715C7CD0C32FCE51F0731F48823E7
:1032E00009F4F8C50E949415BDCD0D322CE51207E6
:1032F00051F4882309F4EEC51092100968E070E0DB
:1033000089E292E0BBCE0E323CE5130741F48823FC
:1033100009F4E0C5809110098111EECFE3CF0932A5
:103320009CE5190709F0D6C5882309F4D3C50E9486
:1033300074062091090330E02F5F3F4F237033273D
:103340002093090348E2429FC001439F900D11243E
:1033500065E070E087599D4F91CE023E110571F4F2
:103360000E94740680915408882319F081E08093AC
:103370005308109254081092010974CD033E1105B0
:1033800091F490915308992321F10E9474061092B0
:10339000540881E0809301091092FE081092000900
:1033A0001092FF085FCD0235110551F48091AE03F4
:1033B0009091AF030A979093AF038093AE0352CDE1
:1033C0000135110531F48091AE039091AF030A9657
:1033D000F2CF9091090391117AC0D70111969C9177
:1033E000119725E030E0291B3109DC90B0E1DB0EBC
:1033F000ECE02E9FD00C1124882309F4ABC04423A9
:1034000019F08D2D0E94021680915408882351F0E6
:103410008091FD08E82FF0E0E351F74FD0828F5FF5
:103420008093FD080115110509F01CCDD7011296F6
:103430008C91882309F43DC510923F090430BDE505
:103440001B0708F0CAC00B3FECE51E0738F49801D3
:1034500022503C452431310508F0C9C00E94950C2A
:103460009093D7088093D60801313CE5130709F4FF
:10347000A4C108F008C109309CE5190709F471C11D
:1034800008F0DDC00530BCE51B0709F45EC108F09B
:10349000C6C00330FCE51F0709F44DC108F051C157
:1034A0008091D608816002301C4509F447C16091C3
:1034B000D6081091D70884E090E00E94DA27612FA7
:1034C00082E290E00E94DA270E949E0DCBCC9130E0
:1034D00081F4D70111969C91119725E030E0291BCA
:1034E0003109D22EDD0CDD0CD20E9C919D5CD90EE3
:1034F00083CF923071F4F701918125E030E0291BF0
:103500003109D080F3E3DF0E97E0299FD00C11241E
:1035100073CF6CE0D62E933009F06ECF93E2E3E9DF
:10352000F4E0DE01119601900D929A95E1F7D70132
:10353000EC91EC0FFD2FF11D11969C9125E030E0F0
:10354000291B3109D084BCE02B9FD00C1124E9E069
:10355000DE0E52CF442309F465CF8D2D0E947609EB
:103560000E9408165FCF043FFCE51F0739F188F47D
:10357000093D3CE51307F1F00A3D8CE5180751F1D0
:10358000083D9CE5190709F051CF26E241EE61EEB6
:103590000DC0063FACE51A07C9F0A0F027E245EEE2
:1035A00066EE073FECE51E0709F040CFC7010E9419
:1035B000731258CC27E245EE65EEF8CF26E241EED5
:1035C00060EEF4CF27E245EE64EEF0CF26E241EE66
:1035D00062EEECCF28E241E0EFCF0236FDE51F07B7
:1035E00009F43CCF063A2DE5120709F437CF06312E
:1035F0003CE5130709F027C1882309F45EC48091D4
:10360000C0088A7A91E009F490E0909355088111FE
:1036100016C189E20E946D080E94A30C23CC0730DA
:103620008CE5180709F499C08091D60880610830AC
:103630001C4508F483C08091D60880647FC00D309B
:10364000ACE51A0709F4ADC058F40B30ECE51E07E1
:1036500009F4A3C008F48BC08091D6088D7F6EC09A
:103660008091D6088F7E0F302CE5120709F466C0D2
:103670008091D608877F00311C4508F45FC0809197
:10368000D6088F7D5BC00E3F8CE5180709F491C00A
:1036900038F50531ACE51A0709F4ADC080F4033103
:1036A000ECE51E0709F493C008F48BC00E949E0D40
:1036B0009091D608892F97FB87F980583FC00C3F1F
:1036C0002CE5120709F445C008F06FC00B3F1C45FC
:1036D00009F0EDCE8091D70881608093D708E7CEBE
:1036E00002309DE5190709F496C0A8F40115BDE55F
:1036F0001B0709F476C008F446C08091D708982FBC
:10370000909591708E7F892B90FB81F98093D708DB
:1037100081FF6CC03DC00236FDE51F0709F481C082
:10372000063A2DE5120709F483C003301D4509F060
:10373000BECE60E071C08091D60882608093D608CA
:10374000B6CE8091D6088460F9CF8091D608886083
:10375000F5CF8091D7088260C0CF8091D608806273
:10376000EDCF0E949E0D8091D6088068E7CF8091B2
:10377000D6088C608093D60864E070E08AE493E019
:103780000E94181594CE8091D70883608093D70843
:1037900064E070E08AE293E0F3CF8091D6088E7FF8
:1037A000CDCF8091D6088B7FC9CF8091D7088E7FEF
:1037B00094CF8091D7088D7F90CF8091D6088F7B52
:1037C000BDCF0E949E0D8091D6088F77B7CF809194
:1037D000D608837F8093D60862E070E08AE193E0A8
:1037E000CFCF8091D7088C7F8093D70862E070E0BC
:1037F0008AE093E0C5CF8091D60882FB992790F9A3
:1038000021E0922790FB82F990FB83F98093D60800
:1038100083FFE2CFB1CF61E08EE090E00E94DA2733
:1038200046CE9091D608892F8F7E94FF806186CFF7
:103830009091D608892F8E7F90FF81607FCF85E39E
:10384000E9CE85E33FC30B358DE5180709F499C030
:1038500008F064C00115ACE51A0709F471C00F3D0A
:103860001C4509F48BC0F7018281108101818823F6
:1038700009F48BC0812F902F0E949008D82E682FBA
:10388000812F902F0E942A09E12FF0E02CE0029F67
:10389000E00DF11D11243CE3D39EE00DF11D112438
:1038A000EE0FFF1FEE5CFD4F859194910E94D606AE
:1038B0008C01882ED7011296DC90129715969C9059
:1038C00092945FE095228091B6088770C1F0BD2C7C
:1038D000DD20B1F0812F807F803421F080E2800FE5
:1038E000883068F08091D70882FD09C082E00E948C
:1038F000350D8091B6088770BB24B3948111B12C2B
:10390000A12EA2943FE0A322BBE0BA1508F4ABC0FD
:10391000EA2DF0E0EB55F34D0C945D270C35EDE509
:103920001E0789F10D351D4509F09DCF8091D708FF
:1039300082FB882780F991E089270E94510D93CF5F
:103940000E949E0D0E9474060E9406058C0163E091
:1039500070E08AE693E00E941815C8010E94F704FF
:103960008A3F910520F00E944D060E94160C8FE9B7
:103970009FE00197F1F700C00000EFCF0E9488138D
:1039800071CA81E0DACF80E0D8CF812F902F0E94DA
:103990000209D82E79CFE12FEF70CE2E107F19F0CB
:1039A000C29420EFC222DD20B9F0CC2069F080E281
:1039B000800F883010F0811009C08091C008C82A9B
:1039C000C092C0080E94A30C802F4BC08091BF08FA
:1039D000C82AC092BF08F6CF802F0E947610CC2054
:1039E00009F441C0005E083010F0811004C08C2D35
:1039F0000E94590806C0C0948091BF08C822C09296
:103A0000BF080E94A30C2FC0F12FFF70CF2E107F94
:103A1000103219F0C29490EFC922882089F021E079
:103A2000821609F488C0DD2009F492C0992009F4B7
:103A300088C0F701858180FFC7CF8F70858381C0E3
:103A40002091D70822FF54C0DD2009F44AC0CC20C1
:103A500039F08091C008C82AC092C0080E94A30C07
:103A600080E00E94C711AA2DA850BB0B149710F438
:103A70000E943E05BB20A9F08091B60880FD11C0D0
:103A8000F70112828595859585950E946E0DC70177
:103A90000E9483168091B6088595859585950E942C
:103AA000120D85E0F701DE01949601900D928A9542
:103AB000E1F78CA19DA10E9402099DA1ECA1F0E07B
:103AC0002CE0929FE00DF11D11243CE3839FE00D5B
:103AD000F11D1124EE0FFF1FEE5CFD4F85919491B7
:103AE0003BC980E00E947610CC2009F4BCCF7FCF88
:103AF000DD20A1F09091C1088C2D892B911003C07D
:103B00000E946C10B0CF31E09312FACF22FDABCF00
:103B1000981709F4A8CF8093C108A5CF911006C0CB
:103B20000E9453088C2D0E9465109DCF81E098164D
:103B300009F499CFF5CFDD2031F095E0991508F41F
:103B400092CF8C2DDDCFA4E0A91508F48CCFEACF5D
:103B5000992041F3F9E38F1209C02FEF37EE83E08C
:103B6000215030408040E1F700C00000802F0E94CB
:103B7000761079CF812F86958695837061F081309C
:103B800009F071CFC8019370D11002C090E080E0BD
:103B90000E94120568CFC8019370D11002C090E056
:103BA00080E00E9428055FCF812F837009F066C0F6
:103BB000D11059CF802F829586958770880F880FF6
:103BC000602F6F70462E512C712C612C082E04C072
:103BD000440C551C661C771C0A94D2F740E050E058
:103BE000BA0104FF0FC04FE050E060E070E004C095
:103BF000440F551F661F771F8A95D2F74095509541
:103C000060957095812F869586958370823019F125
:103C1000D8F40091C2081091C3082091C4083091D3
:103C2000C508813069F04429552966297729CB01D7
:103C3000BA0160237123822393230E94940D13CF32
:103C4000402A512A622A732ACB01BA0164297529B4
:103C500086299729F2CF4429552966297729009189
:103C6000C2081091C3082091C4083091C508CB0147
:103C7000BA016027712782279327DFCF8695DD2041
:103C800011F0812F8170882309F4EDCE802F829569
:103C900086958770880F880F602F6F70462E512C85
:103CA000712C612C082E04C0440C551C661C771C1A
:103CB0000A94D2F740E050E0BA0104FF0FC04FE091
:103CC00050E060E070E004C0440F551F661F771F8E
:103CD0008A95D2F74095509560957095812F86957D
:103CE00086958370823019F1D8F4009139091091CA
:103CF0003A0920913B0930913C09813069F044290F
:103D0000552966297729CB01BA01602371238223C3
:103D100093230E94EC0CA7CE402A512A622A732AD0
:103D2000CB01BA016429752986299729F2CF442944
:103D30005529662977290091390910913A0920916E
:103D40003B0930913C09CB01BA01602771278227DA
:103D50009327DFCF1F70DD2029F0812F0E946E0D89
:103D6000802FCECE802F0E946510812F0E94120DD1
:103D70007ACE802F92EF891609F43FC0981570F023
:103D8000A0EF8A16D1F0B1EF8B1691F0DD2009F487
:103D90006BC0911019CE812F8F7133C0E3EF8E1657
:103DA00099F1F4EF8F12F2CF8091D70882FF3EC0D5
:103DB000812F8F71DD20D1F224C0DD20C9F024E0F5
:103DC000291508F450CE1F7161E070E080E090E0AA
:103DD00004C0660F771F881F991F1A95D2F70091AC
:103DE000390910913A0920913B0930913C09ADCF36
:103DF00035E0391508F437CEE6CF812F8F71D11019
:103E0000B5CF0E946E0D2FCEDD2069F01F7161E0ED
:103E100070E080E090E004C0660F771F881F991F54
:103E20001A95D2F776CF0E948F0D1DCEDD2089F036
:103E30001F71812F0E946E0D8091D70882FD07C0EF
:103E4000A8E01A9FC001112483608093B608812FD7
:103E5000D8CF81E00E94350DB1E0B91508F003CE4E
:103E600082E00E94350DFFCD992059F0893309F089
:103E70007DCEEFEFF7EE23E0E150F0402040E1F798
:103E800073CE812F8F7172CF85E0F701DE0111961D
:103E900001900D928A95E1F7D70112962C918981B4
:103EA0009A8121110C94C3160E940209082F0C94C8
:103EB000CB1606311C4509F0D6CC809155088111EE
:103EC000C0CC89E20E946008A7CB0632ACE51A0795
:103ED00009F072C940910F09411105C09091100974
:103EE000992309F440CB882309F473CA003E1105D5
:103EF00009F033CA0E94740681E08093540810923E
:103F00005308109201091092FD080C9432171F9368
:103F1000CF93DF9380918308807FA9F480918008FC
:103F2000882389F08091B508D091840860917E083B
:103F300070917F08A0918108B0918208C62FC72395
:103F400016E0D81304C0DF91CF911F91089590E03F
:103F5000109711F0CF3F19F401968770F2CF189F98
:103F60009001199F300D1124F901EB57F74F418152
:103F70004713F2CF40814613EFCF42814111ECCF7E
:103F8000438154814A1B5B0B483C510528F78091C3
:103F900083088F70806180938308F901E657F74F9B
:103FA00080818F70806180838EE798E00E94831605
:103FB000DF91CF911F910C948608AF92BF92CF9260
:103FC000DF92EF92FF920F931F93CF93DF93CDB7C2
:103FD000DEB761970FB6F894DEBF0FBECDBF8C0180
:103FE00085E0F801DE011D9601900D928A95E1F7BA
:103FF000F801E2808EE7A82E88E0B82E6091810853
:10400000709182086115710509F432C190917E08A2
:1040100040917F08892F84238F3F09F429C1208193
:104020003181C380D480F0908008F601E61BF70B45
:10403000FF2009F4E8C080918308582F507FE83CA6
:10404000F10508F0ABC0511177C0FE2C431321C01D
:1040500092131FC0E1101DC08F7080618093830890
:10406000C5010E94831680918308F80185838F2DF6
:1040700061960FB6F894DEBF0FBECDBFDF91CF9132
:104080001F910F91FF90EF90DF90CF90BF90AF9076
:104090000895CD2829F0822F83238F3F09F003C193
:1040A00080E0F82FF170DF2E80FF3CC08091B508D2
:1040B0004091840856E0841315C02D873E878D8576
:1040C0009E850E94E708292F22952F702230F0F05C
:1040D000243018F59F70F1F0F8019581907FD1F4AC
:1040E000D12C1EC090E0589FF001599FF00D112473
:1040F000EB57F74F6181361306C06081261303C06A
:104100006281E6120FC001968770D5CF9F7011F0C3
:10411000882331F3805E883018F3C8010E9483162B
:10412000FD2CA5CFEE2009F4A2CF809183088160F9
:1041300080938308F12C9BCF431306C0921304C0D5
:10414000F801EE2009F479C0C8010E9456098823BD
:1041500009F1EE20F9F080918308803270F020910F
:104160007E0830917F0838872F831986DB86CA86C0
:104170008C87CE0107960E94831686E0F801AEE791
:10418000B8E001900D928A95E1F70E94871FFF2405
:10419000F3946DCFC8010E948316F9CF51110AC064
:1041A0008EE798E00E94831686E0F50111928A95C9
:1041B000E9F7C0CF43130FC092130DC0E1100BC03D
:1041C000F8018583C8010E94831686E0F5011192EB
:1041D0008A95E9F74CCFC8010E9456098823D1F28D
:1041E000EE20C1F280918308803238F220917E085F
:1041F00030917F083A8329831B82DD82CC828E83B3
:10420000CE010196B8CFE83CF105F8F6FE2CEE2081
:1042100009F243131FC092131DC08091830880FDD3
:1042200010C0982F907F69F0F8018583903F31F09E
:10423000982F907F905F8F70892B8583C8010E9493
:10424000831686E0F801AEE7B8E001900D928A95FA
:10425000E1F70DCFC8010E94560981118ECF8091E0
:104260008308816080938308C8010E948316FFCE73
:10427000EE2009F48FCFC8010E945609F82E88233A
:1042800009F488CF86E0F801AEE7B8E001900D921E
:104290008A95E1F780917E0890917F080E94E70857
:1042A0000E94871FE4CE81E08E25FBCE1F93CF9323
:1042B000DF93CDB7DEB767970FB6F894DEBF0FBEBA
:1042C000CDBF4B8B5C8B6D8B7E8B8F8B6111109276
:1042D000BF081A8A198A85E0FE017396DE011D96D1
:1042E00001900D928A95E1F786E0FE013D96DE0190
:1042F000179601900D928A95E1F7CE0107960E94DC
:10430000DD1F882389F016E08091B508909184081C
:10431000891349C067960FB6F894DEBF0FBECDBFB4
:10432000DF91CF911F91089586E0FE013796DE015F
:10433000119601900D928A95E1F78A859B85892BCC
:1043400011F38F81988589238F3FE9F220918408AA
:1043500030E0C9010196877099274091B508481748
:10436000190671F40E949E0D109284081092B508EF
:1043700086E0EEE7F8E0DF011D928A95E9F7C3CF0A
:1043800096E0929FD001939FB00D1124AB57B74F89
:10439000FE01319601900D929A95E1F78093840881
:1043A0000E948608B0CF819FC00111248B57974F80
:1043B0000E94DD1F882309F4ADCF8091B50890E0FD
:1043C0000196877099278093B5089ECF1F920F9210
:1043D0000FB60F9211242F933F934F935F936F93D8
:1043E0007F938F939F93AF93BF93CF93DF93EF937D
:1043F000FF93D091E900DF708091EC00C82FC1706D
:1044000080FDC0E81092E9008091F000877F8093E2
:10441000F00078940E94A90D1092E9008091F000BC
:1044200088608093F000CD2BCF70C093E900FF919E
:10443000EF91DF91CF91BF91AF919F918F917F913C
:104440006F915F914F913F912F910F900FBE0F9001
:104450001F9018951F920F920FB60F9211242F9351
:104460003F934F935F936F937F938F939F93AF93FC
:10447000BF93EF93FF938091E10082FF09C0809189
:10448000E20082FF05C08091E1008B7F8093E10014
:104490008091DA0080FF24C08091D80080FF20C086
:1044A0008091DA008E7F8093DA008091D90080FFBE
:1044B0009DC080E189BD82E189BD09B400FEFDCFC8
:1044C00081E080932D0980912009811109C00E940B
:1044D00068030E9433048091E20084608093E200CC
:1044E0008091E10080FF17C08091E20080FF13C03F
:1044F0008091E2008E7F8093E2008091E2008061F3
:104500008093E2008091D80080628093D80019BC2B
:1045100085E080932D098091E10084FF2BC080917C
:10452000E20084FF27C080E189BD82E189BD89B5B1
:10453000982F917080FFFBCF8091D8008F7D809362
:10454000D8008091E1008F7E8093E1008091E200AD
:104550008F7E8093E2008091E20081608093E20090
:1045600080912E09882309F447C084E080932D09A7
:1045700080912D098091E10083FF27C08091E200A6
:1045800083FF23C08091E100877F8093E10082E078
:1045900080932D0910922E098091E1008E7F8093E7
:1045A000E1008091E2008E7F8093E2008091E20042
:1045B00080618093E20042E060E080E00E940104BC
:1045C0008091F00088608093F000FF91EF91BF919F
:1045D000AF919F918F917F916F915F914F913F919B
:1045E0002F910F900FBE0F901F90189519BC10922D
:1045F0002D091092200974CF8091E30087FD93E08C
:1046000090932D09B5CF78941F921FB61F92112455
:104610008F939F93AF93BF938091190990911A093B
:10462000A0911B09B0911C090196A11DB11D809399
:10463000190990931A09A0931B09B0931C09BF9103
:10464000AF919F918F911F901FBE1F9018951F9241
:104650001FB61F9211248F939F93AF93BF938091A6
:104660001809811113C08091190990911A09A0911C
:104670001B09B0911C094196A11DB11D8093190918
:1046800090931A09A0931B09B0931C09BF91AF9195
:104690009F918F911F901FBE1F9018951F920F9290
:1046A0000FB60F9211247F928F929F92AF92BF927A
:1046B000CF92DF92EF92FF920F931F932F933F932E
:1046C0004F935F936F937F938F939F93AF93BF931A
:1046D000CF93DF93EF93FF9380910B0990910C0997
:1046E000A0910D09B0910E090196A11DB11D8093F5
:1046F0000B0990930C09A0930D09B0930E096091DA
:104700000B0970910C0980910D0990910E090E947E
:104710008B296B017C0120E030E040E85CE3609194
:104720000709709108098091090990910A090E946E
:104730009F2A9B01AC01C701B6010E94DE2887FDBC
:10474000BDC010920B0910920C0910920D09109225
:104750000E0970904C0980914D09811103C077209A
:1047600009F4A2C00E9406056C01711023C080E00C
:1047700090914D09782E9923A1F0709050097110F5
:1047800005C070905109711001C0782EC5E5D9E0BF
:1047900010E000E0809195098017110611F00CF0EF
:1047A0000CC180910609882309F47EC01092060985
:1047B000782E7AC00091420910914309C8010E94E5
:1047C000F704C0914009D09141098C179D0778F2F8
:1047D000C8010E94F7047C01EC1AFD0AD09243093B
:1047E000C09242098090440990904509E4012196C5
:1047F000D0934509C09344090E940605909354093B
:1048000080935309C0904709D0904809CC15DD0525
:1048100048F080914609882309F443C01092450965
:10482000109244090091490910914A09C091440924
:10483000D091450980914B095E0163E0AA0CBB1C35
:104840006A95E1F7811158C0F40153E0EE0FFF1FA4
:104850005A95E1F7E00FF11FD801AA0DBB1D2D916C
:104860003D914D915C9160817181828193810E9423
:10487000DE28811141C081E080934B094FE050E078
:1048800060E070E0CB010E9455149092450980923F
:1048900044098FE090E09093410980934009872D6F
:1048A00067CF0E944D06712C80914D0981119DC0EA
:1048B00080914C09811199C00E94EE05FF91EF9102
:1048C000DF91CF91BF91AF919F918F917F916F9128
:1048D0005F914F913F912F911F910F91FF90EF901A
:1048E000DF90CF90BF90AF909F908F907F900F9070
:1048F0000FBE0F901F90189510924B09F801EA0D0A
:10490000FB1D64817581868197810E945C299B01D2
:10491000A0E6BAEE0E94622820E03EE140E050E0CE
:104920000E94402881E0C81AD108812C4EE1942EC3
:10493000A12CB12C2E153F05F0F0D0934509C09362
:104940004409E216F306A8F5C9018E199F097C01F6
:1049500083E0CC0FDD1F8A95E1F7C00FD11F68817E
:1049600079818A819B81A7010E945514F0924109A7
:10497000E092400994CFCC15DD05F8F6E21AF30A6F
:104980002196FE0123E0EE0FFF1F2A95E1F7E00FCD
:10499000F11F64817581868197810E945C299B014A
:1049A000A0E6BAEE0E946228A50194010E94402868
:1049B000C1CFEE24E394F12CCBCFEE80FF80C70172
:1049C00001978E3F9F4F68F4888199810E94F70478
:1049D0008E159F0530F06A817B818C819D810E94BC
:1049E00008160F5F1F4F2896D5CE772009F466CFA3
:1049F0000E9493090E94F90561CFCDB7DEB72A97CF
:104A00000FB6F894DEBF0FBECDBF84B7877F84BFDB
:104A10000FB6F894A895809160008861809360003B
:104A2000109260000FBE80E890E00FB6F89480937B
:104A30006100909361000FBE85B7806885BF85B720
:104A4000806885BF8AE796E0909349058093480582
:104A50000E9468030E9433048091E2008460809386
:104A6000E200789480912D098823A1F01091E9004B
:104A70001F709091EC00892F817090FD80E8182BB9
:104A80001092E9008091E80083FD0E94A90D1F703B
:104A90001093E90082E084BD93E095BD9AEF97BD45
:104AA00080936E0007EE14E0D8018D918D018F3F49
:104AB00011F00E947C06B4E00C3E1B07A9F70CEE37
:104AC00014E0F8EFEF2EF4E0FF2EF80181918F0152
:104AD0008F3F11F00E947C06E016F106B1F78AE0E4
:104AE000E8EDF8E0DF01282F1D922A95E9F7ECECBC
:104AF000F8E0DF011D928A95E9F76E9A769A90E0C8
:104B000080E00E94D427893E9E4F11F00E948813B6
:104B100082E090E00E94CC278093E2080E94950CEE
:104B20009093D7088093D6080E94C510EFE3FCE964
:104B30003197F1F700C000000E94C5108091D8089D
:104B400080FF08C06FEF7FEF90E080E00E94F827C1
:104B50000E94160C83E090E00E94CC27682F70E042
:104B600090E080E00E94940D279A2F988AE080932D
:104B7000800089E1809381008FEF9FEF9093870001
:104B8000809386000E94F3130E941C140E94F3136A
:104B900082E893E0909315098093140958E1C52E9B
:104BA000D12C60E4962E72EEA72E78E0B72EE0E1CD
:104BB0008E2E80912D0912E1853009F4B2C00E9439
:104BC000C510882359F08FB7F89440911909509176
:104BD0001A0960911B0970911C098FBFA8EDB8E0FC
:104BE000E3EEF8E010E000E0702F8D919D912191AF
:104BF00031912817390709F4A6C02827392760E022
:104C0000EE24E394F12CA9014E215F21452B09F4F8
:104C100094C069837A839C012E213F2191E0232B4C
:104C200009F490E09B830E9406058160782F9D83A4
:104C30008C8349815A816B818D810E945621000F9E
:104C4000111FF801ED51F74F80819181E826F92677
:104C5000F182E0828091040981110DC080910209E6
:104C600090910309009709F085C00E940605909372
:104C700003098093020980910109882309F49EC0E9
:104C80008091FF0890910009009709F08DC00E9463
:104C90000605909300098093FF088091FE08282F55
:104CA00030E0882309F494C0C901019795C0809130
:104CB0002D09843031F180E00E944A050E944D06A2
:104CC000109218090FB6F894A895C09260000FBE14
:104CD0009092600083B7817F846083BF83B78160D7
:104CE00083BF7894889583B78E7F83BF0FB6F8947F
:104CF000A8958091600088618093600010926000A8
:104D00000FBE80912C09882361F00E94C510E8ED48
:104D1000F8E081919191892B09F081C0AE16BF0610
:104D2000C1F780912D09853009F4C1CF0E949E0DF5
:104D30000E94F3130E943E0542CF6F5FEE0CFF1CF2
:104D40006C3009F060CF0F5F1F4F0530110509F07F
:104D50004BCF8FEF8E838F8318860E94060581606C
:104D6000782F9A8789874E815F8168858A850E941E
:104D7000562170CF0E94F7048D32914008F47BCF0A
:104D800080914F0980FF06C064E070E08EE893E0F8
:104D90000E9418150E9406059093430980934209CA
:104DA00081E08093040967CF0E94F7042091AE034D
:104DB0003091AF032817390708F469CF0E943E05E8
:104DC00090910509891709F4F4CE80930509F1CE75
:104DD0008091FD088150990B40910F09442399F06F
:104DE0002351374FD9011C918351974FFC0180818A
:104DF0000E9476090E94081680910F09882319F0F5
:104E0000812F0E9402168091FE0890E00196609129
:104E1000FD0870E00E9449278093FE08CFCF89BC2F
:104E200019BD09B400FEFDCF8091D8008F7D80931D
:104E3000D8008091E00082608093E0008091E000E3
:104E400081FDFCCF0E949E0D6CCFDB018F939F9361
:104E50000E942D28BF91AF91A29F800D911DA39F0D
:104E6000900DB29F900D11240895AA1BBB1B51E118
:104E700007C0AA1FBB1FA617B70710F0A61BB70BCA
:104E8000881F991F5A95A9F780959095BC01CD016F
:104E9000089597FB072E16F4009407D077FD09D0EC
:104EA0000E94352707FC05D03EF4909581959F4FD1
:104EB0000895709561957F4F0895EE0FFF1F05903F
:104EC000F491E02D09948F929F92AF92BF92CF926E
:104ED000DF92EF92FF92CF93DF93EC0168817981AB
:104EE0008A819B81611571058105910521F464E238
:104EF00079ED8BE597E02DE133EF41E050E00E9442
:104F00000E2849015A019B01AC01A7EAB1E40E94B5
:104F10002D286B017C01ACEEB4EFA50194010E9439
:104F20003B28DC01CB018C0D9D1DAE1DBF1DB7FFC5
:104F300003C00197A109B04888839983AA83BB83E2
:104F40009F77DF91CF91FF90EF90DF90CF90BF9050
:104F5000AF909F908F9008950E946327089580E0FE
:104F600091E00E9463270895B0E0A0E080930001E3
:104F700090930101A0930201B09303010895FB01F6
:104F8000DC0104C08D910190801921F44150504002
:104F9000C8F7881B990B0895F999FECF92BD81BD82
:104FA000F89A992780B50895A8E1B0E042E050E072
:104FB0000C940028262FF999FECF92BD81BDF89A56
:104FC000019700B4021639F01FBA20BD0FB6F8944D
:104FD000FA9AF99A0FBE08950396272F0E94DB27AD
:104FE0000E94DA27252F0E94DB27242F0C94DB2731
:104FF0000196272F0E94DB270C94DA27DC01CB01D6
:10500000FC01F999FECF06C0F2BDE1BDF89A3196D8
:1050100000B40D9241505040B8F70895052E97FB0B
:105020001EF400940E94252857FD07D00E944028B6
:1050300007FC03D04EF40C942528509540953095EC
:1050400021953F4F4F4F5F4F0895909580957095F4
:1050500061957F4F8F4F9F4F08950E946228A59FB3
:10506000900DB49F900DA49F800D911D1124089563
:10507000B7FF0C942D280E942D28821B930B0895B6
:10508000A1E21A2EAA1BBB1BFD010DC0AA1FBB1F4C
:10509000EE1FFF1FA217B307E407F50720F0A21BBE
:1050A000B30BE40BF50B661F771F881F991F1A942B
:1050B00069F760957095809590959B01AC01BD0155
:1050C000CF010895A29FB001B39FC001A39F700DAF
:1050D000811D1124911DB29F700D811D1124911D00
:1050E00008955058BB27AA270E9489280C94652A46
:1050F0000E94572A38F00E945E2A20F039F49F3F20
:1051000019F426F40C94542A0EF4E095E7FB0C9461
:10511000402AE92F0E94762A58F3BA1762077307CC
:105120008407950720F079F4A6F50C94982A0EF4DC
:10513000E0950B2EBA2FA02D0B01B90190010C01A7
:10514000CA01A0011124FF27591B99F0593F50F4BF
:10515000503E68F11A16F040A22F232F342F442717
:10516000585FF3CF469537952795A795F04053950F
:10517000C9F77EF41F16BA0B620B730B840BBAF0DF
:105180009150A1F0FF0FBB1F661F771F881FC2F74A
:105190000EC0BA0F621F731F841F48F4879577955E
:1051A0006795B795F7959E3F08F0B0CF9395880F18
:1051B00008F09927EE0F9795879508950E941C2A6D
:1051C00008F481E008950E94F7280C94652A0E9453
:1051D0005E2A58F00E94572A40F029F45F3F29F0D8
:1051E0000C94402A51110C94992A0C94542A0E9430
:1051F000762A68F39923B1F3552391F3951B550B48
:10520000BB27AA2762177307840738F09F5F5F4F99
:10521000220F331F441FAA1FA9F335D00E2E3AF0D8
:10522000E0E832D091505040E695001CCAF72BD0F0
:10523000FE2F29D0660F771F881FBB1F2617370741
:105240004807AB07B0E809F0BB0B802DBF01FF2773
:1052500093585F4F3AF09E3F510578F00C94402AE6
:105260000C94992A5F3FE4F3983ED4F386957795A2
:105270006795B795F7959F5FC9F7880F911D96952C
:10528000879597F90895E1E0660F771F881FBB1F88
:10529000621773078407BA0720F0621B730B840B35
:1052A000BA0BEE1F88F7E09508950E945C29689478
:1052B000B1110C94992A08950E947E2A88F09F5774
:1052C00098F0B92F9927B751B0F0E1F0660F771F2A
:1052D000881F991F1AF0BA95C9F714C0B13091F020
:1052E0000E94982AB1E008950C94982A672F782F8D
:1052F0008827B85F39F0B93FCCF3869577956795E5
:10530000B395D9F73EF490958095709561957F4F50
:105310008F4F9F4F0895E89409C097FB3EF49095F6
:105320008095709561957F4F8F4F9F4F9923A9F07E
:10533000F92F96E9BB279395F6958795779567950D
:10534000B795F111F8CFFAF4BB0F11F460FF1BC051
:105350006F5F7F4F8F4F9F4F16C0882311F096E9E4
:1053600011C0772321F09EE8872F762F05C0662392
:1053700071F096E8862F70E060E02AF09A95660F4B
:10538000771F881FDAF7880F9695879597F9089504
:105390000E94572A20F019F00E945E2A50F40C94C3
:1053A000542A0C94992AE92F0E94762A88F35523CF
:1053B000B1F3E7FB6217730784079507A8F189F338
:1053C000E92FFF2788232AF03197660F771F881F60
:1053D000DAF7952F5527442332F091505040220F91
:1053E000331F441FD2F7BB27E91BF50B621B730B5E
:1053F000840BB109B1F222F4620F731F841FB11D37
:1054000031972AF0660F771F881FBB1FEFCF91508F
:10541000504062F041F0882332F0660F771F881FFA
:1054200091505040C1F793950C94462A86957795F4
:1054300067959F5FD9F7F7CF990F0008550FAA0B13
:10544000E0E8FEEF16161706E807F907C0F0121697
:105450001306E407F50798F0621B730B840B950B9A
:1054600039F40A2661F0232B242B252B21F40895EF
:105470000A2609F4A140A6958FEF811D811D08958C
:1054800097F99F6780E870E060E008959F3F31F0F2
:10549000915020F4879577956795B795880F911D62
:1054A0009695879597F908959FEF80EC08950024CD
:1054B0000A941616170618060906089500240A9479
:1054C00012161306140605060895092E0394000CFF
:1054D00011F4882352F0BB0F40F4BF2B11F460FF8E
:1054E00004C06F5F7F4F8F4F9F4F089557FD9058B7
:1054F000440F551F59F05F3F71F04795880F97FB98
:10550000991F61F09F3F79F0879508951216130651
:105510001406551FF2CF4695F1DF08C01616170680
:105520001806991FF1CF86957105610508940895B5
:10553000E894BB2766277727CB0197F908950E9447
:10554000B22A0C94652A0E94572A38F00E945E2ADB
:1055500020F0952311F00C94402A0C94542A112425
:105560000C94992A0E94762A70F3959FC1F3950FA7
:1055700050E0551F629FF001729FBB27F00DB11DD7
:10558000639FAA27F00DB11DAA1F649F6627B00D67
:10559000A11D661F829F2227B00DA11D621F739F50
:1055A000B00DA11D621F839FA00D611D221F749F5E
:1055B0003327A00D611D231F849F600D211D822FA5
:1055C000762F6A2F11249F5750409AF0F1F08823CC
:1055D0004AF0EE0FFF1FBB1F661F771F881F9150F9
:1055E0005040A9F79E3F510580F00C94402A0C943E
:1055F000992A5F3FE4F3983ED4F3869577956795B3
:10560000B795F795E7959F5FC1F7FE2B880F911D22
:105610009695879597F90895FA01EE0FFF1F30963A
:1056200021053105A1F16115710561F48038BFE3F1
:105630009B0749F168949038810561F08038BFEF8D
:105640009B0741F099234AF5FF3FE105310521050C
:1056500019F1E8940894E795D901AA2329F4AB2F0E
:10566000BE2FF85FD0F310C0FF5F70F4A695E0F78F
:10567000F73950F019F0FF3A38F49F779F930DD027
:105680000F9007FC9058089546F00C94542A60E05F
:1056900070E080E89FE308954FE79F775F934F9313
:1056A0003F932F930E94072C2F913F914F915F9131
:1056B0000E949F2A0C94642B29F416F00C94402A23
:1056C0000C94982A0C94542A0E947E2AA8F39638A7
:1056D000A0F707F80F92E8942BE33AEA48EB5FE76C
:1056E0000E94B52A0F920F920F924DB75EB70F929C
:1056F0000E944F2CECEAF0E00E94962B4F915F91B4
:10570000EF91FF91E595EE1FFF1F49F0FE57E0680E
:105710004427EE0F441FFA95E1F74195550B0E947F
:10572000C92B0F9007FE0C94BD2B0895DF93CF93E8
:105730001F930F93FF92EF92DF927B018C0168948D
:1057400006C0DA2EEF010E94B22AFE01E894A5916C
:105750002591359145915591A6F3EF010E94892835
:10576000FE019701A801DA9469F7DF90EF90FF90AE
:105770000F911F91CF91DF9108959B01AC0160E0E3
:1057800070E080E89FE30C94E3280C94402A0C948A
:10579000462A0E947E2AD8F39923C9F3940F511DFB
:1057A000A3F39150504094F059F0882332F0660FE3
:1057B000771F881F91505040C1F79E3F51052CF72D
:1057C000880F911D9695879597F908955F3FACF0E6
:1057D000983E9CF0BB27869577956795B79508F41A
:1057E000B1609395C1F7BB0F58F711F460FFE8CF94
:1057F0006F5F7F4F8F4F9F4FE3CF0C94992A16F026
:105800000C94462A0C94542A68940C94402A0E94C2
:105810007E2AA8F39923C1F3AEF3DF93CF931F93AE
:105820000F93FF92C92FDD2788232AF02197660F57
:10583000771F881FDAF720E030E040E85FEB9FE356
:10584000883920F0803E38F021968F770E947228A8
:10585000E4EDF0E004C00E947228E1E0F1E00E9473
:10586000962B8B01BE01EC01FB2E6F5771097595CC
:10587000771F880B990B0E948D2928E132E741E3BD
:105880005FE30E94B22AAF2D9801AE01FF900F9105
:105890001F91CF91DF910E9489280C94652AFA010B
:1058A000DC01AA0FBB1F9B01AC01BF5728F42227C4
:1058B00033274427507820C0B75190F4AB2F0024F1
:1058C000469537952795011CA395D2F3002071F0DA
:1058D000220F331F441FB395DAF30ED00C947128B6
:1058E00061307105A0E88A07B94630F49B01AC012C
:1058F0006627772788279078309621F02083318398
:10590000428353830895F894FFCFC709040A0A0A13
:105910001C0AE10AC9091E0B490B780B8D0EB50E46
:105920004D10B50E4D10E80E090F4D100610131056
:10593000EA17F117F6170618121800181818411868
:1059400046184B18501870188C18CB1CCB1C041D13
:10595000041DBA1D331D331D331DD41DAA1EB91ECF
:02596000B91E6E
:10596200010000000AA7CF44000000410000DC440F
:1059720000000041000000000000804052D0244599
:105982000000404100000000000080400AA74F458F
:105992000000404100000000000000000000000084
:1059A20000000000000000000000000000000000F5
:1059B20000000000000000000000000000000000E5
:1059C20000000000000000000000000000000000D5
:1059D20000000000000000000000000000000000C5
:1059E200000000000AA7CF44000000410000DC4490
:1059F20000000041000000000000804052D0244519
:105A020000008041000000000000000000000000D3
:105A12000000000000000000000000000000000084
:105A22000000000000000000000000000000000074
:105A32000000000000000000000000000000000064
:105A42000000000000000000000000000000000054
:105A52000000000000000000000000000000000044
:105A6200000000004C0852050100005C4400008068
:105A7200415C978A440000804152D0A444000080D7
:105A8200410000DC44000080410000DC44000000D2
:105A9200410AA7CF44000000415CFFB84400000067
:105AA2004152D0A444000000411FD592440000009E
:105AB200415C978A440000004148F17644000000AE
:105AC2004100005C440000004100005C4400008092
:105AD200411F1569440000804148F176440000806E
